:020000040800F2
:1000000000000220056E00084B6E00084D6E0008CF
:100010004F6E0008516E0008536E0008000000008B
:10002000000000000000000000000000556E000805
:10003000576E000800000000596E000879020008A1
:100040005F6E0008616E0008636E0008656E000850
:10005000676E0008696E00086B6E00086D6E000820
:100060006F6E0008716E0008736E0008756E0008F0
:10007000776E0008796E00087B6E00087D6E0008C0
:100080007F6E0008816E0008836E0008856E000890
:10009000876E0008896E00088B6E00088D6E000860
:1000A0008F6E0008916E0008936E0008956E000830
:1000B000976E0008996E00089B6E00089D6E000800
:1000C0009F6E0008A16E0008A36E0008A56E0008D0
:1000D000A76E0008A96E0008AB6E0008AD6E0008A0
:1000E000AF6E0008B16E0008B36E0008B56E000870
:1000F000B76E0008B96E0008BB6E0008BD6E000840
:10010000BF6E0008B5090008C36E0008C56E000880
:10011000C76E0008C96E0008CB6E0008CD6E0008DF
:10012000CF6E0008D16E0008D36E0008C109000828
:10013000D76E0008D96E0008DB6E0008DD6E00087F
:10014000DF6E0008E16E0008E36E0008E56E00084F
:10015000E76E0008E96E0008EB6E0008ED6E00081F
:10016000EF6E0008F16E0008F36E0008F56E0008EF
:10017000F76E0008F96E0008FB6E0008FD6E0008BF
:10018000FF6E0008016F000810B5054C237833B9E5
:10019000044B13B10448AFF300800123237010BD5A
:1001A0005001002000000000C0930008084B10B56B
:1001B0001BB108490848AFF300800848036803B939
:1001C00010BD074B002BFBD0BDE81040184700BF07
:1001D0000000000054010020C093000850010020DE
:1001E00000000000154B002B08BF134B9D46A3F5E4
:1001F000803A00218B460F461348144A121A07F022
:10020000BEF90F4B002B00D098470E4B002B00D0AF
:1002100098470020002104000D000D48002802D05E
:100220000C48AFF3008007F071F92000290006F0B8
:10023000B5FA07F057F900BF0000080000000220DF
:10024000000000000000000050010020C409002050
:10025000000000000000000080B400AF054B6FF00C
:100260007F425A60034B07221A6000BFBD465DF80B
:10027000047B704710E000E080B400AF044B1B68C3
:100280000133034A136000BFBD465DF8047B70472D
:100290000000002080B400AF054B1B681A06054B18
:1002A0009B68D31A1846BD465DF8047B704700BFB3
:1002B0000000002010E000E080B584B000AF78605E
:1002C000FFF7E8FF01467A681346DB0013441B0181
:1002D0000B44FB6000BFFFF7DDFF0246FB689B1A83
:1002E000002BF8DC00BF1037BD4680BD80B582B062
:1002F00000AF786006E04FF47A70FFF7DDFF7B68AF
:10030000013B7B607B68002BF5D100BF0837BD4601
:1003100080BD00BF80B582B000AF0346FB71FA79A3
:100320000C4913469B0013449B000B441B68002B95
:100330000AD0FA79074913469B0013449B000B44EB
:100340001B689847034600E0042318460837BD465B
:1003500080BD00BF0400002080B582B000AF03461E
:10036000FB71FA790D4913469B0013449B000B4423
:1003700004331B68002B0BD0FA79084913469B0005
:1003800013449B000B4404331B689847034600E06A
:10039000042318460837BD4680BD00BF0400002076
:1003A00080B584B000AFB9607A603B600346FB73F0
:1003B0003B68002B01D104231AE0FA7B0E49134657
:1003C0009B0013449B000B4410331B68002B0ED082
:1003D000FA7B094913469B0013449B000B441033DE
:1003E0001B683A687968B8689847034600E00423B8
:1003F00018461037BD4680BD0400002080B584B08B
:1004000000AFB9607A603B600346FB733B68002B2A
:1004100001D104231AE0FA7B0E4913469B001344D2
:100420009B000B440C331B68002B0ED0FA7B094950
:1004300013469B0013449B000B440C331B683A6823
:100440007968B8689847034600E0042318461037D7
:10045000BD4680BD0400002080B582B000AF0346D9
:100460003A60FB710B46BB71FA790F4913469B004A
:1004700013449B000B4408331B68002B0ED0FA7901
:10048000094913469B0013449B000B4408331B6827
:10049000BA79396810469847034600E004231846A5
:1004A0000837BD4680BD00BF0400002080B400AF07
:1004B000024B1846BD465DF8047B70470000FC42C5
:1004C00080B400AF01231846BD465DF8047B704739
:1004D00080B400AF01231846BD465DF8047B704729
:1004E00080B400AF01231846BD465DF8047B704719
:1004F00080B400AF01231846BD465DF8047B704709
:1005000080B400AF01231846BD465DF8047B7047F8
:1005100080B400AF01231846BD465DF8047B7047E8
:1005200080B483B000AF03463960FB7101231846E5
:100530000C37BD465DF8047B704700BF80B483B0C4
:1005400000AF03463960FB71012318460C37BD46E6
:100550005DF8047B704700BF80B483B000AF0346F2
:100560003960FB71012318460C37BD465DF8047BEA
:10057000704700BF80B485B000AFF860B9607A60A2
:10058000012318461437BD465DF8047B704700BF51
:1005900080B485B000AFF860B9607A600123184676
:1005A0001437BD465DF8047B704700BF80B485B04A
:1005B00000AFF860B9607A60012318461437BD4671
:1005C0005DF8047B704700BF80B485B000AFF86071
:1005D000B9607A60012318461437BD465DF8047B84
:1005E000704700BF80B485B000AFF860B9607A6032
:1005F000012318461437BD465DF8047B704700BFE1
:1006000080B485B000AFF860B9607A600123184605
:100610001437BD465DF8047B704700BF80B400AF5F
:1006200001231846BD465DF8047B704780B582B053
:1006300000AF4FF4C06004F025FB31233B71012370
:100640007B710023BB710123FB713B1D184604F035
:100650002DFB3B233B7101237B713B1D184604F0AE
:1006600025FB01F05BFE01F085FE00F0AFF90346CB
:10067000002B08D1164B1B78DBB223F00103DAB252
:10068000134B1A7007E0124B1B78DBB243F00103E7
:10069000DAB20F4B1A70FFF7C1FF0346002B08D1E7
:1006A0000B4B1B78DBB243F00403DAB2084B1A7031
:1006B00007E0074B1B78DBB223F00403DAB2044BEC
:1006C0001A70034B1B78DBB218460837BD4680BD55
:1006D000B800002080B500AF00F00CFA0346012BF3
:1006E00001D0012318E0FFF799FF0346002B08D142
:1006F0000A4B1B78DBB243F00403DAB2074B1A70E3
:1007000007E0064B1B78DBB223F00403DAB2034B9D
:100710001A70024B1B78DBB2184680BDB80000206F
:1007200090B5ADF5097D02AF07F10C03186007F134
:10073000080319603B1D1A60002387F816323F4BEF
:100740001B78DBB203F00103002B01D0032370E020
:1007500007F10C031B6803F00303002B34D00023C4
:1007600087F8173224E007F108031B6807F1080235
:10077000591C116007F1140001221946FFF7D0FF40
:10078000034687F8173297F81732002B18D107F174
:10079000140107F10C034FF40072186806F0E4FE30
:1007A00007F10C0307F10C02126802F500721A60DF
:1007B0003B1D1B683A1D591E1160002BD3D100E070
:1007C00000BF97F8173234E007F108031B685B029B
:1007D0004FF0000407F10C013A1D126801924FF42A
:1007E000007200921A462346086800F0C1FE0346D4
:1007F00087F8163297F81632002B19D100F054FF03
:10080000034687F8163200F03DF9034687F81532A3
:1008100097F81532012BF6D097F81532022B03D03A
:1008200097F81632002B01D0012302E0002300E0EC
:100830000123184607F50777BD4690BDB800002094
:1008400090B5ADF5097D02AF07F10C03186007F113
:10085000080319603B1D1A60002387F81632FFF762
:10086000DDFE0346002B01D1022377E000F042F9C0
:100870000346012B01D0032370E007F10C031B6832
:1008800003F00303002B34D0002387F8173224E051
:1008900007F10C0307F114004FF40072196806F019
:1008A00063FE07F108031B6807F10802591C116079
:1008B00007F1140001221946FFF7C2FF034687F82B
:1008C000173297F81732002B0FD107F10C0307F1FD
:1008D0000C02126802F500721A603B1D1B683A1D7B
:1008E000591E1160002BD3D100E000BF97F81732DA
:1008F00034E007F108031B685B024FF0000407F1C6
:100900000C013A1D126801924FF4007200921A46CF
:100910002346086800F026FF034687F8163297F84A
:100920001632002B19D100F0F7FF034687F8163274
:1009300000F0A8F8034687F8153297F81532012B16
:10094000F6D097F81532022B03D097F81632002B09
:1009500001D0012302E0002300E00123184607F53F
:100960000777BD4690BD00BF80B483B000AF03469B
:100970003960FB71FB79042B15D801A252F823F0E2
:10098000A7090008A7090008950900089F090008A1
:10099000A70900083B684FF400721A8003E03B6827
:1009A00020221A6000BF002318460C37BD465DF8B0
:1009B000047B704780B500AF01F06CF800BF80BDCC
:1009C00080B500AF01F0D0F800BF80BD90B583B016
:1009D00000AF0023FB7104F0A1FD00F09DF8034679
:1009E000FB71FB79DBB2002B02D0FB79DBB240E07C
:1009F00000F0A8F90346FB71FB79DBB2002B02D0B3
:100A0000FB79DBB235E01D4B01221A751B4B00222E
:100A10001A601A4B00225A60184B00229A60174B3A
:100A20000022DA60154B00221A61144804F084FD9C
:100A3000134800F04BFA0346FB71FB79DBB2002B45
:100A40000BD10F4BB3F854301B044FF00004184681
:100A5000214600F067FD0346FB71FB79DBB2002BFA
:100A600004D1002000F0F2FC0346FB71FB79FB7916
:100A7000DBB218460C37BD4690BD00BF60020020B7
:100A80000802002080B582B000AF0423FB7100F0A3
:100A900011F80346FB71FB79042B01D1002305E01B
:100AA000FB79FF2B01D1022300E001231846083710
:100AB000BD4680BD80B582B000AF00237B6000F0F2
:100AC00019F80346012B0FD13B1D184600F0A6FF75
:100AD0000346002B01D0FF2307E07B685B0ADBB2F3
:100AE00003F00F03DBB200E0FF2318460837BD46D2
:100AF00080BD00BF80B582B000AF0123FB7105F05F
:100B000025FA0346002B01D10023FB71FB79DBB2F0
:100B100018460837BD4680BD80B586B000AF0023BB
:100B2000FB7100237B6100233B610023FB600023FA
:100B3000BB60814B76221A757F4B00221A607E4B78
:100B400000225A607C4B00229A607B4B0022DA60C4
:100B5000794B00221A61784804F0EEFC032004F07F
:100B60002BFD012004F018FD744B00221A60734B1A
:100B700000225A60714B00229A60704B0022DA60AA
:100B80006E4B4FF480621A616C4804F033FD01F043
:100B900003F80346FB71FB79DBB2002B02D0FB7933
:100BA000DBB2C5E0654B4FF4D5721A60634B082287
:100BB0005A60624B40229A60604B0022DA605F4BC1
:100BC0004FF480621A615D4804F014FD01F00CF8E6
:100BD0000346FB71FB79DBB2002B06D1584B012297
:100BE0001A604FF08043BB6017E0544B00221A603C
:100BF000524B37225A60514B40229A604F4B002291
:100C0000DA604E4B4FF480621A614C4804F0F2FCFB
:100C1000372001F027F80346FB71484B00221A6089
:100C2000464B37225A60454B40229A60434B002284
:100C3000DA60424B4FF480621A61404804F0DAFCFB
:100C4000372001F00FF80346FB71FB79DBB2002B74
:100C50006CD14FE0394B00221A60384B37225A6072
:100C6000364B40229A60354B0022DA60334B4FF40A
:100C700080621A61314804F0BDFC372000F0F2FFB9
:100C80000346FB71FB79DBB2002B02D0FB79DBB2B0
:100C90004EE0BB6843F0004343F48013274A1360DF
:100CA000264B29225A60254B40229A60234B002272
:100CB000DA60224B4FF480621A61204804F09AFCFB
:100CC00001F0A2F80346FB71FB79DBB2002B02D0E6
:100CD000FB79DBB22CE0002004F0C4FC78617B6976
:100CE000DB0F012B0CBF01230023DBB2FB603B6950
:100CF00001333B61FB68002B04D13B694FF6FE7268
:100D00009342A7D93B694FF6FE72934204D91B2345
:100D1000FB71FB79DBB20BE07B6903F080437B6105
:100D20007B69002B02D0064B02221A60FB79DBB2F2
:100D300018461837BD4680BD60020020F001002033
:100D40006C01002080B582B000AF0023FB7101234D
:100D5000BB8004F041FC0346002B03D12523FB712B
:100D6000FB79A5E0544B1B68042B33D0534B002276
:100D70001A60524B02225A60504BC0229A604F4B6D
:100D80000022DA604D4B4FF480621A614B4804F048
:100D900031FC01F063F80346FB71FB79002B01D0B5
:100DA000FB7985E0002004F05DFC0246444B1A60AC
:100DB000042004F057FC0246414B5A60082004F01E
:100DC00051FC02463E4B9A600C2004F04BFC02465C
:100DD0003B4BDA60384B1B68002B0BD0364B1B6843
:100DE000012B07D0344B1B68062B03D0324B1B68FA
:100DF000022B1ED1314B00221A60304B03225A6065
:100E00002E4B40229A602D4B0022DA602B4B4FF480
:100E100080621A61294804F0EDFB3B1D194603204E
:100E200001F052F80346FB71FB79002B01D0FB79EE
:100E30003EE0214B1B68042B39D0BB881A46214B5E
:100E40001A60BB881B041A461C4B1A601B4B0922F4
:100E50005A601A4BC0229A60184B0022DA60174B76
:100E60004FF480621A61154804F0C4FB00F0F6FFED
:100E70000346FB71FB79002B01D0FB7918E00020C1
:100E800004F0F0FB0246104B1A60042004F0EAFB69
:100E900002460D4B5A60082004F0E4FB02460A4B60
:100EA0009A600C2004F0DEFB0246074BDA60002358
:100EB00018460837BD4680BD6C010020F0010020B7
:100EC000800100209001002070010020B0B485B0A6
:100ED00000AF78600022BA730022FA73884A126861
:100EE000D1B27A6882F85610864A126891B27A684E
:100EF000A2F85410844A1268120EFA73FA7B92090F
:100F0000D1B27A681170FA7B9210D2B202F00F025D
:100F1000D1B27A685170FA7B02F00302D1B27A68DA
:100F20009170794A1268120CFA737A68F97BD17061
:100F3000754A1268120AFA737A68F97B1171724A5B
:100F40001268FA737A68F97B51716F4A5268120E0F
:100F5000FA73FA7B92B2120191B27A68D1806A4A2E
:100F60005268120CFA737A68D28891B2FA7B12092D
:100F7000D2B292B20A4391B27A68D180FA7B02F07F
:100F80000F02D1B27A6811725F4A5268120AFA737C
:100F9000FA7BD209D1B27A685172FA7B9211D2B23D
:100FA00002F00102D1B27A689172FA7B5211D2B288
:100FB00002F00102D1B27A68D172FA7B1211D2B278
:100FC00002F00102D1B27A6811737A68002151737C
:100FD0004B4A1268002A04D0494A1268012A40F09C
:100FE0009580FB7B9B0203F440627B681A61464B51
:100FF0005B68FB737B681B69FA7B92001A437B6812
:101000001A61414B9B681B0EFB737B681B69FA7B63
:101010009209D2B21A437B681A61FB7BDB10DBB208
:1010200003F00703DAB27B681A75FB7B03F0070352
:10103000DAB27B685A75344B9B681B0CFB73FB7BE5
:101040005B09DAB27B689A75FB7B9B10DBB203F01D
:101050000703DAB27B68DA75FB7B5B00DBB203F077
:101060000603DAB27B681A76274B9B681B0AFB7370
:101070007B681B7EDAB2FB7BDB09DBB21343DAB29F
:101080007B681A767B681B6901334FF000047A682D
:10109000C2E912347B681B7EDBB20233012202FA02
:1010A00003F37A68D2E912124FEAE37403FB02F504
:1010B00001FB04F02844A1FB0334021914467A68AA
:1010C000C2E912347B681B7ADBB21A4601239340D3
:1010D0001A467B681A657B68D3E912127B681B6D20
:1010E0004FF0000403FB02F501FB04F02844A1FBD0
:1010F0000334021914467A68C2E912343FE000BF93
:101100006C0100209001002070010020A54A1268A7
:10111000022A34D1A44A5268FA73FA7B120402F408
:101120007C117A681161A04A9268120EFA737A688B
:101130001269F97B090211437A6811619A4A92682F
:10114000120CFA737A681169FA7B11437A6811619B
:10115000954A9268120AFA737A68126911464FF03A
:101160000002013142F10002D40444EA5134CB04BC
:101170007A68C2E912347B684FF400721A65FB7B0F
:101180009B11DBB203F00103DAB27B685A76FB7B7A
:101190005B00DBB203F07E03DAB27B689A76824BA7
:1011A0009B68FB737B689B7EDAB2FB7BDB09DBB25F
:1011B0001343DAB27B689A76FB7B03F07F03DAB2E3
:1011C0007B68DA76784BDB681B0EFB73FB7BDB09F5
:1011D000DAB27B681A77FB7B5B11DBB203F00303A7
:1011E000DAB27B685A77FB7B9B10DBB203F0070314
:1011F000DAB27B689A77FB7B9B00DBB203F00C03CF
:10120000DAB27B68DA77684BDB681B0CFB737B68B0
:10121000DB7FDAB2FB7B9B09DBB21343DAB27B687C
:10122000DA77FB7B5B11DBB203F00103DAB27B6898
:1012300083F820207B68002283F82120FB7B03F0C9
:101240000103DAB27B6883F82220574BDB681B0A64
:10125000FB73FB7BDB09DAB27B6883F82320FB7B23
:101260009B11DBB203F00103DAB27B6883F8242020
:10127000FB7B5B11DBB203F00103DAB27B6883F81E
:101280002520FB7B1B11DBB203F00103DAB27B6884
:1012900083F82620FB7B9B10DBB203F00303DAB25A
:1012A0007B6883F82720FB7B03F00303DAB27B68BB
:1012B00083F828203C4BDB68FB73FB7B5B08DAB2CE
:1012C0007B6883F829207B68012283F82A20374B2A
:1012D0001B681B0EFB737B68FA7B83F82C20334B57
:1012E0001B681B0CFB73FB7B9BB21B029AB27B68D7
:1012F000DA852E4B1B681B0AFB737B68DB8D9AB269
:10130000FB7B9BB213439AB27B68DA85274B1B6841
:10131000FB73FB7B1B061A467B681A63234B5B68D7
:101320001B0EFB737B681B6BFA7B12041A437B68F2
:101330001A631E4B5B681B0CFB737B681B6BFA7B91
:1013400012021A437B681A63184B5B681B0AFB7313
:101350007B681A6BFB7B1A437B681A63134B5B68D1
:10136000FB737B68FA7B83F83420104B9B681B0E61
:10137000FB737B68FA7B83F835200C4B9B681B0C56
:10138000FB73FB7B1B061A467B689A63074B9B68C3
:101390001B0AFB737B689B6BFA7B12041A437B6806
:1013A0009A6305E06C01002070010020800100209C
:1013B000254B9B68FB737B689B6BFA7B12021A437D
:1013C0007B689A63204BDB681B0EFB737B689A6B10
:1013D000FB7B1A437B689A631B4BDB681B0CFB731C
:1013E0007B6893F83C30DAB2FB7B1B09DBB213431A
:1013F000DAB27B6883F83C20FB7B1B029BB203F4D0
:1014000070639AB27B68DA870F4BDB681B0AFB7349
:101410007B68DB8F9AB2FB7B9BB213439AB27B68EB
:10142000DA87094BDB68FB73FB7B5B08DAB27B680E
:1014300083F840207B68012283F84120BB7B18465B
:101440001437BD46B0BC70478001002080B584B021
:1014500000AF78600023FB73304B1B68032B03D174
:101460002723FB73FB7B54E02C4B1B68002B07D01E
:101470002A4B1B68012B03D0284B1B68022B47D13A
:101480007B68B3F5805F03D12723FB73FB7B40E0D0
:101490007B68B3F5006F1ED1012000F07DFD03468F
:1014A000FB73FB7B002B33D11D4B01221A751C4BA8
:1014B00000221A601A4B00225A60194B00229A60CF
:1014C000174B4FF40062DA60154B00221A61144882
:1014D00004F032F81CE0002000F05EFD0346FB73D0
:1014E000FB7B002B14D10E4B01221A750C4B0022F2
:1014F0001A600B4B00225A60094B00229A60084B7D
:101500000022DA60064B00221A61054804F014F844
:10151000FB7B18461037BD4680BD00BF6C01002024
:101520006002002080B584B000AFC7E9000100234D
:10153000FB733B680D4A13600C4B07225A600B4B40
:1015400040229A60094B0022DA60084B4FF4806217
:101550001A61064804F04EF8072000F083FB0346AA
:10156000FB73FB7B18461037BD4680BDF0010020A1
:10157000B0B586B000AFF860C7E900230023FB7563
:10158000424B00221A70424B00221A60414B01224A
:101590001A60414B0022DA623F4A3F4BDB6B43F457
:1015A0004A7343F00203D3633B8DFA6A02FB03F3F1
:1015B0001946F86800F05CFF012004F0A1F8374BF1
:1015C0001B68022B0AD14FF400733B85D7E9002337
:1015D000540A44EAC3545D0AC7E900453B8D304ACA
:1015E00013602F4B10225A602D4B40229A602C4BD7
:1015F0000022DA602A4B4FF480621A61284803F017
:10160000F9FF102000F02EFB0346FB75FB7D002B3D
:1016100001D0FB7D36E0234B4FF0FF321A603B8D4B
:10162000FA6A02FB03F31F4A53601E4B90229A6032
:101630001C4B0222DA601B4B00221A61194B01225B
:101640005A61184804F022F83B68154A1360144B9D
:1016500012225A60124B40229A60114B0022DA602B
:101660000F4B4FF480621A610D4803F0C3FF122044
:1016700000F0F8FA0346FB75FB7D002B01D0FB7DE3
:1016800000E0FB7D18461837BD46B0BD980100202C
:101690009C01002094010020002C01406C010020DE
:1016A000F00100207802002080B582B000AF002356
:1016B000FB714FF0FF333B6002E03B68013B3B6056
:1016C000234B1B68002B0BD1224B1B68002B07D12F
:1016D000214B1B78DBB2002B02D13B68002BECD1F5
:1016E0001B4B00221A604FF0FF333B6002E03B6867
:1016F000013B3B60194B5B6B03F40053002B02D0A2
:101700003B68002BF3D1164B1B68012B06D100F070
:1017100061F90346FB71124B00221A603B68002BF3
:1017200004D1FB79002B01D10423FB710B4B40F258
:10173000FF529A63084B1B78DBB2002B03D0064B99
:101740001B78DBB200E0FB7918460837BD4680BD48
:10175000A00100209C01002098010020002C0140E5
:1017600094010020B0B586B000AFF860C7E900234F
:101770000023FB75604B00221A70604B00221A6038
:101780005F4B01221A605F4B0022DA625D4A5D4BBB
:10179000DB6B43F4467343F00203D3633B8DFA6A79
:1017A00002FB03F31946F86800F012FE012003F073
:1017B000A7FF554B1B68022B0AD14FF400733B85E2
:1017C000D7E90023540A44EAC3545D0AC7E9004537
:1017D0003B8D4E4A13604D4B10225A604B4B4022BA
:1017E0009A604A4B0022DA60484B4FF480621A61DB
:1017F000464803F0FFFE102000F034FA0346FB7564
:10180000FB7D002B01D0FB7D72E0414B1B681B046C
:101810003E4A13603D4B37225A603C4B40229A604F
:101820003A4B0022DA60394B4FF480621A61374834
:1018300003F0E0FE372000F015FA0346FB75FB7D50
:10184000002B01D0FB7D53E0304AFB6A13602F4B25
:1018500017225A602D4B40229A602C4B0022DA60EE
:101860002A4B4FF480621A61284803F0C3FE172008
:1018700000F0F8F90346FB75FB7D002B01D0FB7DE2
:1018800036E03B68214A1360204B19225A601F4BF7
:1018900040229A601D4B0022DA601C4B4FF480629C
:1018A0001A611A4803F0A6FE192000F0DBF903467E
:1018B000FB75FB7D002B01D0FB7D19E0154B4FF034
:1018C000FF321A603B8DFA6A02FB03F3114A536040
:1018D000104B90229A600F4B0022DA600D4B0022D1
:1018E0001A610C4B01225A610A4803F0CFFEFB7DBE
:1018F00018461837BD46B0BD980100209C01002055
:1019000094010020002C01406C010020F001002017
:10191000900100207802002080B582B000AF002343
:10192000FB714FF0FF333B6002E03B68013B3B60E3
:10193000234B1B68002B0BD1224B1B68002B07D1BC
:10194000214B1B78DBB2002B02D13B68002BECD182
:101950001B4B00221A604FF0FF333B6002E03B68F4
:10196000013B3B60194B5B6B03F48053002B02D0AF
:101970003B68002BF3D1164B1B68012B06D100F0FE
:1019800029F80346FB71124B00221A603B68002BBA
:1019900004D1FB79002B01D10423FB710B4B40F2E6
:1019A000FF529A63084B1B78DBB2002B03D0064B27
:1019B0001B78DBB200E0FB7918460837BD4680BDD6
:1019C000A00100209C01002098010020002C014073
:1019D0009401002080B582B000AF0023FB710E4B54
:1019E00000221A600C4B0C225A600B4B40229A606A
:1019F000094B0022DA60084B4FF480621A610648F6
:101A000003F0F8FD0C2000F02DF90346FB71FB7983
:101A100018460837BD4680BDF001002080B584B06F
:101A200000AF78600023FB737B68002B03D1262373
:101A3000FB73FB7B25E0154B1B681B04144A1360EA
:101A4000134B0D225A60124B40229A60104B002219
:101A5000DA600F4B4FF480621A610D4803F0CAFD43
:101A60000D2000F0FFF80346FB73FB7B002B01D039
:101A7000FB7B06E0002003F0F5FD02467B681A6060
:101A8000FB7B18461037BD4680BD00BF900100208B
:101A9000F001002080B500AF4FF4807003F05AFED3
:101AA0000346002B0AD02D4B00221A704FF4807091
:101AB00003F06AFE2A4B01221A6041E0022003F083
:101AC00049FE0346002B06D0022003F05DFE234BA7
:101AD00002221A7034E0082003F03CFE0346002B7B
:101AE00006D0082003F050FE1C4B04221A7027E099
:101AF000202003F02FFE0346002B06D0202003F009
:101B000043FE164B06221A701AE0102003F022FE44
:101B10000346002B06D0102003F036FE0F4B0522A3
:101B20001A700DE04FF4007003F014FE0346002B12
:101B300006D04FF4007003F027FE084B07221A70FE
:101B4000084A084BDB6B23F4434323F03A03D36387
:101B5000024B1B78DBB2184680BD00BF9801002005
:101B60009C010020002C014080B500AF074B1B6892
:101B700003F0C053002B07D0054B01221A604FF031
:101B8000C251044803F058FA00BF80BD006402400F
:101B9000A00100205864024080B582B000AF00234D
:101BA000FB704FF480337B6002E07B68013B7B601D
:101BB0007B68002B05D0802003F0B2FD0346002B8C
:101BC000F3D07B68002B03D10323FB70FB7804E088
:101BD000044B40F2FF529A63FB7818460837BD4623
:101BE00080BD00BF002C014080B485B000AF002351
:101BF000FB714FF48033BB60194B5B6BFB6005E0FE
:101C0000BB68013BBB60164B5B6BFB60FB6803F082
:101C10004503002B02D1BB68002BF1D1BB68002B20
:101C200004D0FB6803F00403002B06D00323FB71F0
:101C30000B4B04229A63FB790CE0FB6803F0400332
:101C4000002B06D00023FB71054B40229A63FB79E1
:101C500000E0FB7918461437BD465DF8047B7047F9
:101C6000002C014080B586B000AF0346FB71002315
:101C7000FB74634B5B6B7B6102E0614B5B6B7B6175
:101C80007B6903F04503002BF7D07B6903F0040365
:101C9000002B06D00323FB74594B04229A63FB7C70
:101CA000A9E07B6903F00103002B06D00123FB743C
:101CB000534B01229A63FB7C9DE003F0C7FC034673
:101CC0001A46FB79934203D01023FB74FB7C92E00D
:101CD0004B4B40F2FF529A63002003F0C3FCF860C4
:101CE000FA68484B1340002B01D1FB7C83E0FB6872
:101CF000002B01DA1C237EE0FB6803F08043002BFD
:101D000001D0092377E0FB6803F00053002B01D0DA
:101D10000A2370E0FB6803F08053002B01D00B23F3
:101D200069E0FB6803F00063002B01D00C2362E044
:101D3000FB6803F08063002B01D00D235BE0FB68A0
:101D400003F08073002B01D00E2354E0FB6803F4F2
:101D50000003002B01D00F234DE0FB6803F4800348
:101D6000002B01D0102346E0FB6803F40013002B86
:101D700001D011233FE0FB6803F48013002B01D056
:101D8000122338E0FB6803F40023002B01D0132357
:101D900031E0FB6803F48023002B01D014232AE0F8
:101DA000FB6803F40033002B01D0152323E0FB680C
:101DB00003F48033002B01D016231CE0FB6803F4EE
:101DC0000043002B01D0172315E0FB6803F4804388
:101DD000002B01D018230EE0FB6803F40053002B06
:101DE00001D0192307E0FB6803F00803002B01D0A2
:101DF0001A2300E0FB7C18461837BD4680BD00BFA3
:101E0000002C014008E0FFFD80B483B000AF002348
:101E1000FB70114B5B6B7B6002E00F4B5B6B7B607D
:101E20007B6803F04503002BF7D07B6803F00403C5
:101E3000002B06D00323FB70074B04229A63FB7828
:101E400004E0054B40F2FF529A63FB7818460C37CA
:101E5000BD465DF8047B7047002C014080B483B020
:101E600000AF0023FB70174B5B6B7B6002E0154BF0
:101E70005B6B7B607B6803F04503002BF7D07B68CE
:101E800003F00403002B06D00323FB700D4B042248
:101E90009A63FB7810E07B6803F00103002B06D007
:101EA0000123FB70074B01229A63FB7804E0054B8A
:101EB00040F2FF529A63FB7818460C37BD465DF836
:101EC000047B7047002C014080B586B000AF03460C
:101ED0003960FB710023FB742E4B5B6B7B6102E06E
:101EE0002C4B5B6B7B617B6903F04503002BF7D0C8
:101EF0007B6903F00403002B06D00323FB74254BFE
:101F000004229A63FB7C40E07B6903F00103002B11
:101F100006D00123FB741F4B01229A63FB7C34E043
:101F200003F094FB03461A46FB79934203D0102337
:101F3000FB74FB7C29E0174B40F2FF529A630020B0
:101F400003F090FBF860FB6803F46043002B06D1BC
:101F5000FB681B0C9AB23B681A80FB7C15E0FB689F
:101F600003F40053002B01D013230EE0FB6803F4AD
:101F70008043002B01D0102307E0FB6803F40043EB
:101F8000002B01D00F2300E0FB7C18461837BD461C
:101F900080BD00BF002C014080B586B000AF034675
:101FA000FB710023FB750023FB6000233B610020D5
:101FB00003F058FB034603F00073002B03D00E23FD
:101FC000FB75FB7D9FE0524B1B689BB207F10C0237
:101FD0001146184600F0A0F80346FB75FB7D002B68
:101FE00001D0FB7D8FE0FB79012B46D13B6903F4E7
:101FF0008023002B3DD0464B1B681B04454A1360D1
:10200000444B37225A60434B40229A60414B002296
:10201000DA60404B4FF480621A613E4803F0EAFAFE
:102020003720FFF71FFE0346FB75FB7D002B01D019
:10203000FB7D68E0374B02221A60364B06225A605D
:10204000344B40229A60334B0022DA60314B4FF41C
:1020500080621A612F4803F0CDFA0620FFF702FED6
:102060000346FB75FB7D002B01D0FB7D4BE0FB7D28
:1020700049E02523FB75FB7D45E03B6903F4803394
:10208000002B3DD0224B1B681B04224A1360214BBE
:1020900037225A601F4B40229A601E4B0022DA60A2
:1020A0001C4B4FF480621A611A4803F0A3FA3720E0
:1020B000FFF7D8FD0346FB75FB7D002B01D0FB7DB0
:1020C00021E0144B00221A60124B06225A60114B79
:1020D00040229A600F4B0022DA600E4B4FF4806270
:1020E0001A610C4803F086FA0620FFF7BBFD034691
:1020F000FB75FB7D002B01D0FB7D04E0FB7D02E046
:102100002523FB75FB7D18461837BD4680BD00BFF3
:1021100090010020F001002090B587B000AF034689
:102120003960FB8000237B610023FB740023BB60CC
:102130000023FB60754B08221A60744B10225A6012
:10214000724B40229A60714B0022DA606F4B4FF461
:1021500080621A616D4803F04DFA1020FFF782FD8E
:102160000346FB74FB7C002B01D0FB7CC9E0684B71
:102170001B681B04654A1360644B37225A60634B2B
:1021800040229A60614B0022DA60604B4FF480621B
:102190001A615E4803F02EFA3720FFF763FD03460D
:1021A000FB74FB7C002B01D0FB7CAAE0594B4FF069
:1021B000FF321A60574B08225A60564B30229A6001
:1021C000544B0222DA60534B00221A61514B012218
:1021D0005A61504803F05AFA4C4B00221A604B4B9C
:1021E00033225A60494B40229A60484B0022DA6001
:1021F000464B4FF480621A61444803F0FBF93320E8
:10220000FFF730FD0346FB74FB7C002B14D0FB7CF6
:1022100077E04FF4001003F083FA0346002B0BD055
:102220007B699B0007F10802D41803F05DFA0346AE
:1022300023607B6901337B61374B5A6B40F22A6321
:102240001340002BE5D0082003F06AFA0346002B68
:1022500006D0314B08229A630423FB74FB7C50E0C8
:10226000022003F05DFA0346002B06D02A4B02221F
:102270009A630223FB74FB7C43E0202003F050FAB6
:102280000346002B06D0244B20229A630623FB74BE
:10229000FB7C36E04FF4007003F042FA0346002B5B
:1022A00007D01D4B4FF400729A630723FB74FB7C2D
:1022B00027E0194B40F2FF529A633B680433BA6837
:1022C0001106BA68120202F47F021143BA68120AB8
:1022D00002F47F421143BA68120E0A431A60FB6887
:1022E0001A06FB681B0203F47F031A43FB681B0AF0
:1022F00003F47F431A43FB681B0E1A433B681A60C2
:10230000FB7C18461C37BD4690BD00BFF001002085
:102310009001002078020020002C014080B500AF21
:10232000002003F039F9002003F046F903F0F6F835
:102330000D4A0D4B5B6C23F4006353644FF48851DA
:102340000A4803F063FE02224FF48851074803F065
:102350009DFE0421064803F059FE02220421044890
:1023600003F094FE00BF80BD003802400008024028
:10237000000C024080B582B002AF0C23019302230F
:102380000093012300224FF488510E4803F0EAFD28
:102390000C230193022300930123002204210A4805
:1023A00003F0E0FD094A094B5B6C43F4006353649E
:1023B000064A064B1B6B43F48003136300BFBD4604
:1023C00080BD00BF00080240000C024000380240FF
:1023D00080B592B000AF786039604FF0FA51224872
:1023E00002F02AFE0021204802F0EEFD1E4802F015
:1023F000BFFC4FF00063FB601C4B3B617B687B6163
:102400004023BB610123FB6100233B624FF48063E7
:102410007B624FF48053BB620023FB6200233B636B
:102420004FF440337B630423BB630123FB6300232E
:102430003B644FF400137B6407F10C0319460A4810
:1024400002F06AFD01221021074802F023FE20213C
:10245000054802F0D5FD0121034802F0B5FD00BF9B
:102460004837BD4680BD00BF58640240802C014003
:1024700080B592B000AF786039604FF0FA512348D0
:1024800002F0DAFD0021214802F09EFD1F4802F013
:102490006FFC4FF00063FB601D4B3B617B687B6111
:1024A0000023BB610123FB6100233B624FF4806387
:1024B0007B624FF48053BB624FF48043FB62002386
:1024C0003B634FF440337B630423BB630323FB6311
:1024D0004FF400033B644FF400137B6407F10C03DB
:1024E00019460A4802F018FD01221021074802F09F
:1024F000D1FD2021054802F083FD0121034802F0AF
:1025000063FD00BF4837BD4680BD00BF5864024030
:10251000802C014080B487B000AFF860B9607A6069
:10252000FB687B61BB683B6107E07B695A1C7A6191
:102530003A69511C396112781A707B685A1E7A60A8
:10254000002BF2D100BF1C37BD465DF8047B7047FD
:1025500080B487B000AFF860B9607A60FB687B61D7
:1025600005E07B695A1C7A61BA68D2B21A707B683E
:102570005A1E7A60002BF4D100BF1C37BD465DF8AF
:10258000047B704780B489B000AFF860B9607A60AE
:10259000FB68FB61BB68BB6100237B6100BF7B689C
:1025A0005A1E7A60002B0DD0FB695A1CFA611B7809
:1025B0001946BB695A1CBA611B78CB1A7B617B69CF
:1025C000002BECD07B6918462437BD465DF8047BB0
:1025D000704700BF80B483B000AF7860396002E01C
:1025E0007B6801337B607B681B78002B05D07B68A0
:1025F0001B781A463B689A42F2D17B681B781846D2
:102600000C37BD465DF8047B704700BF80B586B0CF
:1026100000AF78600023FB737B681B79002B34D0FC
:102620007B681B6B7B617B6858787B6803F13401A6
:1026300001237A69FDF7E2FE0346002B02D0012355
:10264000FB7322E07B6800221A717B685B6A7A69FF
:10265000D21A7B68DB699A4217D27B68DB783B61D0
:1026600010E07B68DB697A6913447B617B6858788A
:102670007B6803F1340101237A69FDF7BFFE3B69F2
:10268000013B3B613B69012BEBD8FB7B18461837BC
:10269000BD4680BD80B584B000AF7860396000234E
:1026A000FB737B681A6B3B689A421BD07868FFF714
:1026B000ADFF0346FB73FB7B002B13D17B6858787F
:1026C0007B6803F1340101233A68FDF769FE034694
:1026D000002B04D04FF0FF333B600123FB737B687A
:1026E0003A681A63FB7B18461037BD4680BD00BFB1
:1026F00080B584B000AF78607868FFF787FF034645
:10270000FB73FB7B002B40F08C807B681B78032BDA
:102710007BD17B685B79012B77D17B6834334FF4B5
:10272000007200211846FFF713FF7B68552283F8DB
:1027300032227B68AA2283F833227B68522283F8F4
:1027400034207B68522283F835207B68612283F82D
:1027500036207B68412283F837207B68722283F819
:1027600018227B68722283F819227B68412283F841
:102770001A227B68612283F81B227B681B69DAB20C
:102780007B6883F81C227B681B691B12DAB27B68AA
:1027900083F81D227B681B691B0CDAB27B6883F807
:1027A0001E227B681B691B0EDAB27B6883F81F222E
:1027B0007B68DB68DAB27B6883F820227B68DB68A1
:1027C0001B12DAB27B6883F821227B68DB681B0C62
:1027D000DAB27B6883F822227B68DB681B0EDAB2F0
:1027E0007B6883F823227B681B6A5A1C7B681A6308
:1027F0007B6858787B6803F134017B681A6B01238E
:10280000FDF7FCFD7B6800225A717B685B78002233
:1028100000211846FDF720FE0346002B01D00123BE
:10282000FB73FB7B18461037BD4680BD80B483B078
:1028300000AF786039603B68023B3B607B689B6916
:102840009A1E3B689A4201D8002308E07B689B7877
:102850001A463B6803FB02F27B68DB6A13441846A6
:102860000C37BD465DF8047B704700BF80B586B06D
:1028700000AF786039603B68012B04D97B689A69A6
:102880003B689A4202D801237B61A3E04FF0FF33FB
:102890007B617B681B78022B46D0032B66D0012B13
:1028A00040F08E803B683B613B695B083A691344AA
:1028B0003B617B685A6A3B695B0A13441946786836
:1028C000FFF7E8FE0346002B7DD13B695A1C3A61B5
:1028D000C3F308037A68134493F83430FB607B68D1
:1028E0005A6A3B695B0A134419467868FFF7D2FEBF
:1028F0000346002B69D13B69C3F308037A6813448C
:1029000093F834301B021A46FB681343FB603B68A4
:1029100003F00103002B02D0FB681B0902E0FB68F7
:10292000C3F30B037B6155E07B685A6A3B681B0A63
:10293000134419467868FFF7ADFE0346002B46D1D5
:102940003B685B0003F4FF7330337A68134404334D
:10295000BB60BB6801331B781B021AB2BB681B78D3
:102960001BB213431BB29BB27B6133E07B685A6A94
:102970003B68DB09134419467868FFF78BFE034672
:10298000002B26D13B689B0003F4FE7330337A683A
:1029900013440433BB60BB6803331B781A06BB685F
:1029A00002331B781B041343BA68013212781202F7
:1029B0001343BA681278134323F070437B6109E034
:1029C00001237B6106E000BF04E000BF02E000BF1E
:1029D00000E000BF7B6918461837BD4680BD00BFC8
:1029E00080B588B000AFF860B9607A60BB68012B31
:1029F00004D9FB689A69BB689A4202D80223FB7724
:102A0000F0E0FB681B78022B76D0032B00F0998056
:102A1000012B40F0DD80BB68BB61BB695B08BA6914
:102A20001344BB61FB685A6ABB695B0A13441946CD
:102A3000F868FFF72FFE0346FB77FB7F002B40F083
:102A4000CA80BB695A1CBA61C3F308033033FA6801
:102A5000134404337B61BB6803F00103002B0FD0E8
:102A60007B691B785BB203F00F035AB27B681B01D2
:102A70005BB223F00F035BB213435BB2DBB201E046
:102A80007B68DBB27A691370FB6801221A71FB68FC
:102A90005A6ABB695B0A13441946F868FFF7FAFDE6
:102AA0000346FB77FB7F002B40F09780BB69C3F3A5
:102AB00008033033FA68134404337B61BB6803F0C6
:102AC0000103002B03D07B681B09DBB20EE07B699E
:102AD0001B785BB223F00F035AB27B681B0A5BB210
:102AE00003F00F035BB213435BB2DBB27A6913707E
:102AF000FB6801221A7175E0FB685A6ABB681B0A01
:102B000013441946F868FFF7C5FD0346FB77FB7FC2
:102B1000002B64D1BB685B0003F4FF733033FA68A9
:102B2000134404337B617B68DAB27B691A707B697A
:102B300001337A681212D2B21A70FB6801221A713C
:102B400050E0FB685A6ABB68DB0913441946F86811
:102B5000FFF7A0FD0346FB77FB7F002B41D1BB684D
:102B60009B0003F4FE733033FA68134404337B6133
:102B70007B6903331B781A067B6902331B781B04BD
:102B800013437A6901321278120213437A69127878
:102B9000134303F070437A6813437B607B68DAB2B7
:102BA0007B691A707B6901337A681212D2B21A708B
:102BB0007B6902337A68120CD2B21A707B690333D4
:102BC0007A68120ED2B21A70FB6801221A7109E0FB
:102BD0000223FB7706E000BF04E000BF02E000BF75
:102BE00000E000BFFB7F18462037BD4680BD00BF18
:102BF00080B584B000AF786039603B68012B04D9A0
:102C00007B689A693B689A4202D80223FB733DE0D5
:102C10000023FB7331E039687868FFF727FEB8605E
:102C2000BB68002B2FD0BB68012B02D10223FB73A2
:102C30002CE0BB68B3F1FF3F02D10123FB7325E019
:102C4000002239687868FFF7CBFE0346FB73FB7BF5
:102C5000002B1AD17B681B69B3F1FF3F0BD07B6857
:102C60001B695A1C7B681A617B685B7943F001031E
:102C7000DAB27B685A71BB683B607B689A693B68D3
:102C80009A42C8D802E000BF00E000BFFB7B1846B4
:102C90001037BD4680BD00BF80B586B000AF7860FC
:102CA00039603B68002B0DD17B68DB683B613B6979
:102CB000002B04D07B689A693B699A421BD8012398
:102CC0003B6118E039687868FFF7D0FDB860BB68F1
:102CD000012B01D801236EE0BB68B3F1FF3F01D1A6
:102CE000BB6868E07B689A69BB689A4201D9BB6897
:102CF00061E03B683B613B697B617B6901337B61E0
:102D00007B689A697B699A4207D802237B617A695A
:102D10003B699A4201D900234DE079697868FFF751
:102D2000A5FDB860BB68002B0ED0BB68B3F1FF3FB8
:102D300002D0BB68012B01D1BB683CE07A693B69DA
:102D40009A42DAD1002336E000BF6FF07042796911
:102D50007868FFF745FE0346FB73FB7B002B09D128
:102D60003B68002B06D07A6939687868FFF738FE2F
:102D70000346FB73FB7B002B14D17B687A69DA6016
:102D80007B681B69B3F1FF3F14D07B681B695A1E37
:102D90007B681A617B685B7943F00103DAB27B6878
:102DA0005A7107E0FB7B012B02D14FF0FF3300E0AB
:102DB00001237B617B6918461837BD4680BD00BF83
:102DC00080B586B000AF786039603B689AB27B68A6
:102DD000DA807B689B687B617B69012B05D07B680F
:102DE0001B689A697B699A4201D8022363E07B6978
:102DF000002B08D17B681B681B78032B03D17B68F1
:102E00001B689B6A7B617B69002B0DD17B681B680B
:102E10001B891A463B689A4201D802234BE07B6823
:102E20001B689B6A3B612CE07B681B689B781B01DD
:102E3000FB601BE07B681B6879691846FFF716FD8D
:102E400078617B69B3F1FF3F01D1012333E07B69F6
:102E5000012B05D97B681B689A697B699A4201D866
:102E6000022328E03A68FB68D31A3B603A68FB68A3
:102E70009A42DFD27B681B6879691846FFF7D6FC57
:102E800038617B687A69DA603B69002B01D10223E3
:102E900011E03B681A093B691A447B681A617B6838
:102EA0001B6803F134023B6803F00F035B011A4413
:102EB0007B685A61002318461837BD4680BD00BFA5
:102EC00090B587B000AF786039607B68DB880133EC
:102ED000FB60FB689BB2002B03D07B681B69002B57
:102EE00001D10423BBE0FB6803F00F03002B40F08B
:102EF000A6807B681B695A1C7B681A617B68DB684B
:102F0000002B09D17B681B681B891A46FB689A4213
:102F100000F295800423A2E0FB681B097A6812681E
:102F20009278013A1340002B40F089807B681A6840
:102F30007B68DB6819461046FFF798FC78617B696F
:102F4000012B01D802238AE07B69B3F1FF3F01D155
:102F5000012384E07B681B689A697B699A4262D886
:102F60003B68002B01D1042379E07B681A687B68F9
:102F7000DB6819461046FFF78FFE78617B69002BEE
:102F800001D107236BE07B69012B01D1022366E0AD
:102F90007B69B3F1FF3F01D1012360E07B681B68CF
:102FA0001846FFF733FB0346002B01D0012356E000
:102FB0007B681B6834334FF4007200211846FFF71A
:102FC000C7FA7B681C687B681B6879691846FFF73D
:102FD0002DFC0346236300233B6115E07B681B68DF
:102FE00001221A717B681B681846FFF70FFB034626
:102FF000002B01D0012332E07B681B681A6B013281
:103000001A633B6901333B617B681B689B781A46F6
:103010003B699A42E2D87B681B687A681268116B38
:103020003A698A1A1A637B687A69DA607B681B6876
:1030300079691846FFF7FAFB02467B681A61FB685C
:103040009AB27B68DA807B681B6803F13402FB6804
:1030500003F00F035B011A447B685A610023184692
:103060001C37BD4690BD00BF80B584B000AF78600E
:10307000396000217868FFF7A3FE0346FB73FB7BF2
:10308000002B2DD10023BB607B681A687B681B690D
:1030900019461046FFF7FEFA0346FB73FB7B002B35
:1030A0001DD17B685B691B78E52B04D07B685B696D
:1030B0001B78002B07D1BB680133BB60BA683B6843
:1030C0009A4202D10CE00023BB6001217868FFF72F
:1030D000F7FE0346FB73FB7B002BD5D000E000BF5F
:1030E000FB7B042B01D10723FB73FB7B18461037B6
:1030F000BD4680BD80B485B000AF786039603B6864
:103100001B331B781B021AB23B681A331B781BB2A5
:1031100013431BB29BB2FB607B681B78032B0FD160
:103120003B6815331B781B021AB23B6814331B78BB
:103130001BB213431BB29BB21B04FA681343FB6020
:10314000FB6818461437BD465DF8047B704700BF26
:1031500080B483B000AF786039607B681A333A6816
:10316000D2B21A707B681B333A681212D2B21A704C
:103170007B6814333A68120CD2B21A707B6815332C
:103180003A68120C1212D2B21A7000BF0C37BD4648
:103190005DF8047B704700BF80B586B000AF7860F3
:1031A00039603B681B7823F040035A1E13465B00CE
:1031B00013449B0013447B6100233B610123FB818B
:1031C0002B4A3B6913441B7801333A6813441B783C
:1031D0001B021AB226493B690B441B7819463B680F
:1031E0000B441B781BB213431BB2BB81FB89002B22
:1031F00019D0BB89184603F01BF90346FB817B6994
:10320000FE2B0ED87B695A1C7A615B007A681344E6
:103210001B88184603F00CF903461A46FB899342B3
:1032200008D000231FE0BB894FF6FF72934201D004
:10323000002318E03B6901333B613B690C2BBFD98C
:103240003B681B7803F04003002B0BD0FB89002B5D
:1032500008D07B695B007A6813441B88002B01D07F
:10326000002300E0012318461837BD4680BD00BF8B
:10327000288A000880B489B000AFF860B9601146B0
:103280001A460B46FB711346BB71BB680D33BA7906
:103290001A70BB680B330F221A70BB680C33002204
:1032A0001A70BB681A3300221A70BB681B330022E5
:1032B0001A70FB795A1E13465B0013449B0013449B
:1032C000FB610023FB820023BB61FB8A4FF6FF7288
:1032D000934207D0FB695A1CFA615B00FA681344F9
:1032E0001B88FB821D4ABB6913441B781A46BB68C6
:1032F0001344FA8AD2B21A70184ABB6913441B7875
:103300000133BA681344FA8A120A92B2D2B21A701E
:10331000FB8A002B02D14FF6FF73FB82BB6901339E
:10332000BB61BB690C2BD0D9FB8A4FF6FF7293426D
:1033300006D0FB695B00FA6813441B88002B03D19D
:10334000FB7943F04003FB71BB68FA791A7000BF48
:103350002437BD465DF8047B704700BF288A00080B
:1033600080B58CB000AFF860B9607A603B600B222A
:10337000B968F868FFF7CEF83B68052B2BD93B6896
:10338000FB6122E07B689A1C7A601B887B840023A7
:10339000BB6217E0FB695A007B8C03F00103134406
:1033A000FB617B8C5B087B84FB6903F48033002B1F
:1033B00005D0FB6983F4883383F02103FB61BB6A8A
:1033C0000133BB62BB6A0F2BE4D97B681B88002BDF
:1033D000D8D1FB693B600723BB623B68DBB203F0DB
:1033E0000F03DBB2303387F82F3097F82F30392BAB
:1033F00004D997F82F30073387F82F30BB6A5A1E4D
:10340000BA6207F13002134497F82F2003F81C2CFE
:103410003B681B093B603B68002BDED107F11402BF
:10342000BB6A13447E221A7000237B6202E07B6A2F
:1034300001337B627A6ABB6A9A4205D2FA687B6A78
:1034400013441B78202BF2D17B6A5A1C7A62FA68EB
:103450001A44BB6A072B08D8BB6A591CB96207F12A
:1034600030010B4413F81C3C00E0202313707B6AEE
:10347000072BE9D900BF3037BD4680BD80B485B089
:1034800000AF78600023FB730B23BB60FB7BDAB2D9
:103490005208DB011343DAB27B68591C79601B7850
:1034A0001344FB73BB68013BBB60BB68002BEDD1D1
:1034B000FB7B18461437BD465DF8047B704700BFA0
:1034C00080B586B000AF786000217868FFF778FC9F
:1034D0000346FB75FB7D002B01D0FB7DA0E0FF23A5
:1034E0003B753B7D7B757B684FF6FF721A847B686A
:1034F0001A687B681B6919461046FFF7CBF803462C
:10350000FB75FB7D002B40F085807B685B693B6130
:103510003B691B78BB75BB7D002B02D10423FB7577
:103520007DE03B690B331B7803F03F03FB73BB7DEE
:10353000E52B07D0FB7B03F00803002B09D0FB7BB6
:103540000F2B06D0FF237B757B684FF6FF721A8422
:1035500055E0FB7B0F2B2FD17B68DB69002B4ED016
:10356000BB7D03F04003002B0CD03B695B7B3B75BC
:10357000BB7D23F04003BB75BB7D7B757B68DA8820
:103580007B681A84BA7D7B7D9A4212D13B690D33E8
:103590001B783A7D9A420CD17B68DB693969184601
:1035A000FFF7FAFD0346002B03D07B7D013BDBB226
:1035B00000E0FF237B7522E07B7D002B07D138697B
:1035C000FFF75CFF03461A463B7D934224D07B689D
:1035D0009B690B331B7803F00103002B09D17B6837
:1035E0009B690B2219463869FEF7CCFF0346002B76
:1035F00014D0FF237B757B684FF6FF721A8400217D
:103600007868FFF75DFC0346FB75FB7D002B3FF4FC
:103610006EAF04E000BF02E000BF00E000BFFB7D32
:1036200018461837BD4680BD80B58CB000AF7860B5
:103630007B689B693B627B68DB69FB6107F10C037C
:103640000C22396A1846FEF765FFFB7D03F0200364
:10365000002B01D00623E0E0FB7D03F00103002BEB
:1036600035D03B6A0B3300221A707B680022DA6186
:103670000123BB6213E007F10C01BB6AFA69386AE7
:10368000FFF76EFE7868FFF71BFF034687F82F30C1
:1036900097F82F30002B06D1BB6A0133BB62BB6A9F
:1036A000632BE8D900E000BFBB6A642B01D107237C
:1036B000B3E097F82F30042B02D097F82F30ACE00E
:1036C0003B6A0B33FA7D1A707B68FA69DA61FB7D1D
:1036D00003F00203002B14D00023BB6202E0BB6A9C
:1036E0000133BB62BB6A5B00FA6913441B88002B81
:1036F000F5D1BB6A19334B4AA2FB03239B087B62BB
:1037000001E001237B62796A7868FFF7ADFC03462C
:1037100087F82F3097F82F30002B4BD17B6A013B75
:103720007B627B6A002B45D07B68DB881A467B6A0C
:10373000D31A19467868FFF743FB034687F82F3002
:1037400097F82F30002B35D17B689B691846FFF71F
:1037500095FE0346FB767B681A687B681B691946F1
:103760001046FEF797FF034687F82F3097F82F3063
:10377000002B1ED17B68D8697B6859697B6ADAB2F5
:10378000FB7EFFF777FD7B681B6801221A71002121
:103790007868FFF795FB034687F82F3097F82F30AE
:1037A000002B07D17B6A013B7B627B6A002BD2D165
:1037B00000E000BF97F82F30002B2CD17B681A68EF
:1037C0007B681B6919461046FEF764FF034687F8BD
:1037D0002F3097F82F30002B1DD17B685B6920229A
:1037E00000211846FEF7B4FE7B6858697B689B6928
:1037F0000B221946FEF78EFE7B685B690C337A68F4
:1038000092690B32127802F01802D2B21A707B68F9
:103810001B6801221A7197F82F3018463037BD46C1
:1038200080BD00BF4FECC44E80B58AB000AF786059
:1038300039603B681B683B6102E03B6901333B61D7
:103840003B691B782F2BF8D03B691B785C2BF4D09D
:103850007B68DB69FB6000237B617B69BB61BB69C3
:103860005A1CBA613A6913441B78BB84BB8C1F2B6A
:103870002FD9BB8C2F2B2CD0BB8C5C2B29D07B69F8
:10388000FE2B01D90623C7E1BB8CDBB2BB84BB8C0A
:103890000121184602F090FD0346BB84BB8C002B2F
:1038A00001D10623B8E1BB8C7F2B09D8BB8C19460C
:1038B000A448FEF78FFE0346002B01D00623ABE1A0
:1038C0007B695A1C7A615B00FA681344BA8C1A80CF
:1038D000C5E73A69BB691A443B681A60BB8C1F2B69
:1038E00001D8042300E0002387F826307B69012BF0
:1038F00009D17B6903F10043013B5B00FA68134483
:103900001B882E2B16D07B69022B4CD17B6903F1CF
:103910000043013B5B00FA6813441B882E2B42D105
:103920007B6903F10043023B5B00FA6813441B8888
:103930002E2B38D17B695B00FA68134400221A8071
:1039400000233B620EE07B689A693B6A1344396A44
:103950007A69914201D22E2200E020221A703B6A3D
:1039600001333B623B6A0A2BEDD97B689A693B6A5B
:10397000134497F8262042F02002D2B21A70002396
:103980004AE17B6903F10043013B5B00FA681344A1
:103990001B88BB84BB8C202B02D0BB8C2E2B06D16A
:1039A0007B69013B7B617B69002BEAD100E000BFB2
:1039B0007B69002B01D106232EE17B695B00FA684D
:1039C000134400221A807B689B690B222021184631
:1039D000FEF7BEFD0023BB6102E0BB690133BB61A2
:1039E000BB695B00FA6813441B88202BF5D0BB69C8
:1039F0005B00FA6813441B882E2BEED0BB69002BAA
:103A000009D097F8263043F0030387F8263002E008
:103A10007B69013B7B617B69002B09D07B6903F1EA
:103A20000043013B5B00FA6813441B882E2BEFD147
:103A300000233B62002387F827300823FB61BB6922
:103A40005A1CBA615B00FA6813441B88BB84BB8CA8
:103A5000002B00F09680BB8C202B06D0BB8C2E2B2D
:103A60000AD1BA697B699A4206D097F8263043F0AA
:103A7000030387F8263083E03A6AFB699A4203D24F
:103A8000BA697B699A4223D1FB690B2B06D197F85F
:103A9000263043F0030387F8263075E0BA697B6966
:103AA0009A4205D097F8263043F0030387F8263072
:103AB000BA697B699A4266D87B69BB6108233B621D
:103AC0000B23FB6197F827309B0087F8273057E0DE
:103AD000BB8C7F2B14D9BB8C0021184602F06CFCE8
:103AE0000346BB84BB8C002B04D0BB8C803B164AA6
:103AF000D35CBB8497F8263043F0020387F8263066
:103B0000BB8C002B07D0BB8C19461048FEF762FD1A
:103B10000346002B08D05F23BB8497F8263043F080
:103B2000030387F8263022E0BB8C402B10D9BB8CD6
:103B30005A2B0DD897F8273043F0020387F8273027
:103B400015E000BF388A0008A8890008448A0008E8
:103B5000BB8C602B0BD9BB8C7A2B08D897F82730FD
:103B600043F0010387F82730BB8C203BBB847B6884
:103B70009A693B6A591C39621344BA8CD2B21A70E2
:103B80005DE700BF00E000BF7B689B691B78E52B09
:103B900003D17B689B6905221A70FB69082B04D14D
:103BA00097F827309B0087F8273097F8273003F0E5
:103BB0000C030C2B05D097F8273003F00303032BDD
:103BC00005D197F8263043F0020387F8263097F89E
:103BD000263003F00203002B17D197F8273003F0AB
:103BE0000303012B05D197F8263043F0100387F823
:103BF000263097F8273003F00C03042B05D197F8F3
:103C0000263043F0080387F826307B689B690B3326
:103C100097F826201A70002318462837BD4680BD25
:103C200080B584B000AF786039603B681B782F2B7B
:103C300003D03B681B785C2B06D13B6801333B60AB
:103C40007B6800229A6004E07B681B685A697B6885
:103C50009A603B681B781F2B09D800217868FFF712
:103C6000AFF80346FB737B6800225A6156E03B467F
:103C700019467868FFF7D8FD0346FB73FB7B002BE2
:103C800047D17868FFF71CFC0346FB737B689B6990
:103C9000DB7ABB73FB7B002B1DD0FB7B042B3AD163
:103CA000BB7B03F02003002B0DD07B6800229A60C1
:103CB0007B6800225A61BB7B03F00403002B26D0F3
:103CC0000023FB7327E0BB7B03F00403002B22D10E
:103CD0000523FB731FE0BB7B03F00403002B1CD107
:103CE0007B685B69BB60BB680B331B7803F0100318
:103CF000002B02D10523FB7310E07B681B68B968B9
:103D00001846FFF7F7F902467B689A60AFE700BFF5
:103D1000ADE700BF02E000BF00E000BFFB7B18463C
:103D20001037BD4680BD00BF80B489B000AF786059
:103D30004FF0FF333B617B681B68002B6FD07B68C3
:103D40001B68BB6102E0BB690133BB61BB691B78C7
:103D50001F2B03D9BB691B783A2BF4D1BB691B78A5
:103D60003A2B59D17B681B68FB61FB695A1CFA61CD
:103D70001B78303B7B617B69092B0FD8FA69BB69E3
:103D80009A420BD17B69082B44D87B693B61BB69A4
:103D90000133BB617B68BA691A603BE000237B6139
:103DA000BB690133BB61214A7B6952F82330FB6058
:103DB0007B681B68FB61FB685A1CFA601B78BB724E
:103DC000FB695A1CFA611B78FB72FB7A602B05D9E0
:103DD000FB7A7A2B02D8FB7A203BFB72BB7A002B52
:103DE00003D0BA7AFB7A9A42E5D0BB7A002B03D192
:103DF000FA69BB699A4205D07B6901337B617B69B3
:103E0000082BD0D97B69082B04D87B693B617B6880
:103E1000BA691A603B6903E0054B1B783B613B695B
:103E200018462437BD465DF8047B7047D48A0008E5
:103E3000CA01002080B582B000AF786039607B682D
:103E400000221A717B684FF0FF321A633968786874
:103E5000FEF720FC0346002B01D003234AE07B68D9
:103E600003F2322301331B781B021AB27B6893F8EA
:103E700032321BB213431BB2204A934201D00223B9
:103E800038E07B686A3303331B781A067B686A3331
:103E900002331B781B0413437A686A3201321278AA
:103EA000120213437A6892F86A20134323F07F4387
:103EB000134A934201D100231CE07B68863303330D
:103EC0001B781A067B68863302331B781B04134366
:103ED0007A68863201321278120213437A6892F8B5
:103EE0008620134323F07F43054A934201D10023E8
:103EF00000E0012318460837BD4680BD55AAFFFFE4
:103F00004641540080B596B000AFF860B9601346E2
:103F1000FB71FB6800221A60B868FFF705FFF863C1
:103F2000FB6B002B01DA0B2393E29B4AFB6B52F8ED
:103F30002330BB63BB6B002B01D10C2389E2FB68F0
:103F4000BA6B1A60BB6B1B78002B1AD0BB6B5B780B
:103F50001846FCF701FA034687F8373097F83730F0
:103F600003F00103002B0CD1FB79002B07D097F84D
:103F7000373003F00403002B01D00A2369E2002349
:103F800067E2BB6B00221A70FB6BDAB2BB6B5A7034
:103F9000BB6B5B781846FCF7BDF9034687F83730F2
:103FA00097F8373003F00103002B01D0032350E2D0
:103FB000FB79002B07D097F8373003F00403002B70
:103FC00001D00A2345E200233B65396DB86BFFF74A
:103FD00031FF034687F8573097F85730012B57D1F8
:103FE00000233B642BE0BB6B03F134023B6C1B01F1
:103FF00003F5DF7313443B633B6B04331B78002BE7
:1040000012D03B6B0B331B781A063B6B0A331B78C1
:104010001B0413433A6B09321278120213433A6BB2
:10402000083212781A4300E000223B6C9B0007F133
:1040300058010B4443F8442C3B6C01333B643B6C0C
:10404000032BD0D900233B643B6C002B02D03B6C8C
:10405000013B3B643B6C9B0007F15802134453F84F
:10406000443C3B653B6D002B05D0396DB86BFFF7C9
:10407000E1FE034600E0022387F8573097F85730F7
:10408000002B05D03B6C01333B643B6C032BE1D927
:1040900097F85730032B01D10123DAE197F8573015
:1040A000002B01D00D23D4E1BB6B93F840301B02F1
:1040B0001AB2BB6B93F83F301BB213431BB2B3F57C
:1040C000007F01D00D23C4E1BB6B93F84B301B0282
:1040D0001AB2BB6B93F84A301BB213431BB29BB2AC
:1040E000FB64FB6C002B12D1BB6B93F85B301A06A0
:1040F000BB6B93F85A301B041343BA6B92F85920E8
:1041000012021343BA6B92F858201343FB64BB6B43
:10411000FA6CDA61BB6B93F84420BB6BDA70BB6B53
:10412000DB78012B05D0BB6BDB78022B01D00D2394
:104130008FE1BB6BDB781A46FB6C02FB03F3FB647D
:10414000BB6B93F84120BB6B9A70BB6B9B78002BC9
:1041500008D0BB6B9B781A46BB6B9B78013B134026
:10416000002B01D00D2374E1BB6B93F846301B028A
:104170001AB2BB6B93F845301BB213431BB29AB211
:10418000BB6B1A81BB6B1B8903F00F039BB2002B27
:1041900004D00D235DE100BFA4010020BB6B93F8A8
:1041A00048301B021AB2BB6B93F847301BB2134363
:1041B0001BB29BB2BB64BB6C002B12D1BB6B93F8E0
:1041C00057301A06BB6B93F856301B041343BA6B77
:1041D00092F8552012021343BA6B92F854201343FD
:1041E000BB64BB6B93F843301B021AB2BB6B93F8F2
:1041F00042301BB213431BB2FB85FB8D002B01D158
:104200000D2326E1FA8DFB6C1344BA6B1289120957
:1042100092B21344BB62BA6CBB6A9A4201D20D23BC
:1042200017E1BA6CBB6AD31ABA6B9278B3FBF2F39C
:104230007B627B6A002B01D10D230AE1012387F801
:1042400057307B6A40F6F572934202D9022387F811
:1042500057307B6A4FF6F572934202D9032387F8F1
:1042600057307B6A9A1CBB6B9A61BB6B3A6D1A62C2
:10427000FA8D3B6D1A44BB6B5A623A6DBB6A1A44A5
:10428000BB6BDA6297F85730032B1ED1BB6B1B89CF
:10429000002B01D00D23DCE0BB6B93F863301A06D2
:1042A000BB6B93F862301B041343BA6B92F8612026
:1042B00012021343BA6B92F860201A43BB6B9A62E6
:1042C000BB6B9B699B007B641FE0BB6B1B89002B56
:1042D00001D10D23BDE0BB6B5A6AFB6C1A44BB6B6A
:1042E0009A6297F85730022B03D1BB6B9B695B0036
:1042F0000AE0BB6B9A6913465B0013445A08BB6B18
:104300009B6903F0010313447B64BB6BDA697B6C2C
:1043100003F2FF135B0A9A4201D20D2399E0BB6BB3
:104320004FF0FF321A61BB6B1A69BB6BDA60BB6B73
:1043300080225A7197F85730032B78D1BB6B93F8D2
:1043400065301B021AB2BB6B93F864301BB2134387
:104350001BB2012B6BD13B6D01331946B86BFEF7D5
:1043600099F90346002B62D1BB6B00225A71BB6BDB
:1043700093F833321B021AB2BB6B93F832321BB282
:1043800013431BB2354A934251D1BB6B93F837307C
:104390001A06BB6B93F836301B041343BA6B92F8C2
:1043A000352012021343BA6B92F8342013432C4A7F
:1043B00093423CD1BB6B93F81B321A06BB6B93F84C
:1043C0001A321B041343BA6B92F8192212021343D8
:1043D000BA6B92F818221343224A934227D1BB6B3F
:1043E00093F81F321A06BB6B93F81E321B0413435B
:1043F000BA6B92F81D2212021343BA6B92F81C2278
:104400001A43BB6B1A61BB6B93F823321A06BB6B62
:1044100093F822321B041343BA6B92F82122120242
:104420001343BA6B92F820221A43BB6BDA60BB6B62
:1044300097F857201A700C4B1B8801339AB20A4B1D
:104440001A80094B1A88BB6BDA80BB6B00225A6159
:10445000002318465837BD4680BD00BF55AAFFFF50
:104460005252614172724161C801002080B584B02E
:1044700000AF78607B68FB60FB68002B0FD0FB68A7
:104480001B68002B0BD0FB681B681B78002B06D029
:10449000FB681B68DA88FB689B889A4201D0092375
:1044A0000DE0FB681B685B781846FBF755FF034679
:1044B00003F00103002B01D0032300E00023184682
:1044C0001037BD4680BD00BF80B588B000AFF86032
:1044D000B9601346FB71BB683B6107F110031846D6
:1044E000FFF722FCF861FB69002B01DA0B2328E0BF
:1044F000164AFB6952F82330BB61BB69002B02D01E
:10450000BB6900221A70FB68002B02D0FB680022F6
:104510001A70FA680D49FB6941F82320FB68002BEB
:1045200002D0FB79012B01D000230AE007F108013A
:1045300007F10C0300221846FFF7E4FC0346FB7565
:10454000FB7D18462037BD4680BD00BFA40100207A
:1045500080B5ADF5167D00AF07F10C03186007F1CB
:1045600008031960FB1D1A7007F10C031B68002B70
:1045700001D1092388E107F10C031B6800221A60AE
:10458000FB1DFA1D127802F01F021A70FB1D1B782A
:1045900023F00103DAB207F1080107F508731846A2
:1045A000FFF7B0FC034687F8573297F85732002BD5
:1045B00040F0688107F50573C7F8383207F1140336
:1045C000C7F83C3207F108031A6807F5087311466B
:1045D0001846FFF725FB034687F85732D7F83432E1
:1045E000C7F8503297F85732002B06D1D7F850321F
:1045F000002B02D1062387F85732FB1D1B7803F0EE
:104600001C03002B00F0B28097F85732002B16D015
:1046100097F85732042B07D107F508731846FFF7B0
:1046200003F8034687F85732FB1DFA1D127842F053
:1046300008021A70D7F83432C7F8503214E0D7F8AD
:1046400050320B331B7803F01103002B03D00723E8
:1046500087F8573208E0FB1D1B7803F00403002B9A
:1046600002D0082387F8573297F85732002B40F0D2
:104670009E80FB1D1B7803F00803002B00F0978041
:10468000FBF714FFC7F84C02D7F850320E33D7F8B7
:104690004C22D2B21A70D7F850320F33D7F84C22CE
:1046A0001212D2B21A70D7F850321033D7F84C2207
:1046B000120CD2B21A70D7F850321133D7F84C22FC
:1046C000120ED2B21A70D7F850320B3300221A7081
:1046D000D7F850321C3300221A70D7F850321D33ED
:1046E00000221A70D7F850321E3300221A70D7F801
:1046F00050321F3300221A70D7F82032D7F85012E8
:104700001846FEF7F7FCC7F848020021D7F8500218
:10471000FEF71EFDD7F8203201221A71D7F8483271
:10472000002B44D0D7F820321B6BC7F84C32D7F897
:104730002032D7F848121846FEF75AFA034687F88F
:10474000573297F85732002B31D1D7F82032D7F8AB
:104750004822013ADA60D7F82032D7F84C121846CE
:10476000FDF798FF034687F8573220E097F8573255
:10477000002B1CD1D7F850320B331B7803F01003F9
:10478000002B03D0042387F8573210E0FB1D1B7861
:1047900003F00203002B0AD0D7F850320B331B78FA
:1047A00003F00103002B02D0072387F8573297F854
:1047B0005732002B18D1FB1D1B7803F00803002B88
:1047C00005D0FB1DFA1D127842F020021A70D7F8AE
:1047D00020321A6B07F10C031B68DA6107F10C0336
:1047E0001B68D7F850221A6297F85732002B49D12C
:1047F00007F10C031B68FA1D12789A7107F10C037C
:104800001B680022DA71D7F82032D7F85012184608
:10481000FEF770FC024607F10C031B681A61D7F81B
:1048200050321F331B781A06D7F850321E331B78CC
:104830001B041343D7F850221D321278120213437F
:10484000D7F850221C3212781A4307F10C031B6868
:10485000DA6007F10C031B6800229A6007F10C0371
:104860001B6800229A61D7F8202207F10C031B680D
:104870001A6007F10C031B681B68DA8807F10C0348
:104880001B689A8097F85732184607F51677BD4689
:1048900080BD00BF80B58CB000AFF860B9607A60B1
:1048A0003B60BB683B623B6800221A60F868FFF718
:1048B000DDFD0346FB77FB7F002B01D0FB7F1CE176
:1048C000FB68DB79002B02D0FB68DB7915E1FB6824
:1048D0009B7903F00103002B01D107230DE1FB6855
:1048E000DA68FB689B68D31ABB617A68BB699A4235
:1048F00040F2FE80BB697B60FAE0FB689B68C3F313
:104900000803002B40F0C680FB689B685B0ADAB2A4
:10491000FB681B689B78013BDBB21340FB75FB7D9A
:10492000002B24D1FB689B68002B03D1FB681B691B
:10493000FB6208E0FB681A68FB685B691946104671
:10494000FDF794FFF862FB6A012B04D8FB68022292
:10495000DA710223D1E0FB6AB3F1FF3F04D1FB68B7
:104960000122DA710123C8E0FB68FA6A5A61FB6828
:104970001A68FB685B6919461046FDF757FF3861F6
:104980003B69002B04D1FB680222DA710223B4E0F8
:10499000FB7D3A6913443B617B685B0A7B627B6AFF
:1049A000002B3DD0FA7D7B6A1344FA681268927836
:1049B000934206D9FB681B689B781A46FB7DD31A85
:1049C0007B62FB681B6858787B6A3A69396AFBF737
:1049D000E7FC0346002B04D0FB680122DA710123B7
:1049E0008BE0FB689B7903F04003002B14D0FB683D
:1049F0009A693B69D21A7B6A9A420DD2FB689A691E
:104A00003B69D31A5B023A6AD018FB6824334FF42F
:104A100000721946FDF77EFD7B6A5B02BB6253E0C4
:104A2000FB689A693B699A4231D0FB689B7903F035
:104A30004003002B19D0FB681B685878FB6803F112
:104A40002401FB689A690123FBF7D8FC0346002B7D
:104A500004D0FB680122DA7101234EE0FB689B79E8
:104A600023F04003DAB2FB689A71FB681B68587840
:104A7000FB6803F1240101233A69FBF791FC03462B
:104A8000002B04D0FB680122DA71012335E0FB68BA
:104A90003A699A61FB689B68C3F30803C3F5007326
:104AA000BB62BA6A7B689A4201D97B68BB62FB68C9
:104AB0009B68C3F308032033FA6813440433BA6ACB
:104AC0001946386AFDF726FD3A6ABB6A13443B6211
:104AD000FB689A68BB6A1A44FB689A603B681A686C
:104AE000BB6A1A443B681A607A68BB6AD31A7B6057
:104AF0007B68002B7FF401AF002318463037BD469A
:104B000080BD00BF80B586B000AF78607868FFF7E1
:104B1000ADFC0346FB75FB7D002B40F092807B686B
:104B20009B7903F02003002B00F08B807B689B793E
:104B300003F04003002B16D07B681B6858787B6815
:104B400003F124017B689A690123FBF757FC0346B4
:104B5000002B01D0012375E07B689B7923F0400393
:104B6000DAB27B689A717B681A687B68DB691946E0
:104B70001046FDF78FFD0346FB75FB7D002B60D1D2
:104B80007B681B6A3B613B690B333A690B321278D5
:104B900042F02002D2B21A703B691C337A68D268A4
:104BA000D2B21A703B691D337A68D2681212D2B23F
:104BB0001A703B691E337A68D268120CD2B21A702E
:104BC0003B691F337A68D268120ED2B21A707B68C2
:104BD0001B6919463869FEF7BBFAFBF767FCF860FA
:104BE0003B691633FA68D2B21A703B691733FA6818
:104BF0001212D2B21A703B691833FA68120CD2B290
:104C00001A703B691933FA68120ED2B21A703B69F6
:104C1000123300221A703B69133300221A707B682A
:104C20009B7923F02003DAB27B689A717B681B685A
:104C300001221A717B681B681846FDF759FD03466F
:104C4000FB75FB7D18461837BD4680BD80B584B026
:104C500000AF78607868FFF755FF0346FB73FB7B76
:104C6000002B0AD17868FFF701FC0346FB73FB7B3E
:104C7000002B02D17B6800221A60FB7B184610379C
:104C8000BD4680BD80B483B000AF7860064A7B68C3
:104C900043F0BF6343F40033D36000BF0C37BD461D
:104CA0005DF8047B704700BF00ED00E080B485B084
:104CB00000AF78600023FB730023BB730F237B736B
:104CC0007B68DB78002B38D0274BDB68DB4303F4B1
:104CD000E0631B0AFB73FB7BC3F10403BB737A7BAA
:104CE000FB7B42FA03F37B737B685B781A46BB7BE2
:104CF00002FA03F3FB737B689A787B7B1340DAB28A
:104D0000FB7B1343FB73FB7B1B01FB73174A7B6825
:104D10001B781344FA7B83F80023144A7B681B78C2
:104D20005B09DBB218467B681B7803F01F03012187
:104D300001FA03F342F820300FE00C497B681B783E
:104D40005B09DBB218467B681B7803F01F03012266
:104D50009A4000F1200341F8232000BF1437BD46DC
:104D60005DF8047B704700BF00ED00E000E100E06B
:104D700080B483B000AF78607B681B6823F00102C9
:104D80007B681A607B6800221A607B6800225A6088
:104D90007B6800229A607B680022DA607B680022D0
:104DA0001A617B6821225A617B68464A934203D18B
:104DB000454B3D229A607EE07B68444A934204D191
:104DC000414B4FF474629A6075E07B68404A9342AD
:104DD00004D13D4B4FF474129A606CE07B683D4AFD
:104DE000934204D1384B4FF074629A6063E07B6861
:104DF000394A934203D1344B384ADA605BE07B682E
:104E0000374A934203D1304B364ADA6053E07B682D
:104E1000354A934203D12C4B344ADA604BE07B682D
:104E2000334A934204D1284B4FF03D52DA6042E0BE
:104E30007B68304A934203D12F4B3D229A603AE07F
:104E40007B682E4A934204D12B4B4FF474629A60D4
:104E500031E07B682A4A934204D1274B4FF4741205
:104E60009A6028E07B68274A934204D1224B4FF096
:104E700074629A601FE07B68234A934203D11E4B01
:104E8000164ADA6017E07B68204A934203D11A4B36
:104E9000144ADA600FE07B681D4A934203D1164B37
:104EA000124ADA6007E07B681A4A934203D1124B38
:104EB0004FF03D52DA6000BF0C37BD465DF8047B11
:104EC000704700BF1060024000600240286002404E
:104ED0004060024058600240706002403D00002087
:104EE00088600240400F0020A060024000003D208A
:104EF000B86002401064024000640240286402402E
:104F00004064024058640240706402408864024079
:104F1000A0640240B864024080B485B000AF7860FD
:104F200039600023FB607B681B68FB60FA68254BD7
:104F30001340FB603B681A683B68DB681A433B68B8
:104F40005B691A433B689B691A433B68DB691A43F8
:104F50003B681B6A1A433B685B6A1A433B689B6A5F
:104F60001A433B685B6B1A433B689B6B1343FA68BD
:104F70001343FB607B68FA681A607B685B69FB60BF
:104F8000FB6823F00703FB603B68DA6A3B681B6B36
:104F90001343FA681343FB607B68FA685A613B6805
:104FA0001A697B685A603B685A687B689A603B68FC
:104FB0009A687B68DA6000BF1437BD465DF8047BF1
:104FC000704700BF3F801CF080B483B000AF7860B2
:104FD0000B46FB70FB78002B06D07B681B6843F008
:104FE00001027B681A6005E07B681B6823F0010200
:104FF0007B681A6000BF0C37BD465DF8047B7047C4
:1050000080B483B000AF786039603B68002B06D075
:105010007B681B6843F020027B681A6005E07B68B0
:105020001B6823F020027B681A6000BF0C37BD4666
:105030005DF8047B704700BF80B485B000AF786036
:1050400039607B68104A934202D8104BFB6001E044
:105050000F4BFB603B6803F00053002B07D03B680D
:1050600023F0F02323F08213FA68D36006E03B6854
:1050700023F0F02323F08213FA68936000BF143703
:10508000BD465DF8047B70470F640240006002403B
:105090000064024080B485B000AFF860B960134688
:1050A000FB71BB6803F08003002B0FD0FB79002B52
:1050B00006D0FB685B6943F08002FB685A6105E03B
:1050C000FB685B6923F08002FB685A61BB68802B38
:1050D00014D0FB79002B08D0FB681A68BB6803F07A
:1050E0001E031A43FB681A6008E0FB681A68BB6875
:1050F00003F01E03DB431A40FB681A6000BF14373D
:10510000BD465DF8047B704780B487B000AF78601F
:10511000396000237B6100233B610023FB60002397
:105120007B6176E001227B6902FA03F33B613B6815
:105130001A683B691340FB60FA683B699A4265D183
:105140007B681A687B695B00032101FA03F3DB4388
:105150001A407B681A607B681A683B681B7919469D
:105160007B695B0001FA03F31A437B681A603B68B2
:105170001B79012B03D03B681B79022B2ED17B6856
:105180009A687B695B00032101FA03F3DB431A4051
:105190007B689A607B689A683B685B7919467B6993
:1051A0005B0001FA03F31A437B689A607B685A68D4
:1051B0007B699BB2012101FA03F3DB431A407B6850
:1051C0005A607B685A683B689B7919467B699BB239
:1051D00001FA03F39BB21A437B685A607B68DA6872
:1051E0007B699BB25B00032101FA03F3DB431A40A6
:1051F0007B68DA607B68DA683B68DB7919467B6933
:105200005B0001FA03F31A437B68DA607B690133C0
:105210007B617B690F2B85D900BF1C37BD465DF8CC
:10522000047B704780B485B000AF78600B467B800C
:1052300013467B700023FB600023BB607A787B8879
:1052400003F007039B0002FA03F3FB607B88DB0893
:105250009BB218467B88DB089BB21A467B680832F3
:1052600053F822207B8803F007039B000F2101FAEB
:1052700003F3DB4302EA03017B6800F1080243F811
:1052800022107B88DB089BB21A467B68083253F8F1
:105290002220FB681343BB607B88DB089BB21A4665
:1052A0007B680832B96843F8221000BF1437BD4646
:1052B0005DF8047B704700BF80B400AF104A104B0C
:1052C0001B6843F0010313600D4B00229A600C4AE7
:1052D0000B4B1B6823F0847323F480331360084B5B
:1052E000084A5A60064A064B1B6823F48023136061
:1052F000034B0022DA6000BFBD465DF8047B7047B7
:10530000003802401030002480B489B000AF7860CB
:105310000023BB6100237B610023FB6102233B610F
:105320000023FB600223BB60484B9B6803F00C0327
:10533000BB61BB69042B07D0082B09D0002B3FD1E0
:105340007B68434A1A603FE07B68424A1A603BE050
:105350003E4B5B6803F480039B0DFB603B4B5B683B
:1053600003F03F03BB60FB68002B0DD0394ABB68DC
:10537000B2FBF3F2354B596847F6C0730B409B09FB
:1053800003FB02F3FB610CE0314ABB68B2FBF3F2B2
:105390002E4B596847F6C0730B409B0903FB02F381
:1053A000FB612A4B5B6803F440331B0C01335B0049
:1053B0003B61FA693B69B2FBF3F27B681A6003E078
:1053C0007B68234A1A6000BF204B9B6803F0F00300
:1053D000BB61BB691B09BB611F4ABB6913441B78D6
:1053E000DBB27B617B681A687B69DA407B685A6054
:1053F000164B9B6803F4E053BB61BB699B0ABB611E
:10540000154ABB6913441B78DBB27B617B685A6821
:105410007B69DA407B689A600C4B9B6803F46043BD
:10542000BB61BB695B0BBB610B4ABB6913441B7857
:10543000DBB27B617B685A687B69DA407B68DA6043
:1054400000BF2437BD465DF8047B7047003802403A
:105450000024F40040787D01BC00002080B483B0BB
:1054600000AF78600B46FB70FB78002B06D00A4932
:10547000094B1A6B7B6813430B6306E00649064B26
:105480001A6B7B68DB4313400B6300BF0C37BD46D0
:105490005DF8047B704700BF0038024080B483B0E1
:1054A00000AF78600B46FB70FB78002B06D00A49F2
:1054B000094B5A6C7B6813434B6406E00649064B64
:1054C0005A6C7B68DB4313404B6400BF0C37BD460E
:1054D0005DF8047B704700BF0038024080B483B0A1
:1054E00000AF78600B46FB70FB78002B06D00A49B2
:1054F000094B5A6A7B6813434B6206E00649064B28
:105500005A6A7B68DB4313404B6200BF0C37BD46D1
:105510005DF8047B704700BF0038024080B500AFE3
:1055200001214FF40060FFF7D9FF00214FF4006024
:10553000FFF7D4FF00BF80BD80B485B000AF7860B6
:105540000023FB60134B5B68FB60FB6823F4FD43A7
:1055500023F07F03FB607B681B7D1A467B689B689A
:105560001A437B685B681A437B68DB681A437B6875
:105570001B681A437B681B691343FA681343FB607B
:10558000044AFB68536000BF1437BD465DF8047BD6
:10559000704700BF002C014080B483B000AF0346C9
:1055A000FB71044AFB79136000BF0C37BD465DF800
:1055B000047B7047A080254280B483B000AF786040
:1055C000044A7B68136000BF0C37BD465DF8047B5E
:1055D000704700BF002C014080B400AF044B1B6833
:1055E00003F003031846BD465DF8047B704700BF17
:1055F000002C014080B485B000AF78600023FB60D0
:10560000114A7B681B6893600F4BDB68FB60FB688B
:1056100023F4FF6323F00703FB607B685A687B6811
:105620009B681A437B68DB681A437B681B691343DA
:10563000FA681343FB60044AFB68D36000BF143769
:10564000BD465DF8047B7047002C014080B400AF7C
:10565000034B1B69DBB21846BD465DF8047B7047FF
:10566000002C014080B485B000AF78600023FB605F
:105670007A68054B1344FB60FB681B6818461437B7
:10568000BD465DF8047B7047142C014080B485B0A2
:1056900000AF78600023FB60124A7B681B6853628E
:1056A000104A7B685B6893620E4BDB6AFB60FB68A9
:1056B00023F0F703FB607B689A687B68DB681A431A
:1056C0007B681B691A437B685B691343FA68134361
:1056D000FB60044AFB68D36200BF1437BD465DF827
:1056E000047B7047002C014080B400AF034BD3F81B
:1056F00080301846BD465DF8047B7047002C0140A1
:1057000080B483B000AF0346FB71044AFB79136099
:1057100000BF0C37BD465DF8047B70478C85254281
:1057200080B485B000AF78600023FB73084B5A6BE0
:105730007B681340002B02D00123FB7301E00023A0
:10574000FB73FB7B18461437BD465DF8047B70473E
:10575000002C014080B485B000AF78600023FB735B
:10576000084B5A6B7B681340002B02D00123FB735C
:1057700001E00023FB73FB7B18461437BD465DF840
:10578000047B7047002C014080B483B000AF786088
:10579000044A7B68936300BF0C37BD465DF8047B09
:1057A000704700BF002C014080B485B000AF786026
:1057B00039600023FB817B681B88FB817B68294A59
:1057C000934213D07B68284A93420FD07B68B3F191
:1057D000804F0BD07B68254A934207D07B68244AD0
:1057E000934203D07B68234A934208D1FB8923F07C
:1057F0007003FB813B685A88FB891343FB817B68FC
:105800001D4A93420CD07B681C4A934208D0FB8906
:1058100023F44073FB813B681A89FB891343FB81A6
:105820007B68FA891A803B685A687B68DA623B6851
:105830001A887B681A857B680A4A934203D07B6882
:10584000094A934204D13B689B7A9AB27B681A86D4
:105850007B6801229A8200BF1437BD465DF8047B45
:10586000704700BF000001400004014000040040F8
:1058700000080040000C00400010004000140040F0
:1058800080B483B000AF78600B46FB70FB78002BD0
:1058900008D07B681B889BB243F080039AB27B6878
:1058A0001A8007E07B681B889BB223F080039AB2C2
:1058B0007B681A8000BF0C37BD465DF8047B7047DB
:1058C00080B483B000AF78600B46FB70FB78002B90
:1058D00008D07B681B889BB243F001039AB27B68B7
:1058E0001A8007E07B681B889BB223F001039AB201
:1058F0007B681A8000BF0C37BD465DF8047B70479B
:1059000080B485B000AF7860396000237B810023CC
:10591000FB810023BB817B681B8C9BB223F00103BE
:105920009AB27B681A847B681B8CFB817B689B889E
:10593000BB817B681B8B7B817B8923F070037B8120
:105940007B8923F003037B813B681A887B8913439F
:105950007B81FB8923F00203FB813B689A89FB89E9
:105960001343FB813B685A88FB891343FB817B68A7
:105970001E4A934203D07B681D4A934223D1FB8980
:1059800023F00803FB813B68DA89FB891343FB8121
:10599000FB8923F00403FB813B689A88FB8913434E
:1059A000FB81BB8923F48073BB81BB8923F4007323
:1059B000BB813B681A8ABB891343BB813B685A8A07
:1059C000BB891343BB817B68BA899A807B687A89DB
:1059D0001A833B689A687B685A637B68FA891A84E1
:1059E00000BF1437BD465DF8047B704700000140DE
:1059F0000004014080B485B000AF786039600023B6
:105A00007B810023FB810023BB817B681B8C9BB2C5
:105A100023F010039AB27B681A847B681B8CFB818D
:105A20007B689B88BB817B681B8B7B817B8923F494
:105A3000E0437B817B8923F440737B813B681B8837
:105A40001B029AB27B8913437B81FB8923F02003DD
:105A5000FB813B689B891B019AB2FB891343FB8145
:105A60003B685B881B019AB2FB891343FB817B680F
:105A7000224A934203D07B68214A93422BD1FB896F
:105A800023F08003FB813B68DB891B019AB2FB8911
:105A90001343FB81FB8923F04003FB813B689B8818
:105AA0001B019AB2FB891343FB81BB8923F48063FA
:105AB000BB81BB8923F40063BB813B681B8A9B00CD
:105AC0009AB2BB891343BB813B685B8A9B009AB245
:105AD000BB891343BB817B68BA899A807B687A89CA
