:020000040800F2
:10000000B81200206D02000875020008770200088F
:10001000790200087B0200087D0200080000000051
:100020000000000000000000000000007F02000847
:10003000810200080000000083020008B9390008AE
:10004000870200088702000887020008870200086C
:10005000870200088702000887020008870200085C
:10006000870200088702000887020008870200084C
:10007000870200088702000887020008870200083C
:10008000870200088702000887020008870200082C
:10009000870200088702000887020008870200081C
:1000A000870200088702000887020008870200080C
:1000B00087020008870200088702000887020008FC
:1000C00087020008870200088702000887020008EC
:1000D00087020008870200088702000887020008DC
:1000E00087020008870200088702000887020008CC
:1000F00087020008870200088702000887020008BC
:1001000087020008DD2A000887020008870200082D
:10011000870200088702000887020008870200089B
:10012000870200088702000887020008852100086E
:10013000870200088702000887020008870200087B
:10014000870200088702000887020008870200086B
:10015000870200088702000887020008870200085B
:10016000870200088702000887020008870200084B
:1001700087020008870200088702000800000000CC
:10018000870200088702000800F002F800F05FF81C
:100190000AA090E8000C82448344AAF10107DA45E2
:1001A00001D100F054F8AFF2090EBAE80F0013F0D5
:1001B000010F18BFFB1A43F001031847746C0000CD
:1001C000946C0000103A24BF78C878C1FAD852075E
:1001D00024BF30C830C144BF04680C6070470000C1
:1001E0000023002400250026103A28BF78C1FBD840
:1001F000520728BF30C148BF0B607047662906F020
:10020000B982642900F06A81752900F06781782934
:1002100000F0A081732900F0EE85002070471FB523
:1002200006F0A3FA9DE8030000F01AFB00F092FE2E
:1002300004000020002106F00BFA401C6060002042
:10024000002106F0EFF9E0601FBD10B510BD00F011
:10025000EFFF1146FFF7E3FF05F0E8FB01F01BF8A5
:1002600003B4FFF7F2FF03BC01F08CF809488047A4
:1002700009480047FEE7FEE7FEE7FEE7FEE7FEE788
:10028000FEE7FEE7FEE7FEE704480549054A064BA0
:1002900070470000993A000889010008B80C002056
:1002A000B8120020B80E0020B80E002070B5064627
:1002B00000F0B6FA056806F10B0020F00704B4421E
:1002C0009CBF002070BD2B466A68BAB11068A0427E
:1002D00010D304F1080188423CBF5068586007D32E
:1002E0005168101941601168091B01605860146061
:1002F000101D70BD13465268002AE7D121462846DA
:1003000000F09AFA0028DED170BD70B50446051FD2
:1003100000F086FA0068002C14BF446870BD002C01
:1003200018BFAC423CBF20466468F8D301680A1885
:10033000AA4218BF456003D12A68054611440160EE
:1003400028684119A1421CBF6C6070BD616869607A
:1003500021680844286070BD53EA020C00F06980EF
:100360002DE9F04B4FF00006002B1FBFB3FA83F5C9
:1003700003FA05F424FA05F65E4012BF1643B2FAFA
:1003800082F502FA05F4C5F120051EBF22FA05FC2C
:1003900044EA0C04203556EA044C4FEA144418BFD2
:1003A000641C4FF000084FF00009904271EB030C01
:1003B00039D3002919BFB1FA81F701FA07F6B0FA6B
:1003C00080F700FA07F6C7F120071EBF20FA07FCE6
:1003D00046EA0C062037B6FBF4FCA7EB0507103FF6
:1003E00007F01F0BCBF120060CFA0BFB2CFA06F6DC
:1003F00044BFB3460026202FA4BF5E464FF0000B3B
:100400005BEA060C08BF4FF0010B19EB0B09ABFBC5
:10041000027C48EB0608C01B06FB02CC0BFB03CC9E
:1004200071EB0C01C1E70B46024641464846BDE868
:10043000F08B13B54FF000004FF00001AFF30080D8
:10044000BDE81C40704700000FB4044910B503AA72
:10045000029800F0D5FC10BC5DF814FB08010020E8
:100460000FB41CB5074B06AA7B446946009005985B
:1004700000F097FC0020694600F0A6FC1CBC5DF86B
:1004800014FB00005D09000070B50C460546012A0A
:1004900005D02878800600D5EA69002302E0012310
:1004A00005E05B1C934202D2E05C0028F9D1A86908
:1004B000E618C01AA861286A184428622846AFF3D3
:1004C000008004E0D5E9012114F8010B9047B44203
:1004D000F8D32846AFF3008070BD00002DE9F0414D
:1004E0000646002410687529314616A510D0AFF3D2
:1004F0000080002802DA404213A507E031688A072D
:1005000001D512A502E0490704D511A5012401E097
:10051000AFF3008000210A2206F1240709E0B0FBB6
:10052000F2FCB0FBF2F302FB1C00303078541846AA
:10053000491C0028F3D123462A463046BDE8F04145
:1005400000F0C4B9000000002D0000002B000000E6
:100550002000000070B504460D4621461068AFF338
:1005600000802188090502D50F4A7A4402E00E4A2C
:100570007A440E32002104F1240305E000F00F0656
:100580000009965D5E54491C0028F7D120780023AD
:10059000000704D5702D02D009B102231132204684
:1005A000BDE8704000F092B9C26700002DE9F0414B
:1005B0000F460546002028622846E968884770B340
:1005C000252805D0D5E901219047286A401CF2E78B
:1005D000E9682846002688476C2804460AD0682C1B
:1005E00008D04C2C35D06A2C31D0742C31D07A2CD8
:1005F0002FD016E0E968064628468847B0420446F0
:1006000008D16C2E23D04FF480662846E9688847CD
:10061000044606E06C2E03D04FF4807601E01EE025
:100620004026E4B1A4F14100192802D8203446F450
:1006300000663A46214628462E60FFF7DFFD60B18E
:10064000012808D0FF1D27F007070837B4E78026E8
:10065000DBE70026D9E73F1DAEE72046B2E7286A70
:10066000BDE8F08170B5064600F0DEF80468054686
:1006700030460A22002100F0D5FB2C6070BD401EE0
:10068000CAB210F8011F8A4202D00029F9D1002015
:10069000704740EA0103024630B59B0710D14FF086
:1006A000013400E008C208C91D1B9D4315EAC41FA0
:1006B000F8D013F0FF0102F8011B0DD01B0AF8E778
:1006C00011F8013B002B02F8013B05D011F8013B6A
:1006D000002B02F8013BF3D130BD032A40F23080F9
:1006E00010F0030C00F0158011F8013BBCF1020F73
:1006F000624498BF11F801CB00F8013B38BF11F8F4
:10070000013BA2F1040298BF00F801CB38BF00F80A
:10071000013B11F0030300F0BD83083AC0F00880EC
:1007200051F8043B083A51F804CBA0E80810F5E76B
:10073000121D5CBF51F8043B40F8043BAFF300804E
:10074000D20724BF11F8013B11F801CB48BF11F8C3
:10075000012B24BF00F8013B00F801CB48BF00F893
:10076000012B704702F0FF0343EA032242EA0242F0
:1007700000F0C4BB4FF0000200B513469446964605
:10078000203922BFA0E80C50A0E80C50B1F12001A4
:10079000BFF4F7AF090728BFA0E80C5048BF0CC052
:1007A0005DF804EB890028BF40F8042B08BF7047B0
:1007B00048BF20F8022B11F0804F18BF00F8012B22
:1007C000704710B5044610F0030F08BF11F0030F77
:1007D00040F015804FF0013E121FC0F20E8051F81C
:1007E000043BA3EB0E0C2CEA030C1CEACE1C08BF46
:1007F00040F8043BF0D0A1F1040102F10402521EC2
:1008000008DB11F8013B002B00F8013BF7D1114642
:1008100000F072FB204610BD704770477047000023
:10082000004870475C0C002000487047540C0020C2
:10083000704770477047704738B504460A46002035
:100840006946AFF30080002808BF38BD0246009912
:10085000204600F083FB012038BD012000F0E0BC01
:10086000F8B5AFF30080054600200C46102000BF0D
:100870000646A819A0420DD9324669460020AFF3BA
:100880000080070008BF00F0CBFC0098A04218BF12
:100890000546C419FFF7C4FF05600746F01D20F0A8
:1008A00007004619284600F00AF8B44208BFF8BD10
:1008B000A21B31463868BDE8F84000F04FBB00216C
:1008C0000160C0E901107047102070472DE9F04722
:1008D0000D4699469246044600F1240801688806B0
:1008E00004D5E06921F01001216000E00120A84258
:1008F00001DD471B00E00027A1697A1902EB09001E
:10090000081AA0612078C00602D42046AFF3008008
:10091000002608E0D4E901211AF806009047206A71
:10092000401C761C20624E45F4DB2078C0060AD5B8
:100930002046AFF3008006E0D4E901213020904743
:10094000206A401C2062381EA7F10107F4DC07E092
:10095000D4E9012118F805009047206A401C206264
:10096000281EA5F10105F3DC2046AFF300802078B6
:10097000000602D50220BDE8F0870120FBE77047A2
:100980002DE9FF4F0C461E464FF0FF378BB0D2E9E2
:100990000001DDF860800A908A46C1F30A5505B966
:1009A0003D46002108464FF00000BAF1000F00F468
:1009B000400005DA00EB80004FF4400101EA5000EE
:1009C0004FEA9059B9F1010F00DDB9460A9850EA93
:1009D0004A000ED044F61050A5F2FF3545432F14BF
:1009E000B8F1000F1ED07542291E1EDDC9F10002AC
:1009F0001CE0B8F1010F4FF0000001D0302103E0FE
:100A0000F24305E02154401CB042FBDB304600229B
:100A1000002121540B99C1F80880C1E900200FB0D2
:100A2000BDE8F08FBD1B6D1CDEE74A4600DA694267
:100A300006A800F083FB06AB93E8070003AB83E84E
:100A4000070050460A9900F0C3FC8DE80700A0F5A6
:100A500000501F3800900398002D09DD42F21F015D
:100A60004A46084403A90390684600F022FF08E0C4
:100A7000A0F500504A461F3803A90390684600F0CD
:100A80002CFF8DE807000004000C03D04FF0FF306E
:100A9000410800E01046B8F1000F03D00022009298
:100AA00015461EE0751E05D400F072FA303262550C
:100AB0006D1EF9D5B3460122084302D000227F1CE7
:100AC00004E02078302801D100227F1E002A0997F7
:100AD00086D01DE0112D07DA00F05AFA3032625547
:100AE0006D1C50EA0102F5D1084302D00098C8B14C
:100AF0000EE00021681E05E0235C625C6354225412
:100B0000401E491C8142F7DBAB46A81B401E0990E2
:100B1000002004F80B000B98099AC0F80880C0E97F
:100B2000002B7CE711264FF0000859E72DE9F04F24
:100B300088460446D21D22F0070191B0D1E9000198
:100B4000CDE90A0103F02EFC02460B98C00F01D03C
:100B50002D2007E02068810701D52B2002E020210D
:100B600001EAC000032A099001D0072A05DB0346E9
:100B70004146204600F052FA0BE12078800601D56C
:100B8000E06900E00620B8F1650F814606D0B8F1B3
:100B9000660F18D0B8F1670F70D131E00020B9F1BD
:100BA000110F009001DB112301E009F101030AAAF2
:100BB00001A90CA8FFF7E4FEDDE90C70002609F19D
:100BC0000105834647E001204B4600904FF0004767
:100BD0000AAA01A90CA8FFF7D3FEDDE90DB00C9914
:100BE0005D46002610B909F101000D18B9EB0500AA
:100BF00003D4C0F1FF3609F10105A5EB09002BE094
:100C0000B9F1010F01DA4FF001090020B9F1110F1C
:100C10000090484601DD112300E003460AAA01A91D
:100C20000CA8FFF7ADFEDDE90C704D4600268346AB
:100C3000207800070AD4AB4500DA5D4601A8012DF3
:100C400004DD411911F8011C302907D04F4502DAA3
:100C500017F1040F04DA012082460FE06D1EEEE763
:100C6000002F02DCED1B3E4403E0781CA84200DDAF
:100C70007D1CB81B00F1010A4FF0004720780007E7
:100C800003D4AA4501DB4FF0FF3A0021B7F1004F32
:100C90000DF143088DF8431024D002202B23002FA0
:100CA00001DA7F422D230A21021EA0F1010000DC9F
:100CB0005FB197FBF1FC97FBF1F201FB1C7C17463F
:100CC0000CF1300C08F801CDEEE7A8F1010003703B
:100CD0002188090501D5452100E06521A0F1010821
:100CE00000F8011C09980FA9A1EB0807FF1D00B12E
:100CF0000120411901EBEA70A1693844081A401E2D
:100D0000A0612078C00602D42046AFF30080099885
:100D100028B1D4E901219047206A401C2062207844
:100D2000C00622D52046AFF300801EE0002E04DB73
:100D3000B34502DD01A8805D00E03020D4E9012147
:100D40009047206A401C2062761CAAF101005FEAED
:100D5000000A0AD100F0FEF8C0680168405CD4E9DE
:100D600001219047206A401C2062281EA5F1010540
:100D7000DCDC07E0D4E9012118F8010B9047206A78
:100D8000401C2062381EA7F10107F3DC2046AFF3B8
:100D90000080032011B043E601694A1C0261087813
:100DA000704700B58FB0CDE90131002105910549AB
:100DB0007944CDE9031011466846FFF7F7FB0FB001
:100DC00000BD0000E5FFFFFF0A6802F8010B0A60A2
:100DD000704710B5436913B1AFF3008001E0FFF72E
:100DE00053FB012010BD127800F124010A7000228B
:100DF0004A700122EDE711684FF0FF32E9E7000089
:100E0000074B70B50D467B44FFF7CBFF04462846E1
:100E100000F002FA10B14FF0FF3070BD204670BDF7
:100E20006F4900002DE9F04791460F468046044681
:100E3000002614F8015B2DB100F084F80068405DD5
:100E4000C007F6D12B2D02D02D2D18D0641E4A4696
:100E50003946204600F022F927B13968A14201D174
:100E6000C7F800804FF0020471050BD540420028FE
:100E700003DDFFF7D9FC0460A007BDE8F08746F466
:100E80008066E4E70028F8DAFFF7CEFC04606FF034
:100E90000040F2E710B5203AC0F00B80B1E81850DE
:100EA000203AA0E81850B1E81850A0E81850BFF454
:100EB000F5AF5FEA027C24BFB1E81850A0E81850F3
:100EC00044BF18C918C0BDE810405FEA827C24BF47
:100ED00051F8043B40F8043B08BF7047D20728BFD5
:100EE00031F8023B48BF11F8012B28BF20F8023B24
:100EF00048BF00F8012B70474FF000020429C0F0F2
:100F0000128010F0030C3FF437ACCCF1040CBCF1B0
:100F1000020F18BF00F8012BA8BF20F8022BA1EB8D
:100F20000C01FFF729BC5FEAC17C24BF00F8012B4C
:100F300000F8012B48BF00F8012B704700487047AC
:100F4000540C002010B500F005F8001D10BD00BFC6
:100F50000157000000487047740C002003464068A9
:100F60008C46002818BF88423CBF03464068F8D32F
:100F700018681844884207D00CF1030020F00700DD
:100F8000001D411A521A0146081D0A60FFF7BDB93B
:100F900030B5B0F10A024FEA900E71F100034EEA4B
:100FA000817EB0EB0E0061EB91014FEA101E4EEA1C
:100FB000017E10EB0E0041EB11114FEA102E4EEAAC
:100FC000016E10EB0E0041EB11214FEA104E4EEA7C
:100FD000014E10EB0E0041EB1141401841F10001B0
:100FE0004FEAD00040EA41704FEAD10110EB800592
:100FF0004FEA810444EA907444EB01046D1944EB18
:101000000404521BA3414FF0000348BF0A3200D52D
:1010100030BD401C41F1000130BD00002DE9F04120
:101020001F46044603260168072A01F4006004DB1A
:1010300008B116A505E016A503E008B115A500E066
:1010400015A521F010002060A069C01EA0610FB19D
:10105000401EA0612046AFF300804FB1D4E90121CA
:1010600038469047206A401C2062C01C206206E07F
:10107000206AFAE7D4E9012115F8010B9047761EA2
:10108000F8D22046AFF30080BDE8F0814E414E001B
:101090006E616E00494E4600696E66002DE9F05F94
:1010A000824615468B4600270AF10104B9460078AE
:1010B000302801D09DB113E014F8010B01277828E6
:1010C00003D0582801D045B10AE00DB1102D07D149
:1010D000002714F8010B102502E0082500E00A257E
:1010E0000026B0460EE005FB080005FB06F10127CF
:1010F0001FFA80F801EB1046B6F5803F00D3B946E1
:1011000014F8010B294600F0B8F80028EBDABBF11F
:10111000000F05D00FB1641E00E05446CBF800402C
:10112000B9F1000F06D0FFF77FFB02210160C81E56
:10113000BDE8F09F48EA0640FAE700002DE9F047D5
:10114000814616468AB0334878440DC88DE80D00B4
:1011500030487844801C03AC0DC884E80D0041F68B
:101160009B300844372190FBF1F290FBF1F5A5F19B
:10117000800501FB12041B3C02D56442012000E003
:101180000020DFF890A080460027FA44AAF1BE0AAA
:101190000DE0E00709D03246684607EB47010AEB4D
:1011A000810100F09AFB8DE8070064107F1C002C81
:1011B000EFD1184F7F44AC3F18E0E80714D007EB9D
:1011C00004100DF1180A90E80E008AE80E00C068BD
:1011D000F04201D198190890324606A903A800F000
:1011E0007CFB03AB83E807006D10641C002DE4D189
:1011F00032466946B8F1000F03A802D000F059FB4F
:1012000001E000F06AFBC9E90001C9F808200AB052
:10121000BDE8F087885C0000007B00F0800070472C
:1012200010B500F047F8BDE8104000F03DB8704739
:101230007546FFF783FEAE4605006946534620F02B
:101240000700854618B020B5FFF71EF8BDE820401E
:101250004FF000064FF000074FF000084FF0000B72
:1012600021F00701AC46ACE8C009ACE8C009ACE825
:10127000C009ACE8C0098D4670473A2800D2303822
:1012800020F02002412A01D3A2F13700884201D385
:101290004FF0FF30704710B50446AFF30080204692
:1012A000BDE81040FEF7DCBF002801D000F06AB8AE
:1012B0007047000010B5012805D0002103A000F000
:1012C00067F8012010BD09A1F8E700005349475213
:1012D000544D454D3A204F7574206F662068656106
:1012E00070206D656D6F7279000000003A204865CE
:1012F0006170206D656D6F727920636F72727570A9
:10130000746564004FF0013C50F8042B51F8043B25
:101310009A4221D1A2EB0C03934313EACC1317D1C9
:1013200050F8042B51F8043B9A4215D1A2EB0C0360
:10133000934313EACC130BD150F8042B51F8043B20
:101340009A4209D1A2EB0C03934313EACC13DBD0EE
:101350004FF00000704700BFD01A01BAB1FA81F116
:1013600001F0180122FA01F0CB40C1F12001DBB2FB
:10137000C0B2C01A2CFA01F3D11A914311EAC31179
:10138000E6D1704701491820ABBEFEE726000200F7
:1013900070B505460C460A2000E06D1C00F011F8FF
:1013A00035B128780028F8D102E0641C00F009F873
:1013B00014B120780028F8D1BDE870400A20AFF3BE
:1013C000008008B569468DF800000320ABBE08BD5B
:1013D0005FEA400C08BF91F0000F4FEA8C234FEA00
:1013E000C12243EA51514FEA1C5018BF00F5F040AA
:1013F0004FEA300018BF41F000415FEA6C5C00F03A
:101400002980BCF1FF3F08BF40F080407047130CBB
:1014100006BF12044FF0100C4FF0000C130E04BF67
:1014200012020CF1080C130F04BF12010CF1040C92
:10143000930F04BF92000CF1020CD30F04BF5200B3
:101440000CF1010C11464FF00002A0F11F00A0EBBF
:101450000C00704711F0004F08BF704731F0004199
:101460003FF4D5AF0B0C06BF09044FF0100C4FF042
:10147000000C0B0E04BF09020CF1080C0B0F04BF8B
:1014800009010CF1040C8B0F04BF89000CF1020C54
:10149000CB0F04BF49000CF1010CCCF12003A0EBF1
:1014A0000C0022FA03F302FA0CF241EA030100F104
:1014B0000100704720F07F4C80EA030023F07F4753
:1014C000ACEB070303F57C5300F0004003F1FF038E
:1014D0002DE980494FEA154B09B44FEA144325EA38
:1014E0000B4E24EA03480FF2042606EB13274908A3
:1014F0003E785FEA320203FB0667C7F5000707FB89
:1015000006F64FEA54374FEAD64606F1020607FBC5
:10151000066CCCF1005C4FEA1C472CEA074C07FB39
:1015200006F40CFB06F504EB15464FEA961634BF9D
:1015300000204FF000404FEAD13706FB07FC4FEA8E
:101540001C4C0CFB0BF7D21B03FB0CF761EB0701E8
:101550000CFB0EF7B0EB074072EB17420CFB08F7E1
:1015600034BFA2EB0742B2EB074261EB17414FEAEF
:101570000C444FEA910706FB07FC4FEA1C4C0CFB9E
:101580000BF7B0EBC74072EB573203FB0CF734BFDD
:10159000A2EBC742B2EBC74261EB57310CFB0EF72F
:1015A000B0EBC70072EB57720CFB08F734BFA2EB2D
:1015B000C702B2EBC70261EB5771039F4FEA81612B
:1015C00041EA921104EBCC044FEAD1374FEA826230
:1015D00006FB07FC42EA90124FEA80604FEA1C4C7F
:1015E0000CFB0BF7D21B03FB0CF761EB07010CFBA9
:1015F0000EF7B0EB074072EB17420CFB08F734BF55
:10160000A2EB0742B2EB074261EB17414FEA8C5560
:101610004FEA910704EB9C2406FB07FC4FEA1C4CA5
:101620000CFB0BF7B0EBC74072EB573203FB0CF728
:1016300034BFA2EBC742B2EBC74261EB57310CFBA0
:101640000EF7B0EBC70072EB57720CFB08F734BF14
:10165000A2EBC702B2EBC70261EB577115EB4C2549
:101660004FEA816141EA92114FEA82624FEAD13733
:1016700042EA901206FB07FC44F100044FEA806046
:101680004FEA1C4C0CFB0BF7D21B03FB0CF761EB76
:1016900007010CFB0EF7B0EB074072EB17420CFB97
:1016A00008F734BFA2EB0742B2EB074261EB1741E8
:1016B00015EB1C154FEA813141EA92414FEA823223
:1016C00042EA90424FEA80304FEA0C7644F100043F
:1016D00048EA03434EEA0B484FF0000EB2EB080C09
:1016E00071EB030724BF624639464EEB0E0E4FF0F6
:1016F000000B0018524149414BEB0B0BB2EB080CAD
:1017000071EB03077BF1000B24BF624639464EEBB9
:101710000E0E4FF0000B0018524149414BEB0B0BE2
:10172000B2EB080C71EB03077BF1000B24BF6246A0
:1017300039464EEB0E0E51EA020718BF46F001067D
:1017400016EB0E7655F1000254F1000103D5BDE809
:101750008901BDE80088BDE88901BDE80048B619E7
:10176000524141EB0101A3F10103704780807F7E6C
:101770007D7C7B7A79787776767574737271717007
:101780006F6E6E6D6C6C6B6A6A69686867666665B9
:101790006464636362616160605F5F5E5E5D5D5C47
:1017A0005C5B5B5A5A5959585857575656555555B8
:1017B0005454535352525251515050504F4F4F4E18
:1017C0004E4D4D4D4C4C4C4B4B4B4A4A4A49494966
:1017D00048484847474747464646454545444444A8
:1017E000444343434342424242414141002B26D4B9
:1017F000770021D01CB54FEA370703B44FF0100033
:101800004FF010014FF000000FBCBDE810400BF18D
:10181000010BBBF1010F08BF5FEA170722BF12F1EE
:10182000010211F101014FF0004143F1000300F00A
:10183000004043EA00007047F9D35708DAE746EA68
:10184000064613F1400F4FEA16461FDD13F1200F35
:10185000DFBF16430A46002120335B42C8D0C3F1E4
:10186000200746EA064602FA07F74FEA164646EA16
:101870000706C3F1200722FA03F201FA07F721FA5B
:1018800003F14FF0000342EA0702B1E746EA02061D
:1018900046EA06464FEA164646EA0106BCBF46EA55
:1018A0000646360C4FF000034FF000024FF00001E7
:1018B0009EE72DE9C048934630B491E8380007C848
:1018C00031EA400C48BF34EA430C03D5FFF7F2FD80
:1018D000FFF78CFFF0BCBDE800882DE9C0489346B7
:1018E00030B491E8380007C810F0804F08BF13F0FB
:1018F000804F03D100F005F8FFF778FFF0BCBDE89A
:10190000008820F07F4780EA030023F07F4C07EB3C
:101910000C03A3F57C5300F00040A3F1FE0392F00A
:10192000000F00F0B38095F0000F00F077802DE9F4
:1019300001494FEA11404FEA144621EA004800FBF2
:1019400006FC24EA064708FB06F607FB08F800FB3E
:1019500007F718EB06484CEB164C4FEA124B18EB06
:1019600007484FEA15464CEB174022EA0B4E0BFB9B
:1019700006FC25EA06470EFB06F607FB0EFE0BFBF0
:1019800007F71EEB064E4CEB164C4FF000061EEB15
:10199000074E4CEB174B18EB0B0840F1000018EB0F
:1019A0000E0B58EB000840F100008F1A4FF00001B9
:1019B0003CBFC943661B14BFB5EB040C00213CBF00
:1019C000C943F61B4FEA17444EEA8E0E27EA044538
:1019D0004FEA1C4704FB07622CEA074C05FB07F79C
:1019E0000CFB05F604FB0CFC16EB074642EB17421A
:1019F00016EB0C4642EB1C421BEB060658EB0202B0
:101A0000414146EA9E0601D5BDE80189B619524119
:101A100041EB0101A3F10103BDE801894FEA14453F
:101A20004FEA114724EA054621EA074C05FB07F473
:101A300006FB07F70CFB06F105FB0CFC11EB07415D
:101A400044EB17444FEA124711EB0C4144EB1C44A2
:101A500022EA074C05FB07F206FB07F70CFB06F62C
:101A600005FB0CFC16EB074642EB174216EB0C4647
:101A700042EB1C456A1854F1000148BF7047B61983
:101A8000524141EB0101A3F10103704795F0000FB2
:101A900037D04FEA11424FEA144721EA024624EABE
:101AA000074C02FB07F106FB07F70CFB06F402FBF1
:101AB0000CFC14EB074441EB17414FEA154714EBBC
:101AC0000C4441EB1C4125EA074C02FB07F506FBE1
:101AD00007F70CFB06F602FB0CFC16EB074645EB82
:101AE000174516EB0C4645EB1C42121951F100014B
:101AF00048BF7047B619524141EB0101A3F1010300
:101B000070474FEA14454FEA114724EA054621EA97
:101B1000074C05FB07F106FB07F70CFB06F24FF03D
:101B2000000605FB0CFC12EB074241EB174112EBE0
:101B30000C4251EB1C4148BF7047921841EB010128
:101B4000A3F10103704721B1826842F00102826073
:101B500003E0826822F00102826070470021084A97
:101B60001168084A1140D0E900231A4383681A43D8
:101B7000C3681A431143044AC2F8041370470000B3
:101B800004230140E030FCFF002001400146C86C06
:101B900080B2704730B50246002000235068104CD8
:101BA00020400D790C6844EA052420435060906879
:101BB0000C4C2040D1E903542C438D682C434D79C3
:101BC00044EA450420439060D06A20F470000C7D04
:101BD000641EE4B2234340EA0350D06230BD0000EB
:101BE000FFFEFFFCFDF7FFC000B58DB00121042012
:101BF00000F096FD0121880200F0B2FD0120019065
:101C000003208DF8080002208DF80B0001A916486A
:101C100000F0D4FC0020039004900590069003A8E7
:101C2000FFF79CFF002007908DF8200001208DF821
:101C30002100002009900A900B9001208DF83000BF
:101C400007A90A48FFF7A6FF052301220A21074832
:101C500000F00EF801210548FFF775FF034800F07A
:101C600063F80DB000BD00000008024000220140F2
:101C7000F0B504460D4600200021092D11DDE06875
:101C8000A5F10A0606EB4607072606FA07F1884380
:101C9000A5F10A0606EB460603FA06F10843E060E2
:101CA0000CE0206905EB4507072606FA07F1884393
:101CB00005EB450603FA06F108432061072A0FDA0F
:101CC000606B561E06EB86071F2606FA07F188434F
:101CD000561E06EB860605FA06F10843606322E00D
:101CE0000D2A0FDA206BD61F06EB86071F2606FA91
:101CF00007F18843D61F06EB860605FA06F108436E
:101D0000206310E0E06AA2F10D0606EB86071F26AD
:101D100006FA07F18843A2F10D0606EB860605FADE
:101D200006F10843E062F0BD816841F080418160C6
:101D30007047000070B500254FF4803400E0641E49
:101D400024B1802000F09EFE0028F8D014B90325AD
:101D5000284670BD40F2FF50014908602846F8E768
:101D6000382C01402DE9F041064600274948056816
:101D700001E04848056805F045000028F9D005F065
:101D8000040038B1032704204249091D0860384681
:101D9000BDE8F08105F0010030B1012701203D4987
:101DA000091D08603846F3E700F066FEB04202D035
:101DB00010273846ECE740F2FF503649091D08600D
:101DC000002000F07FFE04463348204008B9384622
:101DD000DEE704F0004008B11C20D9E704F08040A1
:101DE00008B10920D4E704F0005008B10A20CFE779
:101DF00004F0805008B10B20CAE704F0006008B17D
:101E00000C20C5E704F0806008B10D20C0E704F0A5
:101E1000807008B10E20BBE704F4000008B10F2069
:101E2000B6E704F4800008B11020B1E704F4001014
:101E300008B11120ACE704F4801008B11220A7E724
:101E400004F4002008B11320A2E704F4802008B1B4
:101E500014209DE704F4003008B1152098E704F43D
:101E6000803008B1162093E704F4004008B1172031
:101E70008EE704F4804008B1182089E704F400508C
:101E800008B1192084E704F0080008B11A207FE7A0
:101E900038467DE7342C014008E0FFFD0020114A60
:101EA000116801E00F4A116801F04502002AF9D0DB
:101EB00001F004022AB1032004220A4B1B1D1A6000
:101EC000704701F001022AB101200122054B1B1DC0
:101ED0001A60F5E740F2FF52024B1B1D1A6000BF6B
:101EE000EEE70000342C014000200C4A116801E0AC
:101EF0000A4A116801F04502002AF9D001F00402F3
:101F00002AB103200422054B1B1D1A60704740F2C2
:101F1000FF52024B1B1D1A6000BFF7E7342C014033
:101F20002DE9F04106460F464FF0000824480568A9
:101F300001E02348056805F045000028F9D005F0C8
:101F4000040040B14FF0030804201D49091D08603A
:101F50004046BDE8F08105F0010038B14FF00108BE
:101F600001201749091D08604046F2E700F084FD92
:101F7000B04203D04FF010084046EAE740F2FF506D
:101F80000F49091D0860002000F09CFD044604F480
:101F9000604018B9200C38804046DAE704F400505D
:101FA00008B11320D5E704F4804008B11020D0E731
:101FB00004F4004008B10F20CBE74046C9E7000019
:101FC000342C014010B500204FF480320F4B1968BB
:101FD00002E0521E0D4B196801F045030BB9002AAF
:101FE000F7D112B101F004032BB103200423074CF5
:101FF000241D236010BD01F040032BB100204023BD
:10200000024C241D2360F5E700BFF3E7342C0140A8
:1020100010B590B004460121480500F081FB194835
:1020200000F0DAF84FF060600190174802900394D6
:1020300001200590C0020890800009904020049083
:102040000020069007904FF480700A9040020B9099
:1020500000200C9001200D9000200E900F9001A9FF
:10206000084800F0B1F90121064800F0A9F8012163
:10207000002000F00FF80121002000F041F810B01E
:1020800010BD0000886002400874004010B500F0E8
:1020900015F810BD39B1084A1268012383401A436C
:1020A000054B1A6006E0044A1268012383409A43F4
:1020B000014B1A60704700000074004000B587B003
:1020C0000121480700F03CFB0121084600F028FBF5
:1020D0001020019003208DF8080000208DF80B00DF
:1020E00001A9064800F06AFA042003900020069037
:1020F000049003A900F02CF807B000BD00000240D6
:1021000041B1094A12684FF4805383401A43064B89
:102110001A6007E0044A12684FF4805383409A43E0
:10212000014B1A60704700000074004008B501467A
:1021300000200090054800902C2000EB9100009AB0
:10214000104400900098006880B208BD0074004000
:1021500030B5002200230A4C226840F6FE74844009
:10216000A243D1E900452C438D682C43CD6844EA55
:10217000050303FA00F42243014C226030BD000045
:102180000074004010B501F083F910BD0246094B00
:102190009A4201D2084801E00648103801F0005385
:1021A0001BB1064B0B40C36002E0044B0B40836045
:1021B0007047000010640240006002407D0F7D0FF8
:1021C00021B1026842F00102026003E0026822F0DD
:1021D0000102026070470000016821F00101016006
:1021E0000021016041608160C16001612121416184
:1021F0004A49884204D13D21484A103A91608CE016
:1022000046491831884205D14FF47461434A103A67
:10221000916082E041493031884205D14FF4741118
:102220003E4A103A916078E03C494831884205D1F5
:102230004FF07461394A103A91606EE0374960316D
:10224000884204D13649354A103AD16065E03349B5
:102250007831884204D13349304A103AD1605CE089
:102260002E499031884204D12F492C4A103AD1602E
:1022700053E02A49A831884205D14FF03D51274A01
:10228000103AD16049E02949884204D13D21274ACA
:10229000083A116041E025491831884205D14FF4D0
:1022A0007461224A083A116037E02049303188428F
:1022B00005D14FF474111D4A083A11602DE01B49F5
:1022C0004831884205D14FF07461184A083A1160CC
:1022D00023E016496031884204D11149134A121F84
:1022E00011601AE011497831884204D10D490F4A32
:1022F000121F116011E00D499031884204D10A4942
:102300000A4A121F116008E00849A831884204D126
:102310004FF03D51054A121F116070471060024096
:102320003D000020400F002000003D2010640240CE
:1023300021B1026842F02002026003E0026822F04C
:10234000200202607047000030B503460A460020B4
:1023500000240B4DAB4201D20A4901E00849103973
:1023600002F000550DB14C6800E00C68064D2C40A1
:1023700004EA02050DB1012000E0002030BD00009C
:1023800010640240006002407D0F7D0F10B501F027
:1023900080034BB122B1436943F08003436103E002
:1023A000436923F08003436180290BD02AB103687D
:1023B00001F01E042343036004E0036801F01E04DF
:1023C000A343036010BD000010B500220268134B48
:1023D0001A40CC680B6823434C6923438C69234320
:1023E000CC6923430C6A23434C6A23438C6A2343FE
:1023F0004C6B23438C6B23431A430260426922F0E7
:102400000702D1E90B3423431A4342610B6943604D
:102410004B6883608B68C36010BD00003F801CF078
:102420002DE9FC4107460D460026002400200090BF
:10243000019008205D4908601020486040208860B5
:102440000020C8604FF480600861084600F068FB17
:102450001020FFF787FC044614B12046BDE8FC813C
:1024600053480088000451490860372048604020E4
:1024700088600020C8604FF480600861084600F062
:102480004FFB3720FFF76EFC04460CB12046E5E712
:102490004FF0FF30474908600820486030208860CE
:1024A0000220C8600020086101204861084600F051
:1024B000BDFA00203D490860332048604020886014
:1024C0000020C8604FF480600861084600F028FBD7
:1024D0003320FFF747FC04460CB12046BEE709E075
:1024E0004FF4001000F0CEFA20B100F013FB4DF8CD
:1024F0002600761C3048006840F22A610840002817
:10250000EED0082000F0BEFA30B108202A49091D9B
:10251000086004242046A1E7022000F0B3FA30B19D
:1025200002202549091D08600224204696E7202044
:1025300000F0A8FA30B120201F49091D08600624C8
:1025400020468BE74FF4007000F09CFA38B14FF44E
:1025500000701949091D0860072420467EE740F2F3
:10256000FF501549091D086000980006009901F404
:102570007F4140EA0120009901F47F0140EA1120E7
:10258000009940EA1160686001980006019901F421
:102590007F4140EA0120019901F47F0140EA1120C6
:1025A000019940EA11602860204657E7280C002076
:1025B000DC0000203C0C0020342C0140F0B50A4621
:1025C00000210023002400BF3DE0012505FA01F3AE
:1025D000156805EA03049C4234D105684F000326C0
:1025E000BE40B543056015794E00B54006683543D9
:1025F00005601579012D02D01579022D16D1856857
:102600004F000326BE40B543856055794E00B54066
:10261000866835438560456801268E40B543456030
:10262000456896798E40B6B235434560C5684F001F
:102630000326BE40B543C560D5794E00B540C66897
:102640003543C560491C1029BFD3F0BDF0B5002348
:1026500000244D07ED0E02FA05F3CE1000F120051F
:1026600055F826504E07F70E0F26BE40B543CF1043
:1026700000F1200646F82750CE1000F1200555F84D
:10268000265045EA0304CE1000F1200545F8264007
:10269000F0BD000070B5002100230F22C4781CB3E8
:1026A000174C246804F4E064C4F5E064C4F3072123
:1026B000C1F10404E3B20A4144789C40E1B2847859
:1026C000144021430C07210E0E4C05786155047807
:1026D00004F01F050124AC4005786D11AD0005F133
:1026E000E025C5F8004109E0047804F01F05012445
:1026F000AC40054D0678761145F8264070BD0000C7
:102700000CED00E000E400E080E100E0024901435C
:10271000024A1160704700000000FA050CED00E06D
:1027200029B1064A12680243044B1A6004E0034AC6
:1027300012688243014B1A60704700003038024033
:1027400029B1064A12680243044B1A6004E0034AA6
:1027500012688243014B1A60704700004038024003
:1027600029B1064A12680243044B1A6004E0034A86
:1027700012688243014B1A607047000044380240DF
:1027800029B1064A12680243044B1A6004E0034A66
:1027900012688243014B1A607047000024380240DF
:1027A0001448006840F001001249086000201149F7
:1027B000083108600F4800680F4908400D4908605B
:1027C0000E48091D08600E480A49843108600B480C
:1027D0001038091D08600748006820F4802005496A
:1027E0000860002003490C31086002498C31086000
:1027F0007047000000380240FFFFF6EA1030002466
:1028000000300020F0B5002100220024022500261F
:102810000223324F3F6807F00C0121B1042905D093
:10282000082937D105E02E4F076036E02D4F0760AD
:1028300033E02A4F3F1F3F68C7F38056274F3F1FA3
:102840003F6807F03F036EB1264FB7FBF3F7DFF8A1
:102850008CC0ACF1040CDCF800C0CCF3881C07FB86
:102860000CF40CE01E4FB7FBF3F7DFF870C0ACF1CF
:10287000040CDCF800C0CCF3881C07FB0CF4174FE9
:102880003F1F3F68C7F301477F1C7D00B4FBF5F78E
:10289000076002E0124F076000BF00BF0F4F3F68A4
:1028A00007F0F0010909104F7A5C0768D7404760CC
:1028B0000A4F3F6807F4E051890A0B4F7A5C47687A
:1028C000D7408760054F3F6807F46041490B064FCA
:1028D0007A5C4768D740C760F0BD00000838024006
:1028E0000024F40040787D01F10000207CB505460D
:1028F000002400200090019000F0E4F800F0007047
:1029000010B10E2420467CBD3D49098888B2694635
:10291000FFF786FD04460CB12046F4E7012D36D1C1
:10292000019800F4802000282ED03548008800044B
:102930003449086037204860402088600020C86023
:10294000A8020861084600F0EBF83720FFF70AFA02
:1029500004460CB12046D6E702202A49086006202A
:102960004860402088600020C8604FF480600861A3
:10297000084600F0D5F80620FFF7F4F904460CB13C
:102980002046C0E72046BEE725242046BBE7019845
:1029900000F4803078B31A480088000419490860B0
:1029A00037204860402088600020C8604FF4806075
:1029B0000861084600F0B4F83720FFF7D3F9044661
:1029C0000CB120469FE700200E49086006204860B1
:1029D000402088600020C8604FF48060086108468D
:1029E00000F09EF80620FFF7BDF904460CB1204622
:1029F00089E7204687E7FFE72524204683E7000094
:102A0000DC000020280C002001490860704700000D
:102A1000382C01400149086070470000A080254221
:102A200001490860704700008C85254200210B4B4E
:102A300002681A601B1D42681A601A1D116821F095
:102A4000F701D0E902231A4303691A4343691A4381
:102A50001143024A0832116070470000242C0140E3
:102A600010B50121C802FFF78BFE00214FF4006072
:102A7000FFF786FE10BD000001480068C0B2704735
:102A8000102C014001460020034A12680A400AB196
:102A9000012000E000207047342C01400146002056
:102AA000034A12680A400AB1012000E00020704782
:102AB000342C01400248006800F003007047000019
:102AC000002C014008B5014600200090024808444F
:102AD00000900098006808BD142C014010B500F06B
:102AE000EBFC10BD00210A4A116847F6FF629143D2
:102AF000027D83681A4343681A43C3681A43036814
:102B00001A4303691A431143014A116070470000D8
:102B1000042C01400148006870470000802C0140EF
:102B20000021094B02681A601A1D11686FF30A012F
:102B3000D0E901231A43C3681A4303691A431143B6
:102B4000014A121D11607047082C014001490860BC
:102B500070470000002C014008B50120009001F0F2
:102B6000CAF808B9002000909DF8000008BD0000D8
:102B700070B50446002521480068032802D12725A6
:102B8000284670BD1D48006838B11C4800680128FF
:102B900003D01A48006802282ED1B4F5805F02D114
:102BA00027252846EDE7B4F5006F14D10120FFF783
:102BB0009DFE054605BB01201149087500200860EF
:102BC000486088604FF40060C860002008610846D3
:102BD000FFF788FF10E00020FFF788FE05465DB98B
:102BE0000120074908750020086048608860C860B7
:102BF00008610846FFF776FF2846C2E7D8000020A4
:102C0000100C0020F0B5014600200022C04B1B78BC
:102C100081F85630BF4B1B88A1F85430BE4B1B685F
:102C20001A0E93090B70C2F383034B7002F0030377
:102C30008B70B94B1B68C3F30742CA70B64B1B8835
:102C4000C3F307220A71B44B1A784A715B681A0EF3
:102C50001301CB80B04B5B68C3F30742CB8843EAD8
:102C60001213CB8002F00F030B72AB4B9B88C3F3A4
:102C70000722D3094B72C2F380138B72C2F3401345
:102C8000CB72C2F300130B7300234B73A04B1B6872
:102C90001BB19F4B1B68012B4FD193071B0D0B6181
:102CA0009D4B1A790B6943EA82030B619A4B9B682F
:102CB0001A0E0B6943EA92130B61C2F3C2030B7540
:102CC00002F007034B75944B9B68C3F3074253090B
:102CD0008B75C2F38203CB7593075B0F0B768E4B1C
:102CE0001B89C3F307220B7E43EAD2130B760B69D1
:102CF0005B1C0024C1E912340B7ED1E912469B1CF7
:102D0000012505FA03F3DF17A4FB035C06FB03C3ED
:102D100004FB0733C1E912530C7A0123A3400B656E
:102D20000027D1E912560B6DA5FB034C06FB03C32C
:102D300005FB0733C1E9124336E0754B1B68022BD4
:102D400032D1754B1A7993069B0A0B61724B9B68C3
:102D50001A0E0B6943EA02230B616F4B9B68C3F3A6
:102D600007420B6913430B616B4B1B89C3F30722AB
:102D70000B6900245B1C44EB04074FF4007600252C
:102D8000A3FB064C07FB06C603FB05664FF48065F4
:102D90000027A4FB053C06FB05C504FB0754C1E95D
:102DA00012344FF400730B65C2F3801301F8193F1E
:102DB00093065B0E4B70584B1A7A4B7843EAD2134A
:102DC0004B7002F07F038B70534BDB681A0ED309F4
:102DD000CB70C2F341130B71C2F382034B719307A3
:102DE0001B0F8B714C4BDB68C3F307428B7943EAB3
:102DF00092138B71C2F34013CB7100230B7202F05C
:102E000001034B72444B9B89C3F30722D3098B7296
:102E1000C2F38013CB72C2F340130B73C2F30013DF
:102E20004B73C2F381038B7302F00303CB733A4BF2
:102E30001A7B53080B7401234B74384B1B681A0E12
:102E4000CA741939354B1B68C3F307421402CC8589
:102E5000324B1B88C3F30722CB8D1343CB852F4BFB
:102E60001A7814060C635B681A0E0B6B43EA024473
:102E70000C632A4B5B68C3F307420B6B43EA0224E3
:102E80000C63264B9B88C3F307220B6B13430B6326
:102E9000224B1A7934235A54204B9B681A0E35233F
:102EA0005A541E4B9B68C3F3074214068C631B4B9A
:102EB0001B89C3F307228B6B43EA02448C63174BD5
:102EC0001A7A8B6B43EA02248C63144BDB681A0E6C
:102ED0008B6B13438B63114BDB68C3F307423C23BB
:102EE0005B5C43EA12143C235C5413071C0DCC8733
:102EF0000A4B9B89C3F30722CB8F1343CB87074B26
:102F00001A7B540840235C54012441235C54F0BDD7
:102F1000D8000020DC000020880B0020980B002047
:102F200008B500200090FFF717FE012809D1684678
:102F300000F0B8FB08B1FF2008BD0098C0F34320A3
:102F4000FAE7FF20F8E710B50424FFF7E9FF04468D
:102F5000042C01D1002010BDFF2C01D10220FAE782
:102F60000120F8E708B500200090FFF779FD00F098
:102F7000BFF900909DF8000010B19DF8000008BD59
:102F800000F034F800909DF8000010B19DF80000AA
:102F9000F5E7012013490875002008604860886043
:102FA000C86008610846FFF79DFD0F48FFF72AFE3D
:102FB00000909DF8000040B90B48B0F8540002049E
:102FC0001046002100F052FB00909DF8000018B957
:102FD0000020FFF7CDFD00909DF800009DF8000057
:102FE000CDE70000100C0020B80B002038B50024FD
:102FF00001200090FFF75EFD10B92524204638BD62
:1030000043480068042828D0002042490860022074
:103010004860C02088600020C8604FF4806008616C
:103020000846FFF77DFDFEF739FF04460CB1204648
:10303000E5E70020FFF746FD374908600420FFF769
:1030400041FD354948600820FFF73CFD3249886062
:103050000C20FFF737FD3049C8602D48006858B193
:103060002B480068012807D029480068062803D0AB
:1030700027480068022816D100202649086003204E
:103080004860402088600020C8604FF4806008617C
:103090000846FFF745FD69460320FEF741FF044659
:1030A0000CB12046ABE71A48006804282ED0BDF8C2
:1030B00000001A490860BDF80000000415490860C6
:1030C00009204860C02088600020C8604FF48060FC
:1030D00008610846FFF724FDFEF7E0FE04460CB148
:1030E00020468CE70020FFF7EDFC0D490860042026
:1030F000FFF7E8FC0A4948600820FFF7E3FC0849AD
:1031000088600C20FFF7DEFC0549C860002076E7E8
:10311000D8000020280C0020980B0020DC000020A4
:10312000880B002030B58FB004460D464FF0FA51A1
:103130001E48FFF72BF800211C48FFF741F81B48F9
:10314000FFF74AF84FF00060009019480190029490
:103150000020039001200490002005904FF480602F
:1031600006908000079080000890002009904FF49E
:1031700040300A9004200B9003200C904FF4000084
:103180000D9080100E9069460848FFF71DF9012246
:1031900010210648FFF7FAF820210448FFF7C8F885
:1031A00001210248FFF70CF80FB030BD586402400F
:1031B000802C014030B58FB004460D464FF0FA51D7
:1031C0001E48FEF7E3FF00211C48FEF7F9FF1B48ED
:1031D000FFF702F84FF00060009019480190029448
:1031E0004020039001200490002005904FF480605F
:1031F0000690800007900020089009904FF440301E
:103200000A9004200B9001200C9000200D904FF4A8
:1032100000100E9069460948FFF7D6F801221021E8
:103220000648FFF7B3F820210448FFF781F8012191
:103230000248FEF7C5FF0FB030BD000058640240E1
:10324000802C014010B50020FFF7E4FB0020FFF7C1
:103250007DFCFFF705FC0D48006820F400600B4979
:1032600008604FF488510A4800F092FE02224FF4A1
:103270008851074800F057FF0421064800F088FEF7
:1032800002220421034800F04EFF10BD44380240E2
:1032900000080240000C02401CB50C200221012352
:1032A0000022CDE900104FF488510E4800F004FFD1
:1032B0000C20022101230022CDE9001004210A483C
:1032C00000F0FAFE0948006840F400600749086011
:1032D00006481438006840F4800004491439086036
:1032E0001CBD000000080240000C024044380240AF
:1032F000F8B5002000900025002400260027762045
:103300005F4908750020086048608860C8600861EF
:103310000846FFF7E7FB0320FFF718FC0120FFF743
:1033200079FB00205749086048608860C8604FF406
:10333000806008610846FFF7F3FBFEF7FBFC009096
:103340009DF8000010B19DF80000F8BD4FF4D57055
:103350004C49086008204860402088600020C86010
:103360004FF4806008610846FFF7DAFBFEF72AFE9B
:1033700000909DF8000020B90120434908608707AC
:1033800012E000203F4908603720486040208860F4
:103390000020C8604FF4806008610846FFF7C0FB5A
:1033A0003720FEF7DFFC0090002036490860372008
:1033B0004860402088600020C8604FF48060086149
:1033C0000846FFF7ADFB3720FEF7CCFC00909DF8D8
:1033D0000000002851D13BE000202A490860372036
:1033E0004860402088600020C8604FF48060086119
:1033F0000846FFF795FB3720FEF7B4FC00909DF8D8
:10340000000010B19DF800009FE7204838431D4997
:10341000086029204860402088600020C8604FF480
:10342000806008610846FFF77BFBFEF75DFD0090BA
:103430009DF8000010B19DF8000086E70020FFF71E
:1034400041FB0546012080EAD57080F00106641C2E
:103450001EB94FF6FF708442BED34FF6FF70844210
:1034600004D31B2000909DF800006EE705F080401B
:10347000051E02D00220044908609DF8000064E7A0
:10348000100C0020280C0020D80000200000108024
:1034900010B50748006800F0C05040B10120054950
:1034A00008604FF0C25102485830FEF76FFE10BD61
:1034B00000640240EC00002010B54FF48070FFF76C
:1034C000EDFA50B10020264908704FF48070FFF7E4
:1034D0009BFA01202349086037E00220FFF7DEFA5B
:1034E00030B10220FFF790FA02201D4908702CE04D
:1034F0000820FFF7D3FA30B10820FFF785FA04203F
:103500001749087021E02020FFF7C8FA30B12020C9
:10351000FFF77AFA06201249087016E01020FFF72C
:10352000BDFA30B11020FFF76FFA05200C49087082
:103530000BE04FF40070FFF7B1FA30B14FF40070B8
:10354000FFF762FA072006490870074800684CF246
:103550003A318843044908600148007810BD0000F2
:10356000E4000020E80000203C2C01402DE9F04759
:10357000814614461D46DDE90868002700203449CD
:10358000087034490860012033490860002033493D
:10359000086032481030006840F22A3108432F4951
:1035A0001031086008FB06F14846FFF7BBFD01201B
:1035B000FFF736FA2A480068022808D106020202FC
:1035C000002320462946FCF7C7FE04460D46254841
:1035D0000660102023494860402088600020C860B1
:1035E0004FF4806008610846FFF79AFA1020FEF752
:1035F000B9FB074617B13846BDE8F0874FF0FF30FA
:103600001949086008FB06F0486090208860022095
:10361000C86000200861012048610846FFF706FAEB
:103620001048046012200F49486040208860002044
:10363000C8604FF4806008610846FFF771FA1220F5
:10364000FEF790FB07460FB13846D5E73846D3E77B
:10365000E4000020E8000020E00000202C2C0140C5
:10366000D8000020280C00203C0C002070B5044637
:103670000D4600260A48046007200949486040209A
:1036800088600020C8604FF4806008610846FFF73A
:1036900047FA0720FEF766FB0646304670BD00007D
:1036A000280C002070B50446002514B926252846AC
:1036B00070BD0F48008800040E4908600D20486066
:1036C000402088600020C8604FF480600861084690
:1036D000FFF726FA0D20FEF745FB05460DB12846FB
:1036E000E6E70020FFF7EEF920602846E0E700005B
:1036F000DC000020280C002010B5002400200A491E
:1037000008600C204860402088600020C8604FF4AA
:10371000806008610846FFF703FA0C20FEF722FBE1
:103720000446204610BD0000280C002038B50024B7
:10373000601E009002E00098401E00901B48006848
:1037400040B91B48006828B91A48007810B9009899
:103750000028F0D1002015490860401E009002E0CA
:103760000098401E00901448006800F4005010B10A
:1037700000980028F4D111480068012805D1FFF70E
:10378000BBFF044600200D490860009808B904B941
:10379000042440F2FF500849091D086005480078DC
:1037A00010B10448007838BD2046FCE7EC0000204A
:1037B000E8000020E4000020342C0140E00000205C
:1037C00070B500256C1E00E0641E1948006838B909
:1037D0001848006820B91848007808B9002CF3D1BF
:1037E000002013490860441E00E0641E134800686E
:1037F00000F4805008B1002CF7D11148006801286E
:1038000005D1FFF779FF054600200D4908600CB986
:1038100005B9042540F2FF500849091D0860064813
:10382000007810B10448007870BD2846FCE700001D
:10383000EC000020E8000020E4000020342C0140CF
:10384000E00000202DE9F047814615461E46DDE9DF
:103850000878002400204B4908704B49086001207B
:103860004A49086000204A49086049481030006809
:1038700040F21A31084346491031086008FB07F14D
:103880004846FFF797FC0120FFF7CAF84148006857
:10389000022808D107020202002328463146FCF71D
:1038A0005BFD05460E463C48076010203A494860DB
:1038B000402088600020C8604FF48060086108469E
:1038C000FFF72EF91020FEF74DFA044614B12046FA
:1038D000BDE8F0873148008800042F490860372090
:1038E0004860402088600020C8604FF48060086114
:1038F0000846FFF715F93720FEF734FA04460CB1F5
:103900002046E5E72448C0F8008017202249486097
:10391000402088600020C8604FF48060086108463D
:10392000FFF7FEF81720FEF71DFA04460CB12046FB
:10393000CEE7194805601920174948604020886083
:103940000020C8604FF4806008610846FFF7E8F87F
:103950001920FEF707FA04460CB12046B8E74FF0ED
:10396000FF300F49086008FB07F04860902088602E
:103970000020C8600861012048610846FFF756F83A
:103980002046A5E7E4000020E8000020E000002039
:103990002C2C0140D8000020280C0020DC00002046
:1039A0003C0C00204FF0E020806902490968C0EB20
:1039B000016070470401002002480068401C014972
:1039C00008607047040100206FF07F404FF0E02155
:1039D000486107200861704770B50020002202236B
:1039E00000240221274D2D6805F00C0020B1042889
:1039F00006D0082834D107E0234D244E356033E04B
:103A0000234D224E35602FE01E4D2D1F2D68C5F32E
:103A100080541C4D2D1F2D6805F03F0154B11C4DE5
:103A2000B5FBF1F5174E361F3668C6F3881605FB51
:103A300006F209E0144DB5FBF1F5124E361F36685B
:103A4000C6F3881605FB06F20E4D2D1F2D68C5F333
:103A500001456D1C6B00B2FBF3F50C4E356003E0C5
:103A6000094D0A4E356000BF00BF064D2D68C5F3F5
:103A70000315084E705D054D2D68C540034E356039
:103A800070BD0000083802400024F4000C01002042
:103A900040787D01186D00081448006840F47000FB
:103AA000124908601248006840F00100104908609F
:103AB00000200F49083108600D4800680D49084092
:103AC0000B4908600C48091D0860081F006820F4B5
:103AD0008020091F0860002005490C3108604FF064
:103AE00000600249803908607047000088ED00E0FE
:103AF00000380240FFFFF6FE1030002408B5FEF744
:103B00004FFE002000903048006840F001002E4930
:103B100008600846006800F002000090084600684F
:103B200000F0020010B10120009001E000200090A0
:103B30000098012847D124484030006840F0805068
:103B40002149403108602148006840F440401F4945
:103B500008601D48083000681B49083108600846A5
:103B6000006840F4004008600846006840F4A05037
:103B7000086040F205701649086016481249091D90
:103B80000860081F006840F08070091F086000BFCF
:103B90000D48006800F000700028F9D00A4808308D
:103BA000006820F0030008490831086008460068F2
:103BB00040F00200086000BF03480830006800F0D1
:103BC0000C000828F8D108BD003802400070004001
:103BD000003C02400824000610B5FFF78FFF10BD1F
:103BE0003EB505460C4601211020FEF7A9FD6846AA
:103BF00000F078F80195ADF800400020ADF808001D
:103C0000ADF802006946064800F02AF82021044871
:103C100000F01CF80121024800F00CF83EBD000045
:103C20000010004010B542F20F7141F61F40FFF73F
:103C3000D7FF10BD21B1028842F00102028004E0EA
:103C400002884FF6FE731A400280704782884FF652
:103C50008F731A40828082880A43828070470000F6
:103C600000220288184B98420ED0184B98420BD075
:103C7000B0F1804F08D0164B984205D0154B9842B2
:103C800002D0154B984204D14FF68F731A404B88DF
:103C90001A43124B984207D0114B984204D04FF66A
:103CA000FF431A400B891A4302804B68C3620B889A
:103CB0000385054B984202D0044B984201D18B7A80
:103CC0000386012383827047000001400004014005
:103CD0000004004000080040000C004000100040BC
:103CE000001400404FF0FF3141600021018001814C
:103CF0004180817270470120704701207047012088
:103D0000704702460120704703460120704701209A
:103D1000704703460120704708B54FF4C060FEF7B6
:103D2000F5FC31208DF8000001208DF80100002005
:103D30008DF8020001208DF803006846FEF7AAFC0A
:103D40003B208DF8000001208DF801006846FEF749
:103D5000A1FCFFF777FAFFF79FFAFFF703F930B9F5
:103D60000F48007820F001000D49087005E00C486C
:103D7000007840F001000A490870FFF7BEFF30B933
:103D80000748007840F004000549087005E0044841
:103D9000007820F00400024908700148007808BD4E
:103DA000F000002002466AB1022A04D0032A06D09D
:103DB000042A09D107E04FF40070088004E02020B5
:103DC000086001E000BF00BF00BF00207047000096
:103DD0002DE9F041ADF5007D04460D4616464FF045
:103DE00000082448007800F0010020B103200DF500
:103DF000007DBDE8F08104F00300C8B1002710E0A9
:103E000029466D1C01226846FFF7E2FF074607B10D
:103E10000BE04FF4007269462046FCF75EFC04F5A7
:103E20000074301EA6F10106EAD100BF3846DEE775
:103E30004FF4007069020A460023CDE900062046CF
:103E4000FFF794FB8046B8F1000F11D1FFF76EFC2D
:103E5000804600BFFFF777F807460128FAD0022F07
:103E600002D0B8F1000F01D00120C0E70020BEE76A
:103E70000120BCE7F000002010B5FEF76DFE012820
:103E800001D0012010BDFFF738FF30B90748007896
:103E900040F004000549087005E00448007820F06F
:103EA00004000249087001480078EBE7F0000020A8
:103EB0002DE9F041ADF5007D04460D4616464FF064
:103EC0000008FFF71AFF20B902200DF5007DBDE8BC
:103ED000F081FEF741FE012801D00320F5E704F050
:103EE0000300C8B1002710E04FF400722146684675
:103EF000FCF7F3FB29466D1C01226846FFF7D8FF4B
:103F0000074607B105E004F50074301EA6F101066E
:103F1000EAD100BF3846D8E74FF4007069020A467C
:103F20000023CDE900062046FFF78CFC8046B8F15F
:103F3000000F11D1FFF744FC804600BFFFF703F8E4
:103F400007460128FAD0022F02D0B8F1000F01D0A5
:103F50000120BAE70020B8E70120B6E7012070474A
:103F60000246012070470346012070470120704738
:103F70000346012070470120704702460120704728
:103F80000346012070470120704703460120704717
:103F900070B503460C46184600F01EF8C5B2002264
:103FA00014E001209040204070B1186856000321B1
:103FB000B14008431860074830F8150001219140CE
:103FC0008843044921F81500501CC2B2102AE8DBCE
:103FD00070BD00006C0B002001464FF40030081A41
:103FE000C0F38F207047000000B502461046FFF76F
:103FF000F3FF012101FA00F0024909680843014971
:10400000086000BD303802402DE9F04304460E46FA
:104010001546DDE907892046FFF7DEFFC7B200221B
:1040200043E001209040304000B93CE0214830F8A6
:1040300017000121914008431E4921F81700E0684C
:104040004FEA420C032101FA0CF18843510008FAAF
:1040500001F10843E06020684FEA420C032101FAB5
:104060000CF18843510005FA01F108432060012D4D
:1040700001D0022D16D161680120904080B221EA62
:10408000000003FA02F189B208436060A0684FEAB9
:10409000420C032101FA0CF18843510009FA01F1A5
:1040A0000843A06000BF501CC2B2102AB9DBBDE8B3
:1040B000F08300006C0B00202DE9FC4705460E46FE
:1040C00017469846DDE90A9A0EB9BDE8FC872846EE
:1040D000FFF78AFF00241AE00120A040304000B919
:1040E00014E0E10805F1200050F821006107CA0E34
:1040F0000F21914088436107C90E0AFA01F1084374
:10410000E20805F1200141F8220000BF641C102CD8
:10411000E2D33B46022231462846CDE90089FFF72B
:1041200073FF00BFD1E770B50346002011E0012402
:1041300084400C4004B90AE0DC6846000325B54021
:10414000AC43450002FA05F52C43DC6000BF441C7B
:10415000E0B21028EBDB70BD00B587B00121084646
:10416000FEF7DEFA01211020FEF7FAFA07220921F4
:104170003448FEF76BFA07220A213248FEF766FA46
:1041800002208DF808008DF8090000208DF80A0043
:1041900001208DF80B004002019001A92948FEF78B
:1041A0000DFA4FF48060019001A92648FEF706FA47
:1041B00025208DF8000001208DF8030000208DF8E7
:1041C00001008DF802006846FEF764FA4FF4E13012
:1041D00003900020ADF81000ADF81200ADF8140007
:1041E000ADF818000C20ADF8160003A9164800F031
:1041F0006BF8012240F22551134800F040F80121EC
:10420000114800F023F8252000F01F020121914001
:104210004209920002F1E022C2F8001100BF4FF4FF
:10422000E070019001208DF8080003208DF809004E
:1042300000208DF80A0001A90248FEF7BFF907B077
:1042400000BD0000000002400010014021B1828941
:1042500042F40052828104E082894DF6FF731A40D5
:104260008281704702460020B1F5007F00D100BF77
:1042700013880B400BB1012000E000207047F0B51F
:104280000346002400260025002040F66A17B942A4
:1042900000D100BF1846C1F3421401F01F060127E8
:1042A00007FA06F5012C01D10C3004E0022C01D1F3
:1042B000103000E014301AB107682F43076002E0A5
:1042C0000768AF430760F0BD2DE9FF4705460E467E
:1042D0000024A14600BFA046B08900B100BF2C8ACF
:1042E00024F44054F08804432C82AC8941F20C60E1
:1042F0008443B08831890843718908430443AC8101
:10430000AC8A24F44074B0890443AC826846FEF75A
:1043100079FA2048854202D01F48854202D1DDF853
:104320000C9001E0DDF80890A88900F4004040B14D
:1043300009EBC90000EB091031684900B0FBF1F747
:1043400007E009EBC90000EB091031688900B0FBF8
:10435000F1F76420B7FBF0F004012009642101FBB0
:104360001078A88900F4004040B1322000EBC8006A
:10437000B0FBF1F000F00700044308E0322000EB4E
:1043800008106421B0FBF1F000F00F0004432C8111
:10439000BDE8FF870010014000140140C1F308028E
:1043A0008280704703B401984100009850EAC12010
:1043B00018BF04204A0D18BF40F0010040F2FF7200
:1043C000B2EB515F08BF40F00200012808BF052092
:1043D00002B0704770B504460D4600202071401EA3
:1043E00020632946204601F00DFF08B1032070BD6F
:1043F00094F8321294F8330241EA00204AF655212B
:10440000884201D00220F2E794F86D00010694F88A
:104410006C0041EA004194F86B0041EA002094F8F6
:104420006A10084320F07F400D49884201D10020E6
:10443000DDE794F88900010694F8880041EA00411C
:1044400094F8870041EA002094F88610084320F091
:104450007F400349884201D10020C8E70120C6E718
:1044600046415400024600E0521C107810B110780A
:104470008842F9D1107870470246891E9069801EE3
:10448000884201D8002070479378D06A01FB03006E
:10449000F9E700002DE9F04705460C46207820F0AA
:1044A0004000401E00EB800101EBC00600274FF0EA
:1044B000010800BF1A48C05D205C1949C95D21444C
:1044C000497840EA0129B8F1000F10D0484600F0C1
:1044D000D3FE8046FF2E07D23146761C35F81100F8
:1044E00000F0CAFE404508D00020BDE8F0874FF636
:1044F000FF70814501D00020F7E7781C07460D28A2
:10450000D8D3207800F0400038B1B8F1000F04D0C3
:1045100035F8160008B10020E7E70120E5E70000C4
:10452000F86700082DE9F04704468946B9F1000F05
:1045300006D1E76817B1A069B84215D8012713E082
:104540004946204601F084F90646022E02D2012097
:10455000BDE8F087701C08B93046F9E7A069B042A1
:1045600001D93046F4E74F463D4600BF6D1CA069B7
:10457000A84204D80225BD4201D90020E8E7294617
:10458000204601F065F9064606B909E0701C08B13D
:10459000012E01D13046DBE7BD42E7D10020D7E74D
:1045A00000BF6FF070422946204601F045FE80466C
:1045B000B8F1000F08D1B9F1000F05D02A464946DD
:1045C000204601F039FE8046B8F1000F0BD1E560BE
:1045D0002069401C78B12069401E2061607940F05C
:1045E0000100607107E0B8F1010F02D14FF0FF3018
:1045F00000E0012005462846AAE700002DE9F34F18
:1046000083B0814604980068019002E00198401C44
:104610000190019800782F28F8D0019800785C2844
:10462000F4D0D9F81C700025A84600BF404608F118
:10463000010801990C5C202C03DB2F2C01D05C2C91
:1046400000D11CE0FF2D03D3062005B0BDE8F08F9C
:10465000E4B20121204600F0E9FD04460CB9062031
:10466000F3E7802C06DA214684A0FFF7FBFE08B1B1
:104670000620EAE728466D1C27F81040D6E700BF61
:10468000019800EB080104980160202C01DA042055
:1046900000E000200646012D04D1681E37F8100006
:1046A0002E280BD0022D24D1681E37F810002E289A
:1046B0001FD1A81E37F810002E281AD1002027F885
:1046C000150083460AE0AB4501D22E2000E02020F1
:1046D000D9F8181001F80B000BF1010BBBF10B0F0F
:1046E000F1D346F02000D9F8181001F80B00002093
:1046F000ABE708E0681E37F81040202C02D02E2CC3
:1047000000D002E06D1E002DF4D100BF0DB90620CF
:104710009BE7002027F815000B222021D9F818006C
:1047200001F066FD4FF0000801E008F1010837F8DC
:1047300018002028F9D037F818002E28F5D0B8F145
:10474000000F01D046F0030600E06D1E25B1681E83
:1047500037F810002E28F8D14FF0000AD346082071
:10476000029000BF404608F1010837F8104004B934
:1047700054E0202C03D02E2C04D1A84502D046F0C2
:104780000306EFE70298834501D2A84516D10298A7
:104790000B2802D146F0030640E0A84501D046F0C0
:1047A0000306A84500D939E0A8464FF0080B0B20B6
:1047B00002904FEA8A604FEA106AD3E7802C0BDB45
:1047C0000021204600F032FD04461CB1A4F1800017
:1047D0002D490C5C46F0020600BF24B121462BA0F7
:1047E000FFF740FE18B15F2446F003060FE0412CAE
:1047F00004DB5A2C02DC4AF0020A08E0612C06DBDA
:104800007A2C04DC4AF0010AA4F1200084B2584654
:104810000BF1010BD9F818301C54A3E700BFD9F8ED
:1048200018000078E52803D10520D9F81810087081
:104830000298082803D14FEA8A604FEA106A0AF00A
:104840000C000C2803D00AF00300032801D146F025
:10485000020606F0020058B90AF00300012801D14F
:1048600046F010060AF00C00042801D146F00806B4
:10487000D9F81800C6720020E7E60000222A3A3C68
:104880003E3F7C7F00000000786700082B2C3B3DFA
:104890005B5D000010B5044604E04FF47A7000F050
:1048A00004F8641E002CF8D110BD00B50246FFF7D5
:1048B00079F802EBC20100EB011300BFFFF772F8B9
:1048C000181A0028FADC00BD2DE9F04104460E4616
:1048D0000021204600F0BDF90546EDB9002700BFD4
:1048E0002169206801F08EFC054605B113E060697E
:1048F0000078E52802D06069007820B9781C074666
:10490000B04201D107E000270121204600F07FF8E6
:104910000546002DE4D000BF042D00D10725284610
:10492000BDE8F0812DE9F04704460021204600F063
:1049300090F9074617B13846BDE8F0874FF0FF09F8
:10494000CA464FF6FF70208400BF2169206801F03D
:1049500059FC074607B157E065692E780EB9042760
:1049600052E0E87A00F03F08E52E05D008F0080094
:1049700040B1B8F10F0F05D04FF0FF094FF6FF70AF
:1049800020843AE0B8F10F0F1CD1E06978B306F04B
:10499000400030B195F80DA026F04006B146E08801
:1049A00020844E450AD1687B504507D12946E069ED
:1049B000FFF770FD10B1A9F1010000E0FF2000F049
:1049C000FF091AE0B9F1000F05D1284601F072FD88
:1049D000504500D118E0A069C07A00F0010038B954
:1049E0000B222846A16901F0E3FB08B90CE004E0C2
:1049F0004FF0FF094FF6FF7020840021204600F0A1
:104A000006F80746002FA0D000BF384694E72DE9EE
:104A1000F04104468846E088461CB0B208B12069DF
:104A200010B90420BDE8F08106F00F0000286BD11A
:104A30002069401C2061E06828B920680089B042E4
:104A400062D80420EEE720688078401E00EA161045
:104A5000002859D1E168206800F0FAFE0546012DD2
:104A600001D80220DEE7681C08B90120DAE72068D7
:104A70008069A84242D8B8F1000F01D10420D1E7E3
:104A8000E1682068FFF74EFD05460DB90720C9E72C
:104A9000012D01D10220C5E7681C08B90120C1E73A
:104AA000206801F07BFD08B10120BBE7216801F11E
:104AB00034004FF40072002101F09AFB294620686F
:104AC000FFF7DAFC2168086300270EE00120216867
:104AD0000871206801F062FD08B10120A2E720689A
:104AE000006B401C216808637F1C20688078B842F6
:104AF000ECD82068006BC01B21680863E56029467C
:104B00002068FFF7B9FC2061E6802068343006F0A9
:104B10000F0100EB41106061002083E72DE9FE4F9B
:104B20000446D4F81880D4F81C900C2241466846FC
:104B300001F051FB9DF80B0000F0200010B10620A1
:104B4000BDE8FE8F9DF80B0000F0010018B30020B7
:104B500088F80B00E06101260CE033464A466946BE
:104B6000404600F01BFE2046FFF7DCFE054605B17F
:104B700002E0761C642EF0D300BF642E01D1072022
:104B8000DEE7042D01D02846DAE79DF80B0088F80F
:104B90000B00C4F81C909DF80B0000F0020060B1FF
:104BA000002600E0761C39F816000028FAD106F13C
:104BB00019000D21B0FBF1F700E00127394620462E
:104BC000FFF782FE054645BB781E071E25D0E0880C
:104BD000C11B204600F03DF80546F5B9A06901F07B
:104BE00069FC824600BF2169206801F00BFB054685
:104BF00005B111E0FAB253466169E06900F024FDA5
:104C000001202168087100212046FFF700FF0546BA
:104C100015B9781E071EE6D100BFC5B92169206805
:104C200001F0F0FA054695B920220021606901F0F3
:104C3000DFFA0B22D4E9050101F0CDFAA069C07AB0
:104C400000F0180061690873012021680871284686
:104C500076E72DE9F04104460E46E680A568012D71
:104C600003D020688069A84202D80220BDE8F08104
:104C70002DB920680078032801D12068856A45B9DC
:104C800020680089B04201D80220EFE72068876AD7
:104C90001EE0206880784FEA001812E0294620685C
:104CA00000F0D6FD0546681C08B90120DEE7022D9C
:104CB00003D320688069A84201D80220D6E7A6EB7A
:104CC00008064645EAD229462068FFF7D5FB074685
:104CD000E5600FB90220C9E707EB161020612068D4
:104CE000343006F00F0100EB411060610020BDE799
:104CF00010B5044604EB8400064951F8200030B199
:104D000004EB8401034A52F82100804710BD0420BF
:104D1000FCE700002400002070B504460D4616464E
:104D200004EB8400074901EB8000806840B104EB8C
:104D3000840001EB8000314682682846904770BDB0
:104D40000420FCE7240000202DE9F04104460E4633
:104D500017461D4615B90420BDE8F08104EB840018
:104D6000084901EB8000006948B104EB840001EBC5
:104D700080002A463946036930469847ECE704200C
:104D8000EAE700002400002010B5044604EB84008C
:104D9000074901EB8000406838B104EB8401044A04
:104DA00002EB81014868804710BD0420FCE7000049
:104DB000240000202DE9F04104460E4617461D460A
:104DC00015B90420BDE8F08104EB8400084901EB2B
:104DD0008000C06848B104EB840001EB80002A46E3
:104DE0003946C36830469847ECE70420EAE70000FC
:104DF0002400002070B50546284600F0BEF90446A0
:104E000034B9284601F0F3FB04460CB900202860B1
:104E1000204670BDF7B582B016460398019001A8F0
:104E200000F094FD0546002D02DA0B2005B0F0BD20
:104E30000E4850F825400CB100202070029810B1A7
:104E40000020029908700949029841F8250002984B
:104E500008B1012E01D00020E8E7002203A902A832
:104E600000F026FA07463846E0E70000480B00202D
:104E70002DE9F743ADF50E7D0546164625B9092007
:104E80000DF5117DBDE8F0830020286006F01F06B7
:104E900026F001028FA984A800F00AFA0746002F25
:104EA0007ED181A88A9001A88B9084A88F9900F068
:104EB0000BFC0746899C0FB904B9062706F01C00B5
:104EC000002851D04FB1042F03D184A8FFF726FE4C
:104ED000074646F00806899C09E0E07A00F01100D8
:104EE00008B1072703E006F0040000B10827002FEF
:104EF00049D106F00800002845D000F023FD804687
:104F000084F80E804FEA1821E1734FEA18412174AA
:104F10004FEA186161740020E07220770021617708
:104F2000A177E1772146849800F070FD8146002149
:104F3000204601F0B7FA012084990871B9F1000FF9
:104F400021D08498D0F830804946849801F015FA31
:104F50000746C7B9A9F101008499C8604146849801
:104F600001F050F907460EE06FB9E07A00F010004A
:104F700008B1042707E006F0020020B1E07A00F053
:104F8000010000B1072747B906F0080008B146F054
:104F900020068498006BE8612C620FB9AE7100E0C6
:104FA00019E00020E8712146849800F02FFD286167
:104FB000E07F0106A07F41EA0041607F41EA0020D6
:104FC000217F0843E8600020A860A86184982860D9
:104FD0002868C088A880384652E72DE9FF4F83B083
:104FE000044615469A46DDF810B00020CAF80000C5
:104FF000204601F0FCFA0290029818B1029807B01E
:10500000BDE8F08FE07908B1E079F8E7A07900F029
:10501000010008B90720F2E7D4E90210401A009015
:105020000098854200D9009DA2E02089C0F30800C5
:1050300000287ED120688078401EA16800EA5120B7
:1050400000F0FF09B9F1000F17D1A06810B920696D
:10505000019004E06169206800F0FAFB019001987A
:10506000022802D20220E071C9E70198401C10B961
:105070000120E071C3E70198606161692068FFF772
:10508000FBF9064616B90220E071B8E74E444FEA34
:105090005528B8F1000F29D009EB0800216889785C
:1050A000884203D920688078A0EB090821684878F5
:1050B000434632465946FFF747FE10B10120E071E2
:1050C0009DE7A07900F0400068B1A069801B4045D1
:1050D00009D2A169891B0BEB41204FF4007204F146
:1050E000240101F078F84FEA482737E0A069B04280
:1050F00020D0A07900F0400078B1216848780123E1
:1051000004F12401A269FFF755FE10B10120E071FE
:1051100075E7A07920F04000A0712168487801234C
:10512000324604F12401FFF70FFE18B10120E071AF
:1051300065E700E0A6612089C0F30800C0F50077AC
:10514000AF4200D92F462089C0F3080204F12400A1
:1051500011183A46584601F03EF800BFBB44A0681B
:105160003844A060DAF800003844CAF80000ED1BAB
:10517000002D7FF45AAF002041E72DE9F0410446AD
:10518000204601F034FA0746002F4CD1A07900F0F8
:105190002000002847D0A07900F0400078B12168B5
:1051A0004878012304F12401A269FFF703FE10B13E
:1051B0000120BDE8F081A07920F04000A071E169F4
:1051C000206801F01FF80746002F2CD1256AE87AE5
:1051D00040F02000E872207B2877A089010A6977D7
:1051E000E068010CA977E068010EE977284621699B
:1051F00001F058F900F0A6FB0646AE75310AE975D4
:10520000310C2976310E69760020A8740021E974EA
:10521000A07920F02000A071012021680871206889
:1052200001F058F907463846C3E7000010B50246BA
:10523000802A01DA10461BE051B1FF2A01DD00236C
:1052400004E0A2F180030B4C34F8133018460FE051
:10525000002007E0074B33F81030934200D103E001
:10526000431C98B28028F5DB00BF00F18003D8B260
:1052700010BD0000586800080246002100E0491CEB
:10528000094830F8110020B1074830F81100904269
:10529000F5D1054830F8110018B1044830F8110074
:1052A00070471046FCE7000058690008386B00089A
:1052B0002DE9F74F8AB000210A9801600B9800F0A1
:1052C00045FB09900998002803DA0B200DB0BDE8D2
:1052D000F08FD949099851F820400CB90C20F5E716
:1052E0000A980460207878B16078FFF74DFD814618
:1052F00009F0010040B90C9820B109F0040008B190
:105300000A20E3E70020E1E70020207009986070A0
:105310006078FFF7EDFC814609F0010008B1032039
:10532000D4E70C9820B109F0040008B10A20CDE7B9
:10533000002739462046FFF74DF80546012D01D0DC
:105340009DBB32E000261AE004F5F97000EB061868
:1053500098F8040070B198F80B00010698F80A005C
:1053600041EA004198F8090041EA002098F8081045
:10537000084300E0002002A941F82600761C042E14
:10538000E2D3002606B1761E00BF02A850F82670B0
:1053900027B139462046FFF71DF800E002200546F8
:1053A0001DB1701C06460428EFD3032D01D1012046
:1053B0008CE70DB10D2089E73F20015D94F8400096
:1053C00041EA0020B0F5007F01D00D207EE74A20A1
:1053D000015D94F84B0041EA002ABAF1000F0ED1AA
:1053E00094F85B00010694F85A0041EA004194F8F1
:1053F000590041EA002094F8581040EA010AC4F824
:105400001CA04420005DE070E078012804D0E07822
:10541000022801D00D2059E7E0780AFB00FA41206C
:10542000005DA070A07818B1A078411E084008B1B6
:105430000D204BE74520015D94F8460041EA00202D
:105440002081207A00F00F0008B10D203EE74720B0
:10545000015D94F8480041EA00200890089870B96E
:1054600094F85700010694F8560041EA004194F878
:10547000550041EA002094F8541008430890422057
:10548000015D94F8430041EA00200190019808B9B9
:105490000D201BE701985044218900EB1110079063
:1054A000DDE90701814201D20D200FE7DDE9071098
:1054B000401AA178B0FBF1FBBBF1000F01D10D2028
:1054C00004E7012540F6F670834500D302254FF628
:1054D000F670834500D303250BF10200A06127621B
:1054E00001983844606207983844E062032D16D171
:1054F000208908B10D20E9E694F86300010694F8CC
:10550000620041EA004194F8610041EA002094F809
:1055100060100843A062A0698000069014E0208912
:1055200008B90D20D2E6606A5044A062022D02D173
:10553000A069400007E0207E00F00100A16901EBB6
:10554000410100EB51000690E169069800F2FF105E
:10555000B1EB502F01D20D20B8E64FF0FF302061A3
:10556000E06080206071032D5AD194F8641094F8A3
:10557000650041EA0020012852D1791C204600F044
:1055800041FEE8BB0020607194F8321294F83302B7
:1055900041EA00204AF65521884241D13720005D7A
:1055A00001063620005D41EA00413520005D41EAF8
:1055B000002094F8341008432049884230D194F8F0
:1055C0001B02010694F81A0241EA004194F81902FC
:1055D00041EA002094F818120843194988421FD163
:1055E00094F81F02010694F81E0241EA004194F863
:1055F0001D0241EA002094F81C120843206100E0DB
:105600000EE094F82302010694F8220241EA0041D8
:1056100094F8210241EA002094F820120843E06047
:10562000257008480088401C80B206490880E08048
:105630000020606100BF49E6480B002052526141E2
:105640007272416120000020F0B504461D464D7382
:105650000F27CF7200270F738F76BC4681F81BC0CF
:10566000571E07EB870C0CEBC706002738463B4656
:1056700000BF4FF6FF77B84203D03746761C34F8A8
:105680001700DFF840C01CF803C001F80C00071237
:10569000DFF830C01CF803C08C448CF8017008B9E6
:1056A0004FF6FF705F1C3B460D2FE2D34FF6FF779E
:1056B000B84202D034F816700FB942F040020A70B6
:1056C000F0BD0000F86700082DE9F3410446019899
:1056D00000782F2803D0019800785C2805D1019824
:1056E000401C01900020A06002E020684069A0609A
:1056F00001980078202807D200212046FFF7A9FA58
:1057000005460020606133E000BF01A92046FEF796
:1057100075FF054605B12AE02046FFF703F9054667
:10572000A069C67A95B1042D0FD106F0200040B1D2
:105730000020A060606106F0040000B9E5E70025E4
:1057400003E006F0040000B9052510E006F00400AF
:1057500000B10CE06769F87A00F0100008B905257F
:1057600005E03946206800F051F9A060CDE700BFA0
:105770002846BDE8FC81000070B504460D46A1B284
:105780000548FEF70BFE00BF80210348FEF76AFDC7
:105790000028F9D0204670BD001001402DE9FF4FD0
:1057A00083B0814690461D460B224846049900F07E
:1057B00012FD052D18D92F4611E038F802BB002440
:1057C0000BE0584667F35F0007464FEA6B0B07F4A0
:1057D000803008B11D484740641C102CF1D3B8F844
:1057E00000000028E9D13D46072400BF05F00F0066
:1057F00000F1300ABAF1390F03DD0AF1070000F0B9
:10580000FF0A2046641E01A901F800A02D09002D01
:10581000ECD17E200855002600E0761CA64203D27B
:1058200019F806002028F8D100BF082C04D2204621
:10583000641C01A9085C00E020203146761C09F8B0
:105840000100082EF1D307B0BDE8F08F2110010050
:105850002DE9F04705460C46022C02D3A869A04268
:1058600002D84FF0010969E04FF0FF39287801288C
:1058700004D002282ED003285CD13FE0274607EB56
:105880005707686A00EB5721284600F0BBFC00B1BF
:1058900053E038467F1CC0F3080105F1340010F8CE
:1058A0000180686A00EB5721284600F0ABFC00B18C
:1058B00043E0C7F3080105F13400405C48EA0028E2
:1058C00004F0010010B14FEA181001E0C8F30B001A
:1058D000814632E0686A00EB1421284600F092FC11
:1058E00000B12AE040F2FF1000EA440105F1340063
:1058F0000E183078717840EA01291EE0686A00EBE2
:10590000D411284600F07EFC00B116E040F2FF10F2
:1059100000EA840105F134000E18F0780006B17831
:1059200040EA0140717840EA01203178084320F0D4
:10593000704902E04FF0010900BF00BF4846BDE8D2
:10594000F0870000004870470000FC422DE9F0415C
:1059500003464FF0FF30D3F800C0BCF1000F4ED02B
:10596000196800E0491C91F800C0BCF1200F04D375
:1059700091F800C0BCF13A0FF4D191F800C0BCF12D
:105980003A0F38D11C6814F801CBACF130020A2A66
:105990000AD28C4208D1092A2BD2104601F1010CFF
:1059A0006146C3F800C024E00022491C00BFDFF8B4
:1059B00054C05CF822701C6800BF17F8015B14F833
:1059C000016B612E05DB7A2E03DCA6F1200C0CF0B6
:1059D000FF060DB1B542F0D00DB98C4205D002F1F1
:1059E000010C6246BCF1090FE1D3092A01D210462D
:1059F0001960BDE8F081DFF810C09CF8000000BF1E
:105A0000F7E70000086800082200002010B50246F1
:105A10008C7ECB7E44EA03201378032B05D10C7DCA
:105A20004B7D44EA032340EA034010BD2DED048B77
:105A300088B0FEF7D1F8FDF7CFFFFDF7C5FFFEF701
:105A40008BFB4FF00009FEF7EDF8FCF71FFBFD485C
:105A5000FCF7DEFAFCF7C8F80122FBA1FB48FFF7D0
:105A6000D9F9002878D10122F9A1FC48FFF700FA02
:105A7000002872D1FA4B0422FA49F848FFF7ADFA30
:105A80008146F849F8A0FAF7DFFCF54B0422F94902
:105A9000F248FFF7A2FA8146F648C0780090F54830
:105AA000837842780178F4A0FAF7CEFCF1480078C8
:105AB000F049497840EA0120EE49897840EA0140FE
:105AC000EC49C97840EA0160E64948600846406808
:105AD000820A08464168ECA0FAF7B6FCE04B0422C3
