:020000040800F2
:10000000E83600206D02000875020008770200083B
:10001000790200087B0200087D0200080000000051
:100020000000000000000000000000007F02000847
:100030008102000800000000830200088D450008CE
:10004000870200088702000887020008870200086C
:10005000870200088702000887020008870200085C
:1000600087020008052300082D23000887020008E6
:10007000870200088702000887020008870200083C
:10008000870200088702000887020008870200082C
:10009000870200088702000887020008870200081C
:1000A000870200088702000887020008870200080C
:1000B00087020008870200088702000887020008FC
:1000C00087020008870200088702000887020008EC
:1000D00087020008870200088702000887020008DC
:1000E00087020008870200088702000887020008CC
:1000F00087020008870200088702000887020008BC
:10010000870200087136000887020008870200088D
:10011000870200088702000887020008870200089B
:10012000870200088702000887020008692000088B
:10013000870200088702000887020008870200087B
:10014000870200088702000887020008870200086B
:10015000870200088702000887020008870200085B
:10016000870200088702000887020008870200084B
:1001700087020008870200088702000800000000CC
:10018000870200088702000800F002F800F05FF81C
:100190000AA090E8000C82448344AAF10107DA45E2
:1001A00001D100F054F8AFF2090EBAE80F0013F0D5
:1001B000010F18BFFB1A43F001031847107B000022
:1001C000307B0000103A24BF78C878C1FAD85207B3
:1001D00024BF30C830C144BF04680C6070470000C1
:1001E0000023002400250026103A28BF78C1FBD840
:1001F000520728BF30C148BF0B607047662907F01F
:100200000782642900F09081752900F08D8178299A
:1002100000F0C681732900F0A886002070471FB542
:1002200007F0F1F99DE8030000F0D4FB00F04CFF6B
:1002300004000020002107F059F9401C60600020F4
:10024000002107F03DF9E0601FBD10B510BD01F0C1
:10025000A9F81146FFF7E3FF06F002FD01F0D5F81B
:1002600003B4FFF7F2FF03BC01F006F90948804729
:1002700009480047FEE7FEE7FEE7FEE7FEE7FEE788
:10028000FEE7FEE7FEE7FEE704480549054A064BA0
:10029000704700006D46000889010008E81400203E
:1002A000E8360020E8160020E816002070B5064663
:1002B00000F070FB056806F10B0020F00704B44263
:1002C0009CBF002070BD2B466A68BAB11068A0427E
:1002D00010D304F1080188423CBF5068586007D32E
:1002E0005168101941601168091B01605860146061
:1002F000101D70BD13465268002AE7D121462846DA
:1003000000F054FB0028DED170BD70B50446051F17
:1003100000F040FB0068002C14BF446870BD002C46
:1003200018BFAC423CBF20466468F8D301680A1885
:10033000AA4218BF456003D12A68054611440160EE
:1003400028684119A1421CBF6C6070BD616869607A
:1003500021680844286070BD53EA020C00F06980EF
:100360002DE9F04B4FF00006002B1FBFB3FA83F5C9
:1003700003FA05F424FA05F65E4012BF1643B2FAFA
:1003800082F502FA05F4C5F120051EBF22FA05FC2C
:1003900044EA0C04203556EA044C4FEA144418BFD2
:1003A000641C4FF000084FF00009904271EB030C01
:1003B00039D3002919BFB1FA81F701FA07F6B0FA6B
:1003C00080F700FA07F6C7F120071EBF20FA07FCE6
:1003D00046EA0C062037B6FBF4FCA7EB0507103FF6
:1003E00007F01F0BCBF120060CFA0BFB2CFA06F6DC
:1003F00044BFB3460026202FA4BF5E464FF0000B3B
:100400005BEA060C08BF4FF0010B19EB0B09ABFBC5
:10041000027C48EB0608C01B06FB02CC0BFB03CC9E
:1004200071EB0C01C1E70B46024641464846BDE868
:10043000F08B13B54FF000004FF00001AFF30080D8
:10044000BDE81C40704700000FB4044910B503AA72
:10045000029800F08FFD10BC5DF814FB0C01002029
:100460000FB41CB5074B06AA7B446946009005985B
:1004700000F051FD0020694600F060FD1CBC5DF8F5
:1004800014FB0000D10A000070B5044685690068BD
:10049000C10601D5302600E02026C00707D070BD78
:1004A000D4E9012130469047206A401C20626D1E2D
:1004B000F6D570BD70B5044685690078C00707D1D0
:1004C00070BDD4E9012120209047206A401C2062A1
:1004D0006D1EF6D570BD70B50C460546012A05D0D7
:1004E0002878800600D5EA69002302E0012305E0B0
:1004F0005B1C934202D2E05C0028F9D1A869E6189F
:10050000C01AA861286A184428622846FFF7BCFF71
:1005100004E0D5E9012114F8010B9047B442F8D367
:100520002846FFF7C7FF70BD2DE9F04106460024BD
:1005300010687529314616A510D0AFF30080002849
:1005400002DA404213A507E031688A0701D512A5F7
:1005500002E0490704D511A5012401E0AFF30080B2
:1005600000210A2206F1240709E0B0FBF2FCB0FBEF
:10057000F2F302FB1C00303078541846491C002866
:10058000F3D123462A463046BDE8F04100F058BA80
:10059000000000002D0000002B00000020000000E3
:1005A00070B504460D4621461068AFF300802188DF
:1005B000090502D50F4A7A4402E00E4A7A440E3207
:1005C000002104F1240305E000F00F060009965D08
:1005D0005E54491C0028F7D120780023000704D579
:1005E000702D02D009B1022311322046BDE87040BF
:1005F00000F026BA127600002DE9F0474FF0000A0D
:1006000089460446C0F820A02046E16888470028B3
:1006100076D0252806D0D4E901219047206A401CD5
:100620002062F1E7E168204600268847C4F81CA054
:1006300005460027C4F818A02A2D09D0284604F042
:10064000B3FC38B304EB8708303DC8F8185019E004
:1006500059F8041B204604EB87029161E168884742
:10066000012F054618D1E069002820DA26F020067F
:100670001DE0D8F8180000EB800005EB4000303892
:10068000C8F818002046E1688847054604F08CFC4D
:100690000028EED1012F0AD02E2D08D12046E16886
:1006A00088477F1C0546022F46F02006C4DBA06960
:1006B000002803DA404246F00106A061F00701D0AD
:1006C00026F010066C2D0AD0682D08D04C2D39D09C
:1006D0006A2D35D0742D35D07A2D33D016E0E168EF
:1006E0002F4620468847B84205460AD16C2F27D0AE
:1006F0004FF48060E168064320468847054605E0E0
:1007000027E06C2F1AD04FF4807006430DB3A5F18B
:100710004100192802D8203546F400664A46294689
:10072000204626604E46FFF769FD80B101280BD0B8
:10073000F61D26F0070000F1080965E74020E4E710
:100740008020D7E70020D5E706F104095CE72846BA
:1007500061E7206ABDE8F08770B5064600F01EF933
:100760000468054630460A22002100F015FC2C6082
:1007700070BD401ECAB210F8011F8A4202D0002983
:10078000F9D10020704740EA0103024630B59B07CB
:1007900010D14FF0013400E008C208C91D1B9D4371
:1007A00015EAC41FF8D013F0FF0102F8011B0DD0A9
:1007B0001B0AF8E711F8013B002B02F8013B05D0BA
:1007C00011F8013B002B02F8013BF3D130BD032AA5
:1007D00040F2308010F0030C00F0158011F8013B5E
:1007E000BCF1020F624498BF11F801CB00F8013B45
:1007F00038BF11F8013BA2F1040298BF00F801CB09
:1008000038BF00F8013B11F0030300F0FD83083A04
:10081000C0F0088051F8043B083A51F804CBA0E836
:100820000810F5E7121D5CBF51F8043B40F8043B8B
:10083000AFF30080D20724BF11F8013B11F801CBC0
:1008400048BF11F8012B24BF00F8013B00F801CB91
:1008500048BF00F8012B704702F0FF0343EA032270
:1008600042EA024200F004BC4FF0000200B5134619
:1008700094469646203922BFA0E80C50A0E80C50C0
:10088000B1F12001BFF4F7AF090728BFA0E80C5071
:1008900048BF0CC05DF804EB890028BF40F8042B6A
:1008A00008BF704748BF20F8022B11F0804F18BFD7
:1008B00000F8012B704710B5044610F0030F08BF75
:1008C00011F0030F40F015804FF0013E121FC0F2EF
:1008D0000E8051F8043BA3EB0E0C2CEA030C1CEA2F
:1008E000CE1C08BF40F8043BF0D0A1F1040102F196
:1008F0000402521E08DB11F8013B002B00F8013BFB
:10090000F7D1114600F0B2FB204610BD4FF0013C7C
:1009100050F8042B51F8043B9A4221D1A2EB0C036E
:10092000934313EACC1317D150F8042B51F8043B2E
:100930009A4215D1A2EB0C03934313EACC130BD1CB
:1009400050F8042B51F8043B9A4209D1A2EB0C0356
:10095000934313EACC13DBD04FF00000704700BF85
:10096000D01A01BAB1FA81F101F0180122FA01F0AE
:10097000CB40C1F12001DBB2C0B2C01A2CFA01F3A6
:10098000D11A914311EAC311E6D1704770477047FD
:1009900070470000004870479014002000487047DE
:1009A00088140020704770477047704738B5044678
:1009B0000A4600206946AFF30080002808BF38BD12
:1009C00002460099204600F083FB012038BD01203B
:1009D00000F0E0BCF8B5AFF30080054600200C46FF
:1009E000102000BF0646A819A0420DD9324669461C
:1009F0000020AFF30080070008BF00F0CBFC009898
:100A0000A04218BF0546C419FFF7C4FF056007469A
:100A1000F01D20F007004619284600F00AF8B442FD
:100A200008BFF8BDA21B31463868BDE8F84000F0A9
:100A30004FBB00210160C0E90110704710207047D2
:100A40002DE9F0470D4699469246044600F12408E8
:100A50000168880604D5E06921F01001216000E0FA
:100A60000120A84201DD471B00E00027A1697A1997
:100A700002EB0900081AA0612078C00602D42046C3
:100A8000FFF702FD002608E0D4E901211AF806006C
:100A90009047206A401C761C20624E45F4DB20788B
:100AA000C0060AD52046FFF7EFFC06E0D4E9012195
:100AB00030209047206A401C2062381EA7F10107B1
:100AC000F4DC07E0D4E9012118F805009047206A1A
:100AD000401C2062281EA5F10105F3DC2046FFF72B
:100AE000E9FC2078000602D50220BDE8F08701204D
:100AF000FBE770472DE9FF4F0C461E464FF0FF37CE
:100B00008BB0D2E90001DDF860800A908A46C1F31B
:100B10000A5505B93D46002108464FF00000BAF1DC
:100B2000000F00F4400005DA00EB80004FF44001B4
:100B300001EA50004FEA9059B9F1010F00DDB946C2
:100B40000A9850EA4A000ED044F61050A5F2FF353C
:100B500045432F14B8F1000F1ED07542291E1EDD2B
:100B6000C9F100021CE0B8F1010F4FF0000001D004
:100B7000302103E0F24305E02154401CB042FBDB8E
:100B800030460022002121540B99C1F80880C1E9A8
:100B900000200FB0BDE8F08FBD1B6D1CDEE74A469C
:100BA00000DA694206A800F083FB06AB93E8070071
:100BB00003AB83E8070050460A9900F083FC8DE8F8
:100BC0000700A0F500501F3800900398002D09DDA4
:100BD00042F21F014A46084403A90390684600F008
:100BE000E2FE08E0A0F500504A461F3803A9039032
:100BF000684600F0ECFE8DE807000004000C03D00E
:100C00004FF0FF30410800E01046B8F1000F03D06C
:100C10000022009215461EE0751E05D400F072FAFF
:100C2000303262556D1EF9D5B3460122084302D019
:100C300000227F1C04E02078302801D100227F1E92
:100C4000002A099786D01DE0112D07DA00F05AFA24
:100C5000303262556D1C50EA0102F5D1084302D0D2
:100C60000098C8B10EE00021681E05E0235C625CBC
:100C700063542254401E491C8142F7DBAB46A81B3B
:100C8000401E0990002004F80B000B98099AC0F848
:100C90000880C0E9002B7CE711264FF0000859E7D7
:100CA0002DE9F04F88460446D21D22F0070191B08D
:100CB000D1E90001CDE90A0104F05EF902460B9882
:100CC000C00F01D02D2007E02068810701D52B201F
:100CD00002E0202101EAC000032A099001D0072A7E
:100CE00005DB03464146204600F052FA0BE120782E
:100CF000800601D5E06900E00620B8F1650F814665
:100D000006D0B8F1660F18D0B8F1670F70D131E096
:100D10000020B9F1110F009001DB112301E009F16E
:100D200001030AAA01A90CA8FFF7E4FEDDE90C7093
:100D3000002609F10105834647E001204B4600905B
:100D40004FF000470AAA01A90CA8FFF7D3FEDDE97E
:100D50000DB00C995D46002610B909F101000D187F
:100D6000B9EB050003D4C0F1FF3609F10105A5EB8D
:100D700009002BE0B9F1010F01DA4FF00109002061
:100D8000B9F1110F0090484601DD112300E0034640
:100D90000AAA01A90CA8FFF7ADFEDDE90C704D46CB
:100DA00000268346207800070AD4AB4500DA5D466A
:100DB00001A8012D04DD411911F8011C302907D0CB
:100DC0004F4502DA17F1040F04DA012082460FE0E2
:100DD0006D1EEEE7002F02DCED1B3E4403E0781CA5
:100DE000A84200DD7D1CB81B00F1010A4FF000474E
:100DF0002078000703D4AA4501DB4FF0FF3A002119
:100E0000B7F1004F0DF143088DF8431024D00220B4
:100E10002B23002F01DA7F422D230A21021EA0F18D
:100E2000010000DC5FB197FBF1FC97FBF1F201FBE5
:100E30001C7C17460CF1300C08F801CDEEE7A8F148
:100E4000010003702188090501D5452100E06521D5
:100E5000A0F1010800F8011C09980FA9A1EB0807EF
:100E6000FF1D00B10120411901EBEA70A16938446E
:100E7000081A401EA0612078C00602D42046FFF761
:100E800003FB099828B1D4E901219047206A401C4E
:100E900020622078C00622D52046FFF7F5FA1EE032
:100EA000002E04DBB34502DD01A8805D00E03020A8
:100EB000D4E901219047206A401C2062761CAAF1E7
:100EC00001005FEA000A0AD100F0FEF8C06801687C
:100ED000405CD4E901219047206A401C2062281E12
:100EE000A5F10105DCDC07E0D4E9012118F8010BCC
:100EF0009047206A401C2062381EA7F10107F3DCEE
:100F00002046FFF7D7FA032011B043E601694A1CD7
:100F100002610878704700B58FB0CDE9013100213A
:100F2000059105497944CDE9031011466846FFF75C
:100F300063FB0FB000BD0000E5FFFFFF0A6802F889
:100F4000010B0A60704710B5436913B1AFF300801D
:100F500001E0FFF7C0FA012010BD127800F1240172
:100F60000A7000224A700122EDE711684FF0FF324B
:100F7000E9E70000074B70B50D467B44FFF7CBFF58
:100F80000446284600F002FA10B14FF0FF3070BD61
:100F9000204670BD035900002DE9F04791460F46E9
:100FA00080460446002614F8015B2DB100F084F859
:100FB0000068405DC007F6D12B2D02D02D2D18D032
:100FC000641E4A463946204600F022F927B13968A6
:100FD000A14201D1C7F800804FF0020471050BD582
:100FE0004042002803DDFFF7D9FC0460A007BDE8FC
:100FF000F08746F48066E4E70028F8DAFFF7CEFCD5
:1010000004606FF00040F2E710B5203AC0F00B80AA
:10101000B1E81850203AA0E81850B1E81850A0E8FC
:101020001850BFF4F5AF5FEA027C24BFB1E8185056
:10103000A0E8185044BF18C918C0BDE810405FEAC6
:10104000827C24BF51F8043B40F8043B08BF704742
:10105000D20728BF31F8023B48BF11F8012B28BF47
:1010600020F8023B48BF00F8012B70474FF0000208
:101070000429C0F0128010F0030C3FF4F7ABCCF160
:10108000040CBCF1020F18BF00F8012BA8BF20F818
:10109000022BA1EB0C01FFF7E9BB5FEAC17C24BF87
:1010A00000F8012B00F8012B48BF00F8012B704716
:1010B000004870478814002010B500F005F8001DA6
:1010C00010BD00BF2964000000487047A81400202C
:1010D000034640688C46002818BF88423CBF034640
:1010E0004068F8D318681844884207D00CF1030010
:1010F00020F00700001D411A521A0146081D0A601F
:10110000FFF703B930B5B0F10A024FEA900E71F162
:1011100000034EEA817EB0EB0E0061EB91014FEAD5
:10112000101E4EEA017E10EB0E0041EB11114FEA4A
:10113000102E4EEA016E10EB0E0041EB11214FEA2A
:10114000104E4EEA014E10EB0E0041EB11414018DB
:1011500041F100014FEAD00040EA41704FEAD1016D
:1011600010EB80054FEA810444EA907444EB0104DB
:101170006D1944EB0404521BA3414FF0000348BF18
:101180000A3200D530BD401C41F1000130BD0000E5
:101190002DE9F0411F46044603260168072A01F4A1
:1011A000006004DB08B116A505E016A503E008B150
:1011B00015A500E015A521F010002060A069C01E53
:1011C000A0610FB1401EA0612046FFF75DF94FB14D
:1011D000D4E9012138469047206A401C2062C01C97
:1011E000206206E0206AFAE7D4E9012115F8010B34
:1011F0009047761EF8D22046FFF75CF9BDE8F081F3
:101200004E414E006E616E00494E4600696E6600AA
:101210002DE9F05F824615468B4600270AF101044E
:10122000B9460078302801D09DB113E014F8010BC5
:101230000127782803D0582801D045B10AE00DB124
:10124000102D07D1002714F8010B102502E0082506
:1012500000E00A250026B0460EE005FB080005FB6D
:1012600006F101271FFA80F801EB1046B6F5803F22
:1012700000D3B94614F8010B294600F0B8F800284D
:10128000EBDABBF1000F05D00FB1641E00E054464D
:10129000CBF80040B9F1000F06D0FFF77FFB022129
:1012A0000160C81EBDE8F09F48EA0640FAE700006A
:1012B0002DE9F047814616468AB0334878440DC878
:1012C0008DE80D0030487844801C03AC0DC884E8DC
:1012D0000D0041F69B300844372190FBF1F290FB62
:1012E000F1F5A5F1800501FB12041B3C02D5644217
:1012F000012000E00020DFF890A080460027FA449B
:10130000AAF1BE0A0DE0E00709D03246684607EBB5
:1013100047010AEB810100F05AFB8DE807006410D9
:101320007F1C002CEFD1184F7F44AC3F18E0E8073A
:1013300014D007EB04100DF1180A90E80E008AE8AB
:101340000E00C068F04201D198190890324606A9F3
:1013500003A800F03CFB03AB83E807006D10641C9E
:10136000002DE4D132466946B8F1000F03A802D03F
:1013700000F019FB01E000F02AFBC9E90001C9F8FF
:1013800008200AB0BDE8F087B0690000007B00F0DB
:101390008000704710B500F047F8BDE8104000F03D
:1013A0003DB870477546FFF783FEAE4605006946B7
:1013B000534620F00700854618B020B5FEF764FFBD
:1013C000BDE820404FF000064FF000074FF0000846
:1013D0004FF0000B21F00701AC46ACE8C009ACE8C7
:1013E000C009ACE8C009ACE8C0098D4670473A288E
:1013F00000D2303820F02002412A01D3A2F1370078
:10140000884201D34FF0FF30704710B50446AFF368
:1014100000802046BDE81040FEF722BF002801D022
:1014200000F02AB87047000010B5012805D000214F
:1014300003A000F027F8012010BD09A1F8E7000083
:1014400053494752544D454D3A204F7574206F66AD
:101450002068656170206D656D6F72790000000015
:101460003A2048656170206D656D6F727920636FF9
:10147000727275707465640001491820ABBEFEE796
:101480002600020070B505460C460A2000E06D1CDF
:1014900000F011F835B128780028F8D102E0641C7A
:1014A00000F009F814B120780028F8D1BDE87040A8
:1014B0000A20AFF3008008B569468DF800000320CC
:1014C000ABBE08BD5FEA400C08BF91F0000F4FEAC9
:1014D0008C234FEAC12243EA51514FEA1C5018BFF6
:1014E00000F5F0404FEA300018BF41F000415FEADC
:1014F0006C5C00F02980BCF1FF3F08BF40F08040E9
:101500007047130C06BF12044FF0100C4FF0000C84
:10151000130E04BF12020CF1080C130F04BF1201CA
:101520000CF1040C930F04BF92000CF1020CD30FCA
:1015300004BF52000CF1010C11464FF00002A0F163
:101540001F00A0EB0C00704711F0004F08BF704760
:1015500031F000413FF4D5AF0B0C06BF09044FF04A
:10156000100C4FF0000C0B0E04BF09020CF1080C1C
:101570000B0F04BF09010CF1040C8B0F04BF890091
:101580000CF1020CCB0F04BF49000CF1010CCCF1A3
:101590002003A0EB0C0022FA03F302FA0CF241EA5A
:1015A000030100F10100704720F07F4C80EA030046
:1015B00023F07F47ACEB070303F57C5300F00040BA
:1015C00003F1FF032DE980494FEA154B09B44FEAB7
:1015D000144325EA0B4E24EA03480FF2042606EBD7
:1015E000132749083E785FEA320203FB0667C7F516
:1015F000000707FB06F64FEA54374FEAD64606F1D6
:10160000020607FB066CCCF1005C4FEA1C472CEA93
:10161000074C07FB06F40CFB06F504EB15464FEAF6
:10162000961634BF00204FF000404FEAD13706FB3A
:1016300007FC4FEA1C4C0CFB0BF7D21B03FB0CF70F
:1016400061EB07010CFB0EF7B0EB074072EB1742A2
:101650000CFB08F734BFA2EB0742B2EB074261EB89
:1016600017414FEA0C444FEA910706FB07FC4FEA8B
:101670001C4C0CFB0BF7B0EBC74072EB573203FB73
:101680000CF734BFA2EBC742B2EBC74261EB573154
:101690000CFB0EF7B0EBC70072EB57720CFB08F7B0
:1016A00034BFA2EBC702B2EBC70261EB5771039FD5
:1016B0004FEA816141EA921104EBCC044FEAD13741
:1016C0004FEA826206FB07FC42EA90124FEA806012
:1016D0004FEA1C4C0CFB0BF7D21B03FB0CF761EB26
:1016E00007010CFB0EF7B0EB074072EB17420CFB47
:1016F00008F734BFA2EB0742B2EB074261EB174198
:101700004FEA8C554FEA910704EB9C2406FB07FC3B
:101710004FEA1C4C0CFB0BF7B0EBC74072EB573297
:1017200003FB0CF734BFA2EBC742B2EBC74261EB3D
:1017300057310CFB0EF7B0EBC70072EB57720CFB86
:1017400008F734BFA2EBC702B2EBC70261EB5771D7
:1017500015EB4C254FEA816141EA92114FEA826212
:101760004FEAD13742EA901206FB07FC44F100042D
:101770004FEA80604FEA1C4C0CFB0BF7D21B03FBBB
:101780000CF761EB07010CFB0EF7B0EB074072EBB7
:1017900017420CFB08F734BFA2EB0742B2EB07423B
:1017A00061EB174115EB1C154FEA813141EA92417B
:1017B0004FEA823242EA90424FEA80304FEA0C769A
:1017C00044F1000448EA03434EEA0B484FF0000E90
:1017D000B2EB080C71EB030724BF624639464EEBAF
:1017E0000E0E4FF0000B0018524149414BEB0B0B12
:1017F000B2EB080C71EB03077BF1000B24BF6246D0
:1018000039464EEB0E0E4FF0000B00185241494185
:101810004BEB0B0BB2EB080C71EB03077BF1000BEE
:1018200024BF624639464EEB0E0E51EA020718BF3E
:1018300046F0010616EB0E7655F1000254F1000158
:1018400003D5BDE88901BDE80088BDE88901BDE890
:101850000048B619524141EB0101A3F10103704761
:1018600080807F7E7D7C7B7A7978777676757473DD
:10187000727171706F6E6E6D6C6C6B6A6A6968689C
:10188000676666656464636362616160605F5F5E32
:101890005E5D5D5C5C5B5B5A5A59595858575756A8
:1018A000565555555454535352525251515050500D
:1018B0004F4F4F4E4E4D4D4D4C4C4C4B4B4B4A4A5F
:1018C0004A494949484848474747474646464545A3
:1018D00045444444444343434342424242414141DC
:1018E000002B26D4770021D01CB54FEA370703B46C
:1018F0004FF010004FF010014FF000000FBCBDE89A
:1019000010400BF1010BBBF1010F08BF5FEA170795
:1019100022BF12F1010211F101014FF0004143F128
:10192000000300F0004043EA00007047F9D3570875
:10193000DAE746EA064613F1400F4FEA16461FDD86
:1019400013F1200FDFBF16430A46002120335B420C
:10195000C8D0C3F1200746EA064602FA07F74FEA65
:10196000164646EA0706C3F1200722FA03F201FAF7
:1019700007F721FA03F14FF0000342EA0702B1E74B
:1019800046EA020646EA06464FEA164646EA0106D7
:10199000BCBF46EA0646360C4FF000034FF000028B
:1019A0004FF000019EE72DE9C048934630B491E81E
:1019B000380007C831EA400C48BF34EA430C03D56D
:1019C000FFF7F2FDFFF78CFFF0BCBDE800882DE9C2
:1019D000C048934630B491E8380007C810F0804FF3
:1019E00008BF13F0804F03D100F005F8FFF778FF30
:1019F000F0BCBDE8008820F07F4780EA030023F0B8
:101A00007F4C07EB0C03A3F57C5300F00040A3F1DF
:101A1000FE0392F0000F00F0B38095F0000F00F08D
:101A200077802DE901494FEA11404FEA144621EA37
:101A3000004800FB06FC24EA064708FB06F607FB05
:101A400008F800FB07F718EB06484CEB164C4FEA7A
:101A5000124B18EB07484FEA15464CEB174022EAA9
:101A60000B4E0BFB06FC25EA06470EFB06F607FBB2
:101A70000EFE0BFB07F71EEB064E4CEB164C4FF021
:101A800000061EEB074E4CEB174B18EB0B0840F112
:101A9000000018EB0E0B58EB000840F100008F1A05
:101AA0004FF000013CBFC943661B14BFB5EB040CEB
:101AB00000213CBFC943F61B4FEA17444EEA8E0E85
:101AC00027EA04454FEA1C4704FB07622CEA074C4F
:101AD00005FB07F70CFB05F604FB0CFC16EB0746B1
:101AE00042EB174216EB0C4642EB1C421BEB060680
:101AF00058EB0202414146EA9E0601D5BDE8018944
:101B0000B619524141EB0101A3F10103BDE801897E
:101B10004FEA14454FEA114724EA054621EA074CEB
:101B200005FB07F406FB07F70CFB06F105FB0CFCB5
:101B300011EB074144EB17444FEA124711EB0C41FC
:101B400044EB1C4422EA074C05FB07F206FB07F7AF
:101B50000CFB06F605FB0CFC16EB074642EB1742A6
:101B600016EB0C4642EB1C456A1854F1000148BFC5
:101B70007047B619524141EB0101A3F101037047CF
:101B800095F0000F37D04FEA11424FEA144721EA8F
:101B9000024624EA074C02FB07F106FB07F70CFBA1
:101BA00006F402FB0CFC14EB074441EB17414FEA2F
:101BB000154714EB0C4441EB1C4125EA074C02FB92
:101BC00007F506FB07F70CFB06F602FB0CFC16EB11
:101BD000074645EB174516EB0C4645EB1C42121920
:101BE00051F1000148BF7047B619524141EB010164
:101BF000A3F1010370474FEA14454FEA114724EA65
:101C0000054621EA074C05FB07F106FB07F70CFB2D
:101C100006F24FF0000605FB0CFC12EB074241EB0D
:101C2000174112EB0C4251EB1C4148BF7047921810
:101C300041EB0101A3F101037047000070B50025DD
:101C40004FF4803400E0641E24B1802001F0E4FCF5
:101C50000028F8D014B90325284670BD40F2FF5083
:101C6000014908602846F8E7382C01402DE9F04189
:101C7000064600274948056801E04848056805F020
:101C800045000028F9D005F0040038B103270420EE
:101C90004249091D08603846BDE8F08105F00100A1
:101CA00030B1012701203D49091D08603846F3E79E
:101CB00001F0ACFCB04202D010273846ECE740F20D
:101CC000FF503649091D0860002001F0C5FC04469C
:101CD0003348204008B93846DEE704F0004008B138
:101CE0001C20D9E704F0804008B10920D4E704F0B3
:101CF000005008B10A20CFE704F0805008B10B2053
:101D0000CAE704F0006008B10C20C5E704F0806069
:101D100008B10D20C0E704F0807008B10E20BBE7C9
:101D200004F4000008B10F20B6E704F4800008B105
:101D30001020B1E704F4001008B11120ACE704F45E
:101D4000801008B11220A7E704F4002008B1132086
:101D5000A2E704F4802008B114209DE704F40030C9
:101D600008B1152098E704F4803008B1162093E7F5
:101D700004F4004008B117208EE704F4804008B155
:101D8000182089E704F4005008B1192084E704F012
:101D9000080008B11A207FE738467DE7342C01405F
:101DA00008E0FFFD0020114A116801E00F4A1168A8
:101DB00001F04502002AF9D001F004022AB1032003
:101DC00004220A4B1B1D1A60704701F001022AB160
:101DD00001200122054B1B1D1A60F5E740F2FF525E
:101DE000024B1B1D1A6000BFEEE70000342C0140BF
:101DF00000200C4A116801E00A4A116801F045020E
:101E0000002AF9D001F004022AB103200422054B74
:101E10001B1D1A60704740F2FF52024B1B1D1A60D7
:101E200000BFF7E7342C01402DE9F04106460F468C
:101E30004FF000082448056801E02348056805F0D4
:101E400045000028F9D005F0040040B14FF0030828
:101E500004201D49091D08604046BDE8F08105F0D9
:101E6000010038B14FF0010801201749091D086031
:101E70004046F2E701F0CAFBB04203D04FF0100831
:101E80004046EAE740F2FF500F49091D0860002074
:101E900001F0E2FB044604F4604018B9200C3880DD
:101EA0004046DAE704F4005008B11320D5E704F403
:101EB000804008B11020D0E704F4004008B10F20A2
:101EC000CBE74046C9E70000342C014010B50020A4
:101ED0004FF480320F4B196802E0521E0D4B196807
:101EE00001F045030BB9002AF7D112B101F0040348
:101EF0002BB103200423074C241D236010BD01F0E7
:101F000040032BB100204023024C241D2360F5E741
:101F100000BFF3E7342C014010B590B00446012116
:101F2000480501F0C7F9194800F0C8F84FF06060A3
:101F3000019017480290039480150590C000089006
:101F40008000099040200490002006904FF48060AB
:101F5000079080100A9040020B9000200C90012006
:101F60000D9000200E900F9001A9084800F09EF9F6
:101F70000121064800F096F80121002000F00EF83B
:101F80000121002000F040F810B010BD8860024030
:101F90000C74004010B500F015F810BD39B1084AB6
:101FA0001268012383401A43054B1A6006E0044A75
:101FB0001268012383409A43014B1A607047000066
:101FC0000074004000B587B00121480701F082F994
:101FD0000121084601F06EF91020019003208DF8D0
:101FE000080000208DF80B0001A9064800F0DEFE75
:101FF0000420039000200690049003A900F01AF832
:1020000007B000BD0000024041B1094A12684FF418
:10201000805383401A43064B1A6007E0044A126853
:102020004FF4805383409A43014B1A60704700007D
:102030000074004030B5002200230A4C226840F6AC
:10204000FE748440A243D1E900452C438D682C43A3
:10205000CD6844EA050303FA00F42243014C2260F0
:1020600030BD00000074004010B501F0DBFF10BD72
:102070000246094B9A4201D2084801E0064810384E
:1020800001F000531BB1064B0B40C36002E0044B50
:102090000B40836070470000106402400060024003
:1020A0007D0F7D0F21B1026842F00102026003E062
:1020B000026822F00102026070470000016821F00E
:1020C000010101600021016041608160C160016126
:1020D000212141614A49884204D13D21484A103AB0
:1020E00091608CE046491831884205D14FF4746103
:1020F000434A103A916082E041493031884205D12B
:102100004FF474113E4A103A916078E03C494831EE
:10211000884205D14FF07461394A103A91606EE0FF
:1021200037496031884204D13649354A103AD16086
:1021300065E033497831884204D13349304A103A56
:10214000D1605CE02E499031884204D12F492C4A5D
:10215000103AD16053E02A49A831884205D14FF0A6
:102160003D51274A103AD16049E02949884204D1BB
:102170003D21274A083A116041E02549183188423B
:1021800005D14FF47461224A083A116037E02049C2
:102190003031884205D14FF474111D4A083A11605C
:1021A0002DE01B494831884205D14FF07461184A2F
:1021B000083A116023E016496031884204D1114980
:1021C000134A121F11601AE011497831884204D174
:1021D0000D490F4A121F116011E00D4990318842DC
:1021E00004D10A490A4A121F116008E00849A831BF
:1021F000884204D14FF03D51054A121F11607047CB
:10220000106002403D000020400F002000003D20F3
:102210001064024021B1026842F02002026003E033
:10222000026822F0200202607047000030B50346C9
:102230000A46002000240B4DAB4201D20A4901E0BE
:102240000849103902F000550DB14C6800E00C68E7
:10225000064D2C4004EA02050DB1012000E00020EB
:1022600030BD000010640240006002407D0F7D0F11
:1022700010B501F080034BB122B1436943F08003F4
:10228000436103E0436923F08003436180290BD05D
:102290002AB1036801F01E042343036004E00368CD
:1022A00001F01E04A343036010BD000010B500221E
:1022B0000268134B1A40CC680B6823434C692343D4
:1022C0008C692343CC6923430C6A23434C6A234320
:1022D0008C6A23434C6B23438C6B23431A43026069
:1022E000426922F00702D1E90B3423431A434261C9
:1022F0000B6943604B6883608B68C36010BD00004E
:102300003F801CF010B5082000F02AF848B10120E9
:10231000044908708021044800F0D1FD082000F035
:1023200019F810BD0C0000200000024010B510206C
:1023300000F016F848B14021044800F0C0FD01202B
:1023400003490870102000F005F810BD000002409D
:102350000D0000200149086070470000143C014056
:1023600001460020034A12680A400AB1012000E039
:1023700000207047143C0140002123498279002A43
:102380003AD00A46126803689A430B461A600A1D3F
:10239000126803689A430B1D1A60027911440A6897
:1023A00003681A430A60184A0832126803689A439D
:1023B000154B08331A601A1D126803689A43124BB2
:1023C0000C331A604279102A0ED11A1F1268036862
:1023D0001A430D4B08331A601A1D126803681A431A
:1023E000094B0C331A600DE00749427911440A6821
:1023F00003681A430A6005E0027911440A68036819
:102400009A430A6070470000003C01402DE9F04704
:102410002DED028BADF5047D064600270122FAA1C1
:10242000FA4803F00FFD00287ED101223146F8481A
:1024300003F036FD002878D1F64B0422F649F44823
:1024400003F01EFE0746F449F4A0FDF7FDFFF14B33
:102450000422F549EE4803F013FE0746F248C0781F
:102460000090F148837842780178F0A0FDF7ECFF06
:10247000ED480078EC49497840EA0120EA4989783A
:1024800040EA0140E849C97840EA0160E249486011
:1024900008464068820A08464168E8A0FDF7D4FF74
:1024A000DC4B0422DC490831D94803F0E9FD07463A
:1024B000D9490831EBA0FDF7C7FFD64B0422D64916
:1024C0000C31D34803F0DCFD0746D3490C31EBA0B7
:1024D000FDF7BAFFCF4B0422D349CD4803F0D0FD1E
:1024E0000746D148C0780090CF4883784278017879
:1024F000E8A0FDF7A9FFCC480078CB49497840EA2D
:102500000120C949897840EA0140C749C97840EAB1
:102510000160C149086108460169E2A0FDF794FF26
:10252000BC4B0222E84901E04DE349E3B84803F01F
:10253000A7FD0746E44842780178E4A0FDF784FF50
:10254000E1480078E049497840EA0120B249486111
:10255000002081908290839008464069012804D130
:10256000DCA181A8FEF70FF910E0AB48406906280E
:1025700004D1D9A181A8FEF706F907E0A648406971
:10258000072803D1D6A181A8FEF7FDF8A24881AAA9
:102590004169D5A0FDF758FF9E4B0222CA499C48CD
:1025A00003F06EFD0746C84842780178D6A0FDF7D3
:1025B0004BFFC5480078C449497840EA0120964954
:1025C000886108468169D2A0FDF73EFF914B042245
:1025D00095498F4803F054FD07469348C078009012
:1025E000914883784278017890A0FDF72DFF8E48BE
:1025F00000788D49497840EA01208B49897840EA82
:1026000001408949C97840EA01608349C8610846A8
:10261000C169C5A0FDF718FF7E4B042282497C48A2
:1026200003F02EFD07468048C07800907E488378EE
:10263000427801787DA0FDF707FF7B4800787A4952
:10264000497840EA01207849897840EA0140764992
:10265000C97840EA0160704908620846006AC20011
:102660000846016AB7A0FDF7EFFE6A4B02229649C1
:10267000674803F005FD0746934842780178A2A019
:10268000FDF7E2FE904800788F49497840EA012042
:10269000614948620846416AB4A0FDF7D5FE5D4B2A
:1026A000022289495A4803F0EBFC074686484278E3
:1026B000017886A0FDF7C8FE8348007882494978F2
:1026C00040EA0120544988620846816AAFA0FDF7BC
:1026D000BBFE504B042250492C314D4803F0D0FC36
:1026E00007464D492C31B1A0FDF7AEFE494B0422FF
:1026F0004D49474803F0C4FC07464B48C07800905A
:10270000494883784278017848A0FDF79DFE464805
:1027100000784549497840EA01204349897840EAF0
:1027200001404149C97840EA01603B4908630846D5
:10273000016BA5A0FDF788FE374880693649896A94
:1027400048433549096BC900B1FBF0F84146A7A0E1
:10275000FDF77AFE304880692F49896A4843C408EA
:102760002146A8A0FDF770FE2B4890ED010AF8EE77
:10277000400A90ED080AB8EE400A80EE808AB0EE7A
:10278000480A04F07FFD05462946A6A0FDF75CFE39
:1027900021484069012834D181461F488069B4FB33
:1027A000F0F51D4880696843A04201D04FF0000950
:1027B000B9F1000F26D01848C069A249B1FBF0F06A
:1027C000401E1FFA80FA0021504602F015F89EA024
:1027D000FDF73AFEE7E19E480078012803D09D48C6
:1027E0000078012800D1E5E10A4B4FF4007201A9FD
:1027F000074803F045FC074617B9002100205EE1B9
:1028000061E1DCE1DAE100000000000014010020D9
:1028100048030020040000201809002028312D342E
:10282000293A202573200A00100000202578202551
:10283000782025782025780A0000000028352D38DA
:1028400029204F766572616C6C2073697A653A2035
:1028500062797465733A25752C204B623A25752090
:102860000A00000028392D31322920576176652071
:102870006D61726B65723A2025730A002831332D21
:1028800031362920466D74206D61726B65723A2075
:1028900025730A0025752025752025752025750AC4
:1028A000000000002831372D323029204C656E673A
:1028B0007468206F6620466D742068656164657277
:1028C0003A202575200A00001400002025752025D7
:1028D00075200A0050434D00412D6C6177000000C7
:1028E0004D752D6C617700002832312D3232292050
:1028F000466F726D617420747970653A2025752079
:102900002573200A000000002578202578200A0081
:102910002832332D323429204368616E6E656C7322
:102920003A202575200A00002832352D323829201A
:1029300053616D706C6520726174653A2025750A6B
:10294000000000002832392D333229204279746585
:1029500020526174653A202575202C20426974202C
:10296000526174653A25750A000000002833332D42
:1029700033342920426C6F636B20416C69676E6D44
:10298000656E743A202575200A0000002833352D25
:102990003336292042697473207065722073616D2B
:1029A000706C653A202575200A0000002833372D09
:1029B0003430292044617461204D61726B65723A34
:1029C000202573200A0000002834312D34342920BA
:1029D00053697A65206F662064617461206368754D
:1029E0006E6B3A202575200A000000004E756D625E
:1029F0006572206F662073616D706C65733A256C2B
:102A000075200A0053697A65206F662065616368E6
:102A10002073616D706C653A256C64206279746511
:102A2000730A0000417070726F782E447572617481
:102A3000696F6E20696E20683A6D3A733D25730A9E
:102A40000000000000A24A0473746172740A00005E
:102A50000C0000200D000020002300EE103A01AB16
:102A600013F800C09A46431C1AF803304CEA0323BB
:102A70001BB200EE103AF8EEC01A9FED582A81EE14
:102A8000821AF7EE001A31EE211AF0EE001A81EEEA
:102A9000212AF0EE420A9FED521A20EE811ABDEE75
:102AA000C11A11EE102A0FFA82FA0B4601F1010C3D
:102AB0001FFA8CF1DFF82CC12CF813A02844B0F5D4
:102AC000007FC9DB03E048A0FDF7BEFC72E000BF59
:102AD00048494948FFF7AAFB0028F9D0454946482C
:102AE000FFF7C6FA00214448FFF7DCFA3D48FFF73C
:102AF00013FA424B4FF4007201A9414803F0C0FAA7
:102B00000746CFBB0021002032E0002300EE103A40
:102B100001AB13F800C09A46431C1AF803304CEA84
:102B200003231BB200EE103AB8EEC01ADFED2B1AE9
:102B300081EE212AB7EE001A32EE011AF0EE001AE9
:102B400081EE212AF0EE420A9FED251A20EE811A2D
:102B5000BDEEC11A11EE102A0FFA82FA0B4601F1EE
:102B6000010C1FFA8CF1DFF89CC02CF813A028444C
:102B7000B0F5007FC9DB04E0FFE71BA0FDF764FCB4
:102B800018E000BF1B491C48FFF750FB0028F9D094
:102B900018491948FFF76CFA00211748FFF782FA25
:102BA0001848FFF7B9F91648C0681549896888427E
:102BB0007FF411AE00BF14A0FDF746FC00BF00BFBC
:102BC0000F4803F023F900210B48FFF76BFA0DF5CE
:102BD000047DBDEC028BBDE8F0870000000080475B
:102BE0000080BB44800E00207265616420657272B3
:102BF0006F7200000008002088600240040000207E
:102C000048030020800C002073746F700A000000DD
:102C10002DE9FC4107460D460026002400200090C7
:102C2000019008205D4908601020486040208860BD
:102C30000020C8604FF480600861084600F03AFD4B
:102C40001020FFF713F8044614B12046BDE8FC81BC
:102C500053480088000451490860372048604020EC
:102C600088600020C8604FF480600861084600F06A
:102C700021FD3720FEF7FAFF04460CB12046E5E7B8
:102C80004FF0FF30474908600820486030208860D6
:102C90000220C8600020086101204861084600F059
:102CA0008FFC00203D490860332048604020886048
:102CB0000020C8604FF480600861084600F0FAFC0C
:102CC0003320FEF7D3FF04460CB12046BEE709E0EF
:102CD0004FF4001000F0A0FC20B100F0E5FC4DF82E
:102CE0002600761C3048006840F22A61084000281F
:102CF000EED0082000F090FC30B108202A49091DD0
:102D0000086004242046A1E7022000F085FC30B1D1
:102D100002202549091D08600224204696E720204C
:102D200000F07AFC30B120201F49091D08600624FC
:102D300020468BE74FF4007000F06EFC38B14FF482
:102D400000701949091D0860072420467EE740F2FB
:102D5000FF501549091D086000980006009901F40C
:102D60007F4140EA0120009901F47F0140EA1120EF
:102D7000009940EA1160686001980006019901F429
:102D80007F4140EA0120019901F47F0140EA1120CE
:102D9000019940EA11602860204657E73814002066
:102DA000280000204C140020342C0140F0B50A46C5
:102DB00000210023002400BF3DE0012505FA01F3B6
:102DC000156805EA03049C4234D105684F000326C8
:102DD000BE40B543056015794E00B54006683543E1
:102DE00005601579012D02D01579022D16D185685F
:102DF0004F000326BE40B543856055794E00B5406F
:102E0000866835438560456801268E40B543456038
:102E1000456896798E40B6B235434560C5684F0027
:102E20000326BE40B543C560D5794E00B540C6689F
:102E30003543C560491C1029BFD3F0BD1CB5012125
:102E4000102000F037FA00224AF68031094800F0DD
:102E50003AF84AF68030009001208DF804008DF891
:102E6000070002208DF8050069460248FFF79EFF23
:102E70001CBD000000100240F0B5002300244D07E7
:102E8000ED0E02FA05F3CE1000F1200555F826509C
:102E90004E07F70E0F26BE40B543CF1000F12006B7
:102EA00046F82750CE1000F1200555F8265045EA87
:102EB0000304CE1000F1200545F82640F0BD42691C
:102EC0004A40426170470AB1018300E04183704784
:102ED00030B5C1B0012258A1584802F0B3FF58499B
:102EE00008700846007800287AD156A1574803F0A8
:102EF0008CF80546002D33D155A0FDF7A5FA00BF8B
:102F000059485A498861FE20C861504803F088F941
:102F1000054615B95548407A00B920E05348007A73
:102F200000F010000028EBD150488069007810B103
:102F30004E48806901E04D48093003464B484CA19A
:102F4000026801A8FDF78CFA4D480078401C4C49F6
:102F50000870464881694BA0FDF776FAD0E700BFBC
:102F60003A4802F063FF37A1384803F04EF80546AF
:102F7000002D5AD1002453E03B483C498861FE2093
:102F8000C86100BF3949314803F04AF9054637485E
:102F9000806900782E28F5D03448806900780028B0
:102FA000F0D015B93148407A00B93DE02F48007A99
:102FB00000F0100068B92D488069007810B12B48E6
:102FC000806901E02948093002462FA101A8FDF7D8
:102FD00047FA4CB901A92F48FDF7D5FB2D4900E070
:102FE00027E02DA0FDF730FA012C09D101A92948CD
:102FF000FF30FDF7C8FB2749FF312EA0FDF724FA6B
:103000001F480078401EA04209D101A92148FF387D
:10301000FDF7B9FB1F49FF392DA0FDF715FA641C18
:10302000174800788442A7DB00BF084802F0FEFE84
:1030300000BF41B030BD0000000000004C0900207E
:10304000200000202F2F6D75736963006C05002030
:103050004469726563746F7279206C697374696E08
:10306000672E2E2E0D0A00008010002094050020EF
:1030700020202025386C75202025730D0A000000C3
:103080000E00002025730A002F2F6D757369632FC2
:1030900025730000B30600206C6973742E7074727F
:1030A0005F63757272656E745F736F6E67203A202E
:1030B00025730A006C6973742E7074725F6E657884
:1030C000745F736F6E67203A2025730A000000005A
:1030D0006C6973742E7074725F70726576696F7547
:1030E000735F736F6E67203A2025730A000000003B
:1030F00010B5012211020848FFF7E5FE012002F099
:1031000073FB00224FF480710348FFF7DCFE0120BF
:1031100002F06AFB10BD00000010024070B50446CA
:103120000E461EB904F18000C5B202E004F1C000F1
:10313000C5B2284600F06AF870BD000010B5FFF770
:103140007DFE002000F040F8002280210E48FFF7AD
:10315000BAFE032000F038F8FFF7CAFFFFF7C8FFF8
:10316000FFF7C6FF022000F02FF8FFF7C1FF28206D
:1031700000F04CF80C2000F049F8062000F046F86A
:10318000012000F043F810BD0010024010B50446C5
:10319000012280210548FFF796FE204600F036F810
:1031A000002280210148FFF78EFE10BD0010024072
:1031B00010B5044603E02078FFF7E8FF641C207890
:1031C0000028F8D110BD000010B5044604F001023B
:1031D0004FF400710C48FFF776FEC4F340024FF441
:1031E00000610948FFF76FFEC4F380024FF40051FD
:1031F0000548FFF768FEC4F3C0024FF400410248DF
:10320000FFF761FE10BD00000010024010B504463B
:103210002011FFF7D9FFFFF76BFF2046FFF7D4FF20
:10322000FFF766FF10BD000070B5002100230F22DC
:10323000C4781CB3174C246804F4E064C4F5E0645B
:10324000C4F30721C1F10404E3B20A4144789C406D
:10325000E1B28478144021430C07210E0E4C05780E
:103260006155047804F01F050124AC4005786D1108
:10327000AD0005F1E025C5F8004109E0047804F04F
:103280001F050124AC40054D0678761145F826400F
:1032900070BD00000CED00E000E400E080E100E023
:1032A00002490143024A1160704700000000FA051C
:1032B0000CED00E029B1064A12680243044B1A6083
:1032C00004E0034A12688243014B1A607047000011
:1032D0003038024029B1064A12680243044B1A6092
:1032E00004E0034A12688243014B1A6070470000F1
:1032F0004038024029B1064A12680243044B1A6062
:1033000004E0034A12688243014B1A6070470000D0
:103310004438024029B1064A12680243044B1A603D
:1033200004E0034A12688243014B1A6070470000B0
:10333000243802401448006840F001001249086037
:1033400000201149083108600F4800680F49084003
:103350000D4908600E48091D08600E480A4984316D
:1033600008600B481038091D08600748006820F401
:10337000802005490860002003490C31086002499B
:103380008C3108607047000000380240FFFFF6EA09
:103390001030002400300020F0B50021002200246D
:1033A000022500260223324F3F6807F00C0121B1AD
:1033B000042905D0082937D105E02E4F076036E0F3
:1033C0002D4F076033E02A4F3F1F3F68C7F38056F9
:1033D000274F3F1F3F6807F03F036EB1264FB7FBF3
:1033E000F3F7DFF88CC0ACF1040CDCF800C0CCF3D0
:1033F000881C07FB0CF40CE01E4FB7FBF3F7DFF85B
:1034000070C0ACF1040CDCF800C0CCF3881C07FBE6
:103410000CF4174F3F1F3F68C7F301477F1C7D0027
:10342000B4FBF5F7076002E0124F076000BF00BF72
:103430000F4F3F6807F0F0010909104F7A5C0768E9
:10344000D74047600A4F3F6807F4E051890A0B4FA5
:103450007A5C4768D7408760054F3F6807F4604152
:10346000490B064F7A5C4768D740C760F0BD000043
:10347000083802400024F40040787D01F800002064
:103480007CB50546002400200090019000F0E4F88F
:1034900000F0007010B10E2420467CBD3D49098823
:1034A00088B26946FFF7B4FB04460CB12046F4E746
:1034B000012D36D1019800F4802000282ED0354807
:1034C0000088000434490860372048604020886044
:1034D0000020C860A8020861084600F0EBF8372019
:1034E000FEF7C4FB04460CB12046D6E702202A4969
:1034F000086006204860402088600020C8604FF4C3
:1035000080600861084600F0D5F80620FEF7AEFBA3
:1035100004460CB12046C0E72046BEE725242046DD
:10352000BBE7019800F4803078B31A4800880004A3
:103530001949086037204860402088600020C86032
:103540004FF480600861084600F0B4F83720FEF7B9
:103550008DFB04460CB120469FE700200E49086011
:1035600006204860402088600020C8604FF48060DA
:103570000861084600F09EF80620FEF777FB044637
:103580000CB1204689E7204687E7FFE7252420463F
:1035900083E700002800002038140020014908605B
:1035A00070470000382C0140014908607047000056
:1035B000A080254201490860704700008C852542A3
:1035C00000210B4B02681A601B1D42681A601A1D0D
:1035D000116821F0F701D0E902231A4303691A4365
:1035E00043691A431143024A0832116070470000D0
:1035F000242C014010B50121C802FFF78BFE0021E9
:103600004FF40060FFF786FE10BD0000014800681F
:10361000C0B27047102C014001460020034A1268D6
:103620000A400AB1012000E000207047342C01401C
:1036300001460020034A12680A400AB1012000E056
:1036400000207047342C01400248006800F003005D
:1036500070470000002C014008B501460020009092
:103660000248084400900098006808BD142C0140EE
:1036700010B500F0EBFC10BD00210A4A116847F6B6
:10368000FF629143027D83681A4343681A43C3680B
:103690001A4303681A4303691A431143014A11602C
:1036A00070470000042C014001480068704700008A
:1036B000802C01400021094B02681A601A1D116814
:1036C0006FF30A01D0E901231A43C3681A4303695F
:1036D0001A431143014A121D11607047082C014022
:1036E0000149086070470000002C014008B5012026
:1036F000009001F0EAF808B9002000909DF8000061
:1037000008BD000070B50446002521480068032864
:1037100002D12725284670BD1D48006838B11C48D5
:103720000068012803D01A48006802282ED1B4F599
:10373000805F02D127252846EDE7B4F5006F14D14C
:103740000120FFF79DFE054605BB012011490875C4
:1037500000200860486088604FF40060C860002066
:1037600008610846FFF788FF10E00020FFF788FE99
:1037700005465DB9012007490875002008604860CA
:103780008860C86008610846FFF776FF2846C2E7F0
:103790002400002020140020F0B501460020002263
:1037A000C04B1B7881F85630BF4B1B88A1F85430B2
:1037B000BE4B1B681A0E93090B70C2F383034B7048
:1037C00002F003038B70B94B1B68C3F30742CA7046
:1037D000B64B1B88C3F307220A71B44B1A784A719F
:1037E0005B681A0E1301CB80B04B5B68C3F30742D2
:1037F000CB8843EA1213CB8002F00F030B72AB4B62
:103800009B88C3F30722D3094B72C2F380138B72D8
:10381000C2F34013CB72C2F300130B7300234B733C
:10382000A04B1B681BB19F4B1B68012B4FD193070B
:103830001B0D0B619D4B1A790B6943EA82030B61E7
:103840009A4B9B681A0E0B6943EA92130B61C2F301
:10385000C2030B7502F007034B75944B9B68C3F3CF
:10386000074253098B75C2F38203CB7593075B0F35
:103870000B768E4B1B89C3F307220B7E43EAD213D0
:103880000B760B695B1C0024C1E912340B7ED1E975
:1038900012469B1C012505FA03F3DF17A4FB035C0A
:1038A00006FB03C304FB0733C1E912530C7A01235F
:1038B000A3400B650027D1E912560B6DA5FB034C05
:1038C00006FB03C305FB0733C1E9124336E0754B22
:1038D0001B68022B32D1754B1A7993069B0A0B6138
:1038E000724B9B681A0E0B6943EA02230B616F4B04
:1038F0009B68C3F307420B6913430B616B4B1B8936
:10390000C3F307220B6900245B1C44EB04074FF44C
:1039100000760025A3FB064C07FB06C603FB0566E5
:103920004FF480650027A4FB053C06FB05C504FB9E
:103930000754C1E912344FF400730B65C2F38013CE
:1039400001F8193F93065B0E4B70584B1A7A4B786F
:1039500043EAD2134B7002F07F038B70534BDB684A
:103960001A0ED309CB70C2F341130B71C2F3820359
:103970004B7193071B0F8B714C4BDB68C3F30742F2
:103980008B7943EA92138B71C2F34013CB710023FE
:103990000B7202F001034B72444B9B89C3F3072265
:1039A000D3098B72C2F38013CB72C2F340130B7333
:1039B000C2F300134B73C2F381038B7302F0030352
:1039C000CB733A4B1A7B53080B7401234B74384B5F
:1039D0001B681A0ECA741939354B1B68C3F30742AA
:1039E0001402CC85324B1B88C3F30722CB8D1343C3
:1039F000CB852F4B1A7814060C635B681A0E0B6B81
:103A000043EA02440C632A4B5B68C3F307420B6B27
:103A100043EA02240C63264B9B88C3F307220B6BFB
:103A200013430B63224B1A7934235A54204B9B685F
:103A30001A0E35235A541E4B9B68C3F307421406D3
:103A40008C631B4B1B89C3F307228B6B43EA024435
:103A50008C63174B1A7A8B6B43EA02248C63144BEA
:103A6000DB681A0E8B6B13438B63114BDB68C3F35C
:103A700007423C235B5C43EA12143C235C5413076B
:103A80001C0DCC870A4B9B89C3F30722CB8F1343B2
:103A9000CB87074B1A7B540840235C5401244123F5
:103AA0005C54F0BD24000020280000209813002062
:103AB000A813002008B500200090FFF717FE01288A
:103AC00009D1684600F0B8FB08B1FF2008BD009896
:103AD000C0F34320FAE7FF20F8E710B50424FFF70E
:103AE000E9FF0446042C01D1002010BDFF2C01D1B8
:103AF0000220FAE70120F8E708B500200090FFF760
:103B000079FD00F0BFF900909DF8000010B19DF81C
:103B1000000008BD00F034F800909DF8000010B1DE
:103B20009DF80000F5E701201349087500200860A2
:103B300048608860C86008610846FFF79DFD0F482F
:103B4000FFF72AFE00909DF8000040B90B48B0F83E
:103B5000540002041046002100F052FB00909DF832
:103B6000000018B90020FFF7CDFD00909DF800007F
:103B70009DF80000CDE7000020140020C8130020AD
:103B800038B5002401200090FFF75EFD10B9252410
:103B9000204638BD43480068042828D00020424908
:103BA000086002204860C02088600020C8604FF490
:103BB000806008610846FFF77DFDFEF7F3F80446D4
:103BC0000CB12046E5E70020FFF746FD37490860C5
:103BD0000420FFF741FD354948600820FFF73CFD10
:103BE000324988600C20FFF737FD3049C8602D4806
:103BF000006858B12B480068012807D029480068A0
:103C0000062803D027480068022816D1002026493C
:103C1000086003204860402088600020C8604FF49E
:103C2000806008610846FFF745FD69460320FEF7FE
:103C3000FBF804460CB12046ABE71A48006804289C
:103C40002ED0BDF800001A490860BDF8000000043D
:103C50001549086009204860C02088600020C860BD
:103C60004FF4806008610846FFF724FDFEF79AF8DC
:103C700004460CB120468CE70020FFF7EDFC0D490F
:103C800008600420FFF7E8FC0A4948600820FFF7B5
:103C9000E3FC084988600C20FFF7DEFC0549C8609A
:103CA000002076E72400002038140020A81300200C
:103CB000280000209813002030B58FB004460D4630
:103CC0004FF0FA511E48FEF7D3F900211C48FEF7C9
:103CD000E9F91B48FEF7F2F94FF00060009019482F
:103CE0000190029400200390012004900020059090
:103CF0004FF48060069080000790800008900020BC
:103D000009904FF440300A9004200B9003200C904F
:103D10004FF400000D9080100E9069460848FEF7A1
:103D2000C5FA012210210648FEF7A2FA2021044814
:103D3000FEF770FA01210248FEF7B4F90FB030BD6A
:103D400058640240802C014030B58FB004460D46C7
:103D50004FF0FA511E48FEF78BF900211C48FEF780
:103D6000A1F91B48FEF7AAF94FF00060009019482E
:103D700001900294402003900120049000200590BF
:103D80004FF4806006908000079000200890099012
:103D90004FF440300A9004200B9001200C9000203A
:103DA0000D904FF400100E9069460948FEF77EFA18
:103DB000012210210648FEF75BFA20210448FEF795
:103DC00029FA01210248FEF76DF90FB030BD00005D
:103DD00058640240802C014010B50020FFF7E4FB3E
:103DE0000020FFF77DFCFFF705FC0D48006820F47C
:103DF00000600B4908604FF488510A4800F0B2FE99
:103E000002224FF48851074800F077FF042106484A
:103E100000F0A8FE02220421034800F06EFF10BD4E
:103E20004438024000080240000C02401CB50C203F
:103E3000022101230022CDE900104FF488510E48E1
:103E400000F024FF0C20022101230022CDE9001004
:103E500004210A4800F01AFF0948006840F4006095
:103E60000749086006481438006840F48000044997
:103E7000143908601CBD000000080240000C02401C
:103E800044380240F8B500200090002500240026A8
:103E9000002776205F490875002008604860886028
:103EA000C86008610846FFF7E7FB0320FFF718FC2E
:103EB0000120FFF779FB00205749086048608860BF
:103EC000C8604FF4806008610846FFF7F3FBFDF718
:103ED000B5FE00909DF8000010B19DF80000F8BDFF
:103EE0004FF4D5704C490860082048604020886035
:103EF0000020C8604FF4806008610846FFF7DAFBD5
:103F0000FDF7E4FF00909DF8000020B9012043492F
:103F10000860870712E000203F49086037204860AA
:103F2000402088600020C8604FF480600861084627
:103F3000FFF7C0FB3720FDF799FE009000203649BF
:103F4000086037204860402088600020C8604FF437
:103F5000806008610846FFF7ADFB3720FDF786FE5D
:103F600000909DF80000002851D13BE000202A4934
:103F7000086037204860402088600020C8604FF407
:103F8000806008610846FFF795FB3720FDF76EFE5D
:103F900000909DF8000010B19DF800009FE72048B8
:103FA00038431D490860292048604020886000206F
:103FB000C8604FF4806008610846FFF77BFBFDF79F
:103FC00017FF00909DF8000010B19DF8000086E7F3
:103FD0000020FFF741FB0546012080EAD57080F004
:103FE0000106641C1EB94FF6FF708442BED34FF623
:103FF000FF70844204D31B2000909DF800006EE700
:1040000005F08040051E02D00220044908609DF89A
:10401000000064E720140020381400202400002051
:104020000000108010B50748006800F0C05040B193
:104030000120054908604FF0C25102485830FEF790
:1040400017F810BD006402403800002010B54FF48E
:104050008070FFF7EDFA50B10020264908704FF448
:104060008070FFF79BFA01202349086037E00220A7
:10407000FFF7DEFA30B10220FFF790FA02201D4967
:1040800008702CE00820FFF7D3FA30B10820FFF7C2
:1040900085FA04201749087021E02020FFF7C8FAAC
:1040A00030B12020FFF77AFA06201249087016E096
:1040B0001020FFF7BDFA30B11020FFF76FFA05208E
:1040C0000C4908700BE04FF40070FFF7B1FA30B103
:1040D0004FF40070FFF762FA07200649087007489E
:1040E00000684CF23A31884304490860014800787E
:1040F00010BD000030000020340000203C2C0140A6
:104100002DE9F047814614461D46DDE90868002781
:1041100000203449087034490860012033490860A0
:1041200000203349086032481030006840F22A31DC
:1041300008432F491031086008FB06F14846FFF795
:10414000BBFD0120FFF736FA2A480068022808D193
:1041500006020202002320462946FCF7FDF8044629
:104160000D4625480660102023494860402088609D
:104170000020C8604FF4806008610846FFF79AFA93
:104180001020FDF773FD074617B13846BDE8F087EC
:104190004FF0FF301949086008FB06F04860902096
:1041A00088600220C860002008610120486108463C
:1041B000FFF706FA1048046012200F4948604020BB
:1041C00088600020C8604FF4806008610846FFF7EF
:1041D00071FA1220FDF74AFD07460FB13846D5E7C0
:1041E0003846D3E730000020340000202C000020A7
:1041F0002C2C014024000020381400204C140020F6
:1042000070B504460D4600260A4804600720094997
:104210004860402088600020C8604FF480600861DA
:104220000846FFF747FA0720FDF720FD064630460F
:1042300070BD00003814002070B50446002514B984
:104240002625284670BD0F48008800040E490860E6
:104250000D204860402088600020C8604FF48060D6
:1042600008610846FFF726FA0D20FDF7FFFC05461A
:104270000DB12846E6E70020FFF7EEF9206028465A
:10428000E0E70000280000203814002010B50024CA
:1042900000200A4908600C20486040208860002007
:1042A000C8604FF4806008610846FFF703FA0C20ED
:1042B000FDF7DCFC0446204610BD00003814002049
:1042C00038B50024601E009002E00098401E009067
:1042D0001B48006840B91B48006828B91A48007894
:1042E00010B900980028F0D1002015490860401E40
:1042F000009002E00098401E00901448006800F40E
:10430000005010B100980028F4D11148006801282D
:1043100005D1FFF7BBFF044600200D490860009857
:1043200008B904B9042440F2FF500849091D086087
:104330000548007810B10448007838BD2046FCE7F5
:10434000380000203400002030000020342C0140D0
:104350002C00002070B500256C1E00E0641E19487A
:10436000006838B91848006820B91848007808B9BA
:10437000002CF3D1002013490860441E00E0641EA5
:104380001348006800F4805008B1002CF7D11148A0
:104390000068012805D1FFF779FF054600200D4987
:1043A00008600CB905B9042540F2FF500849091D01
:1043B00008600648007810B10448007870BD2846AF
:1043C000FCE700003800002034000020300000200E
:1043D000342C01402C0000202DE9F0478146154681
:1043E0001E46DDE90878002400204B4908704B493F
:1043F000086001204A49086000204A49086049488D
:104400001030006840F21A31084346491031086004
:1044100008FB07F14846FFF797FC0120FFF7CAF8B1
:1044200041480068022808D10702020200232846FA
:104430003146FBF791FF05460E463C4807601020C9
:104440003A494860402088600020C8604FF480608E
:1044500008610846FFF72EF91020FDF707FC044617
:1044600014B12046BDE8F0873148008800042F4988
:10447000086037204860402088600020C8604FF402
:10448000806008610846FFF715F93720FDF7EEFB5D
:1044900004460CB12046E5E72448C0F80080172008
:1044A00022494860402088600020C8604FF4806046
:1044B00008610846FFF7FEF81720FDF7D7FB044612
:1044C0000CB12046CEE7194805601920174948600D
:1044D000402088600020C8604FF480600861084672
:1044E000FFF7E8F81920FDF7C1FB04460CB12046A0
:1044F000B8E74FF0FF300F49086008FB07F048604D
:10450000902088600020C86008610120486108464A
:10451000FFF756F82046A5E73000002034000020C1
:104520002C0000202C2C01402400002038140020F6
:10453000280000204C14002030B500228B071C0FEF
:104540000F2303FA04F20B4B8C1053F824309343DF
:10455000084C8D1044F8253023468C1053F8243035
:104560008C07240F00FA04F42343024C8D1044F806
:10457000253030BD083801404FF0E0208069024905
:104580000968C0EB0160704708010020024800681C
:10459000401C014908607047080100206FF07F400F
:1045A0004FF0E021486107200861704770B5002096
:1045B0000022022300240221274D2D6805F00C0063
:1045C00020B1042806D0082834D107E0234D244E1A
:1045D000356033E0234D224E35602FE01E4D2D1FF8
:1045E0002D68C5F380541C4D2D1F2D6805F03F012B
:1045F00054B11C4DB5FBF1F5174E361F3668C6F3A6
:10460000881605FB06F209E0144DB5FBF1F5124ED4
:10461000361F3668C6F3881605FB06F20E4D2D1FB1
:104620002D68C5F301456D1C6B00B2FBF3F50C4E14
:10463000356003E0094D0A4E356000BF00BF064DEE
:104640002D68C5F30315084E705D054D2D68C540F6
:10465000034E356070BD0000083802400024F400AD
:104660001001002040787D01B47B000814480068E8
:1046700040F47000124908601248006840F00100E0
:104680001049086000200F49083108600D48006893
:104690000D4908400B4908600C48091D0860081FB7
:1046A000006820F48020091F0860002005490C31B3
:1046B00008604FF0006002498039086070470000D0
:1046C00088ED00E000380240FFFFF6FE10300024C5
:1046D00008B5FEF72FFE002000903048006840F03B
:1046E00001002E4908600846006800F002000090B2
:1046F0000846006800F0020010B10120009001E0BF
:10470000002000900098012847D1244840300068DC
:1047100040F080502149403108602148006840F451
:1047200040401F4908601D48083000681B49083197
:1047300008600846006840F40040086008460068C9
:1047400040F4A050086040F2057016490860164811
:104750001249091D0860081F006840F08070091F99
:10476000086000BF0D48006800F000700028F9D014
:104770000A480830006820F0030008490831086042
:104780000846006840F00200086000BF0348083097
:10479000006800F00C000828F8D108BD003802407D
:1047A00000700040003C02400824000610B5FFF7EE
:1047B0008FFF10BD3EB505460C4601211020FEF7C7
:1047C00089FD684600F078F80195ADF800400020BA
:1047D000ADF80800ADF802006946064800F02AF876
:1047E0002021044800F01CF80121024800F00CF8D8
:1047F0003EBD00000010004070B504460D4629463D
:104800002046FFF7D7FF70BD21B1028842F00102B8
:10481000028004E002884FF6FE731A40028070475F
:1048200082884FF68F731A40828082880A43828082
:104830007047000000220288184B98420ED0184B97
:1048400098420BD0B0F1804F08D0164B984205D05B
:10485000154B984202D0154B984204D14FF68F73F6
:104860001A404B881A43124B984207D0114B98427A
:1048700004D04FF6FF431A400B891A4302804B685D
:10488000C3620B880385054B984202D0044B9842C3
:1048900001D18B7A03860123838270470000014097
:1048A000000401400004004000080040000C0040EB
:1048B00000100040001400404FF0FF314160002123
:1048C0000180018141808172704701207047012081
:1048D00070470120704702460120704703460120BF
:1048E00070470120704703460120704708B54FF418
:1048F000C060FEF7D5FC31208DF8000001208DF856
:10490000010000208DF8020001208DF803006846A8
:10491000FEF78AFC3B208DF8000001208DF8010095
:104920006846FEF781FCFFF757FAFFF77FFAFFF7BB
:10493000E3F830B90F48007820F001000D49087005
:1049400005E00C48007840F001000A490870FFF7C4
:10495000BEFF30B90748007840F0040005490870F0
:1049600005E00448007820F004000249087001487E
:10497000007808BD3C00002002466AB1022A04D03B
:10498000032A06D0042A09D107E04FF400700880FA
:1049900004E02020086001E000BF00BF00BF00204D
:1049A000704700002DE9F041ADF5007D04460D464D
:1049B00016464FF000082448007800F0010020B1AE
:1049C00003200DF5007DBDE8F08104F00300C8B1BF
:1049D000002710E029466D1C01226846FFF7E2FF20
:1049E000074607B10BE04FF4007269462046FBF71B
:1049F000EEFE04F50074301EA6F10106EAD100BFF8
:104A00003846DEE74FF4007069020A460023CDE91C
:104A100000062046FFF774FB8046B8F1000F11D165
:104A2000FFF74EFC804600BFFFF757F80746012806
:104A3000FAD0022F02D0B8F1000F01D00120C0E758
:104A40000020BEE70120BCE73C00002010B5FEF7C7
:104A50004DFE012801D0012010BDFFF738FF30B90D
:104A60000748007840F004000549087005E0044854
:104A7000007820F004000249087001480078EBE754
:104A80003C0000202DE9F041ADF5007D04460D46C7
:104A900016464FF00008FFF71AFF20B902200DF567
:104AA000007DBDE8F081FEF721FE012801D0032042
:104AB000F5E704F00300C8B1002710E04FF40072DE
:104AC00021466846FBF783FE29466D1C0122684695
:104AD000FFF7D8FF074607B105E004F50074301E64
:104AE000A6F10106EAD100BF3846D8E74FF40070BE
:104AF00069020A460023CDE900062046FFF76CFC58
:104B00008046B8F1000F11D1FFF724FC804600BFAA
:104B1000FEF7E3FF07460128FAD0022F02D0B8F1D2
:104B2000000F01D00120BAE70020B8E70120B6E766
:104B3000012070470246012070470346012070475C
:104B4000012070470346012070470120704702464C
:104B5000012070470346012070470120704703463B
:104B60000120704770B503460C46184600F01EF849
:104B7000C5B2002214E001209040204070B11868B6
:104B800056000321B14008431860074830F815006B
:104B9000012191408843044921F81500501CC2B2FC
:104BA000102AE8DB70BD00007E13002001464FF4A0
:104BB0000030081AC0F38F207047000000B502468D
:104BC0001046FFF7F3FF012101FA00F002490968DE
:104BD00008430149086000BD303802402DE9F04328
:104BE00004460E461546DDE907892046FFF7DEFF3D
:104BF000C7B2002243E001209040304000B93CE0C1
:104C0000214830F817000121914008431E4921F83E
:104C10001700E0684FEA420C032101FA0CF18843C7
:104C2000510008FA01F10843E06020684FEA420CA5
:104C3000032101FA0CF18843510005FA01F1084300
:104C40002060012D01D0022D16D161680120904015
:104C500080B221EA000003FA02F189B208436060E1
:104C6000A0684FEA420C032101FA0CF1884351007D
:104C700009FA01F10843A06000BF501CC2B2102A1B
:104C8000B9DBBDE8F08300007E1300202DE9FC476E
:104C900005460E4617469846DDE90A9A0EB9BDE864
:104CA000FC872846FFF78AFF00241AE00120A04075
:104CB000304000B914E0E10805F1200050F821006F
:104CC0006107CA0E0F21914088436107C90E0AFA95
:104CD00001F10843E20805F1200141F8220000BF7C
:104CE000641C102CE2D33B46022231462846CDE913
:104CF0000089FFF773FF00BFD1E770B503460020BE
:104D000011E0012484400C4004B90AE0DC6846004C
:104D10000325B540AC43450002FA05F52C43DC60A1
:104D200000BF441CE0B21028EBDB70BD00B587B0BB
:104D300001210846FEF7BEFA01211020FEF7DAFA3B
:104D4000072209213448FEF797F807220A21324842
:104D5000FEF792F802208DF808008DF80900002077
:104D60008DF80A0001208DF80B004002019001A986
:104D70002948FEF71BF84FF48060019001A92648EE
:104D8000FEF714F825208DF8000001208DF80300AF
:104D900000208DF801008DF802006846FEF744FA05
:104DA0004FF4E13003900020ADF81000ADF8120090
:104DB000ADF81400ADF818000C20ADF8160003A9EA
:104DC000164800F06BF8012240F22551134800F01C
:104DD00040F80121114800F023F8252000F01F02BF
:104DE000012191404209920002F1E022C2F8001133
:104DF00000BF4FF4E070019001208DF808000320FF
:104E00008DF8090000208DF80A0001A90248FDF77D
:104E1000CDFF07B000BD00000000024000100140BF
:104E200021B1828942F40052828104E082894DF6E8
:104E3000FF731A408281704702460020B1F5007F5F
:104E400000D100BF13880B400BB1012000E000200F
:104E50007047F0B50346002400260025002040F6E8
:104E60006A17B94200D100BF1846C1F3421401F0DD
:104E70001F06012707FA06F5012C01D10C3004E0CA
:104E8000022C01D1103000E014301AB107682F4312
:104E9000076002E00768AF430760F0BD2DE9FF47F8
:104EA00005460E460024A14600BFA046B08900B1C9
:104EB00000BF2C8A24F44054F08804432C82AC892F
:104EC00041F20C608443B0883189084371890843FA
:104ED0000443AC81AC8A24F44074B0890443AC82AE
:104EE0006846FEF759FA2048854202D01F4885429D
:104EF00002D1DDF80C9001E0DDF80890A88900F4FB
:104F0000004040B109EBC90000EB091031684900CD
:104F1000B0FBF1F707E009EBC90000EB09103168BD
:104F20008900B0FBF1F76420B7FBF0F00401200921
:104F3000642101FB1078A88900F4004040B13220C0
:104F400000EBC800B0FBF1F000F00700044308E0FC
:104F5000322000EB08106421B0FBF1F000F00F00EC
:104F600004432C81BDE8FF8700100140001401407C
:104F7000C1F308028280704703B401984100009891
:104F800050EAC12018BF04204A0D18BF40F00100AC
:104F900040F2FF72B2EB515F08BF40F002000128FF
:104FA00008BF052002B0704730380A2801D201201E
:104FB000704700207047000030B5C1B0012263A1E6
:104FC000634800F03FFF63490870084600780028F6
:104FD0007BD161A1624801F018F80546002D75D11A
:104FE00060A0FBF731FA00BF644865498861FE2084
:104FF000C8615B4801F014F905466148007A00F089
:1050000010000028F0D15E488069007810B15C483B
:10501000806901E05A48093002465AA101A8FBF70D
:105020001FFA5B4901A8FBF771FC0028DCD10024C2
:1050300026E000BF52494A4801F0F2F805465048C0
:105040008069007810B14E48806901E04C48093011
:1050500002464CA101A8FBF703FA4948407A30B94F
:105060004648007818B900213D4800F0FEFD44484C
:10507000407A0028DED04248407A2E28DAD0641CDC
:1050800044480078401EA042D3DC43A0FBF7DCF983
:1050900001A943A0FBF7D8F93D4901F1FF00FBF757
:1050A00072FB3B49FF393A48FBF76DFB002428E0CF
:1050B00000BF33492A4801F0B3F8054630488069FB
:1050C000007820B12E48806903E03DE038E02C48AC
:1050D000093002462BA101A8FBF7C2F92848407A03
:1050E00030B92648007818B900211D4800F0BDFDF0
:1050F0002348407A0028DCD02148407A2E28D8D096
:10510000641C24480078401EA042D1DC01A920483C
:10511000FF38FBF738FB01A927A0FBF795F91C49DD
:10512000FF392BA0FBF790F9194930A0FBF78CF958
:105130001749FF3134A0FBF787F9002041B030BD9B
:10514000074800F073FE00BF0020F7E700000000F2
:105150004C090020200000202F2F6D75736963001B
:105160006C0500204469726563746F7279206C6904
:105170007374696E672E2E2E0D0A00007E120020B9
:10518000940500202F2F6D757369632F2573000020
:10519000B30600200E00002076616F206E610A00C9
:1051A0006461752076616F206869656E207461693D
:1051B0002025730A00000000646F63207468656D29
:1051C0002032206C616E206E75612025730A00000C
:1051D0006C6973742E7074725F70726576696F7526
:1051E000735F736F6E67202573200A006C69737498
:1051F0002E7074725F63757272656E745F736F6E1A
:1052000067202573200A00006C6973742E70747215
:105210005F6E6578745F736F6E67202573200A0078
:1052200010B500F005F800F041F801F005FD10BDE3
:1052300000B585B001211020FEF73CF8012188035C
:10524000FEF758F81020019000208DF808008DF826
:105250000A0001208DF80B008DF8090001A9124801
:10526000FDF7A4FD04210846FFF766F9102003901E
:1052700000208DF810000C208DF8110001208DF811
:10528000120003A8FDF778F80A208DF8000000202E
:105290008DF801008DF8020001208DF803006846AA
:1052A000FDF7C2FF05B000BD0010024000B585B09B
:1052B00001211020FDF7FEFF01218803FEF71AF8F7
:1052C0000820019000208DF808008DF80A000120C8
:1052D0008DF80B008DF8090001A91248FDF766FD55
:1052E00003210420FFF728F90820039000208DF8FF
:1052F00010000C208DF8110001208DF8120003A879
:10530000FDF73AF809208DF8000000208DF8010023
:105310008DF8020001208DF803006846FDF784FF38
:1053200005B000BD0010024070B504460D460020D7
:105330002071401E20632946204601F017FD08B168
:10534000032070BD94F8321294F8330241EA002031
:105350004AF65521884201D00220F2E794F86D0008
:10536000010694F86C0041EA004194F86B0041EAB0
:10537000002094F86A10084320F07F400D498842CD
:1053800001D10020DDE794F88900010694F8880037
:1053900041EA004194F8870041EA002094F8861021
:1053A000084320F07F400349884201D10020C8E72C
:1053B0000120C6E746415400024600E0521C107826
:1053C00010B110788842F9D1107870470246891ED2
:1053D0009069801E884201D8002070479378D06A77
:1053E00001FB0300F9E700002DE9F04705460C46F4
:1053F000207820F04000401E00EB800101EBC00649
:1054000000274FF0010800BF1A48C05D205C194911
:10541000C95D2144497840EA0129B8F1000F10D054
:10542000484600F0ADFF8046FF2E07D23146761C7D
:1054300035F8110000F0A4FF404508D00020BDE879
:10544000F0874FF6FF70814501D00020F7E7781C08
:1054500007460D28D8D3207800F0400038B1B8F1C5
:10546000000F04D035F8160008B10020E7E701204E
:10547000E5E70000947600082DE9F04704468946E8
:10548000B9F1000F06D1E76817B1A069B84215D885
:10549000012713E04946204601F05EFA0646022E37
:1054A00002D20120BDE8F087701C08B93046F9E748
:1054B000A069B04201D93046F4E74F463D4600BFEF
:1054C0006D1CA069A84204D80225BD4201D9002064
:1054D000E8E72946204601F03FFA064606B909E00A
:1054E000701C08B1012E01D13046DBE7BD42E7D187
:1054F0000020D7E700BF6FF070422946204601F038
:10550000E9FD8046B8F1000F08D1B9F1000F05D0D0
:105510002A464946204601F0DDFD8046B8F1000FDD
:105520000BD1E5602069401C78B12069401E2061E4
:10553000607940F00100607107E0B8F1010F02D11D
:105540004FF0FF3000E0012005462846AAE70000A2
:105550002DE9F34F83B0814604980068019002E082
:105560000198401C0190019800782F28F8D00198EC
:1055700000785C28F4D0D9F81C700025A84600BF3C
:10558000404608F1010801990C5C202C03DB2F2C0C
:1055900001D05C2C00D11CE0FF2D03D3062005B008
:1055A000BDE8F08FE4B20121204600F0C3FE0446BE
:1055B0000CB90620F3E7802C06DA214684A0FFF719
:1055C000FBFE08B10620EAE728466D1C27F81040CC
:1055D000D6E700BF019800EB080104980160202C79
:1055E00001DA042000E000200646012D04D1681EE7
:1055F00037F810002E280BD0022D24D1681E37F862
:1056000010002E281FD1A81E37F810002E281AD1FE
:10561000002027F8150083460AE0AB4501D22E2072
:1056200000E02020D9F8181001F80B000BF1010B55
:10563000BBF10B0FF1D346F02000D9F8181001F898
:105640000B000020ABE708E0681E37F81040202C64
:1056500002D02E2C00D002E06D1E002DF4D100BF30
:105660000DB906209BE7002027F815000B2220210A
:10567000D9F8180001F070FB4FF0000801E008F1C4
:10568000010837F818002028F9D037F818002E281C
:10569000F5D0B8F1000F01D046F0030600E06D1E12
:1056A00025B1681E37F810002E28F8D14FF0000AF7
:1056B000D3460820029000BF404608F1010837F8A1
:1056C000104004B954E0202C03D02E2C04D1A8455E
:1056D00002D046F00306EFE70298834501D2A845C1
:1056E00016D102980B2802D146F0030640E0A845E7
:1056F00001D046F00306A84500D939E0A8464FF08E
:10570000080B0B2002904FEA8A604FEA106AD3E739
:10571000802C0BDB0021204600F00CFE04461CB15F
:10572000A4F180002D490C5C46F0020600BF24B1B4
:1057300021462BA0FFF740FE18B15F2446F0030678
:105740000FE0412C04DB5A2C02DC4AF0020A08E08C
:10575000612C06DB7A2C04DC4AF0010AA4F120005B
:1057600084B258460BF1010BD9F818301C54A3E74A
:1057700000BFD9F818000078E52803D10520D9F832
:10578000181008700298082803D14FEA8A604FEA7F
:10579000106A0AF00C000C2803D00AF0030003285A
:1057A00001D146F0020606F0020058B90AF00300E3
:1057B000012801D146F010060AF00C00042801D19E
:1057C00046F00806D9F81800C6720020E7E6000087
:1057D000222A3A3C3E3F7C7F0000000014760008FD
:1057E0002B2C3B3D5B5D000010B5044604E04FF4FC
:1057F0007A7000F004F8641E002CF8D110BD00B5DA
:105800000246FEF7B9FE02EBC20100EB011300BF36
:10581000FEF7B2FE181A0028FADC00BD2DE9F041AF
:1058200004460E460021204600F01FFA0546EDB959
:10583000002700BF2169206801F098FA054605B1EC
:1058400013E060690078E52802D06069007820B92B
:10585000781C0746B04201D107E00027012120460D
:1058600000F07FF80546002DE4D000BF042D00D1E4
:1058700007252846BDE8F0812DE9F04704460021C0
:10588000204600F0F2F9074617B13846BDE8F08728
:105890004FF0FF09CA464FF6FF70208400BF216910
:1058A000206801F063FA074607B157E065692E7872
:1058B0000EB9042752E0E87A00F03F08E52E05D043
:1058C00008F0080040B1B8F10F0F05D04FF0FF0904
:1058D0004FF6FF7020843AE0B8F10F0F1CD1E06959
:1058E00078B306F0400030B195F80DA026F04006E0
:1058F000B146E08820844E450AD1687B504507D1E7
:105900002946E069FFF770FD10B1A9F1010000E040
:10591000FF2000F0FF091AE0B9F1000F05D1284679
:1059200001F016FD504500D118E0A069C07A00F0E2
:10593000010038B90B222846A16901F0EDF908B938
:105940000CE004E04FF0FF094FF6FF7020840021C7
:10595000204600F006F80746002FA0D000BF3846CA
:1059600094E72DE9F04104468846E088461CB0B231
:1059700008B1206910B90420BDE8F08106F00F00DD
:1059800000286BD12069401C2061E06828B920689C
:105990000089B04262D80420EEE720688078401E7B
:1059A00000EA1610002859D1E168206800F0D4FF01
:1059B0000546012D01D80220DEE7681C08B9012048
:1059C000DAE720688069A84242D8B8F1000F01D117
:1059D0000420D1E7E1682068FFF74EFD05460DB9C8
:1059E0000720C9E7012D01D10220C5E7681C08B9CD
:1059F0000120C1E7206801F01FFD08B10120BBE7CD
:105A0000216801F134004FF40072002101F0A4F983
:105A100029462068FFF7DAFC2168086300270EE0BA
:105A2000012021680871206801F006FD08B10120FD
:105A3000A2E72068006B401C216808637F1C206877
:105A40008078B842ECD82068006BC01B21680863DE
:105A5000E56029462068FFF7B9FC2061E6802068F0
:105A6000343006F00F0100EB41106061002083E745
:105A70002DE9F05F04468A464FF0FF09CB46042724
:105A80004EE02169206801F071F9074607B14AE04C
:105A900065692E780EB9042745E0E87A00F03F08E2
:105AA000E52E09D000BF28F02000082801D10120F0
:105AB00000E00020504502D04FF0FF0929E0B8F186
:105AC0000F0F1AD106F0400030B195F80DB026F056
:105AD0004006B146E08820844E450AD1687B58458F
